{
  "contractName": "Medicines",
  "abi": [
    {
      "inputs": [],
      "payable": false,
      "stateMutability": "nonpayable",
      "type": "constructor"
    },
    {
      "constant": true,
      "inputs": [
        {
          "internalType": "uint256",
          "name": "",
          "type": "uint256"
        }
      ],
      "name": "listM",
      "outputs": [
        {
          "internalType": "string",
          "name": "name",
          "type": "string"
        },
        {
          "internalType": "int16",
          "name": "minTemp",
          "type": "int16"
        },
        {
          "internalType": "int16",
          "name": "minRecTemp",
          "type": "int16"
        },
        {
          "internalType": "int16",
          "name": "maxRecTemp",
          "type": "int16"
        },
        {
          "internalType": "int16",
          "name": "maxTemp",
          "type": "int16"
        },
        {
          "internalType": "int16",
          "name": "minHum",
          "type": "int16"
        },
        {
          "internalType": "int16",
          "name": "minRecHum",
          "type": "int16"
        },
        {
          "internalType": "int16",
          "name": "maxRecHum",
          "type": "int16"
        },
        {
          "internalType": "int16",
          "name": "maxHum",
          "type": "int16"
        },
        {
          "internalType": "int16",
          "name": "light",
          "type": "int16"
        },
        {
          "internalType": "int16",
          "name": "movement",
          "type": "int16"
        },
        {
          "internalType": "uint256",
          "name": "index",
          "type": "uint256"
        }
      ],
      "payable": false,
      "stateMutability": "view",
      "type": "function"
    },
    {
      "constant": true,
      "inputs": [],
      "name": "totalMedicines",
      "outputs": [
        {
          "internalType": "uint256",
          "name": "",
          "type": "uint256"
        }
      ],
      "payable": false,
      "stateMutability": "view",
      "type": "function"
    },
    {
      "constant": false,
      "inputs": [
        {
          "internalType": "string",
          "name": "name_",
          "type": "string"
        },
        {
          "internalType": "int16",
          "name": "minTemp_",
          "type": "int16"
        },
        {
          "internalType": "int16",
          "name": "minRecTemp_",
          "type": "int16"
        },
        {
          "internalType": "int16",
          "name": "maxRecTemp_",
          "type": "int16"
        },
        {
          "internalType": "int16",
          "name": "maxTemp_",
          "type": "int16"
        },
        {
          "internalType": "int16",
          "name": "minHum_",
          "type": "int16"
        },
        {
          "internalType": "int16",
          "name": "minRecHum_",
          "type": "int16"
        },
        {
          "internalType": "int16",
          "name": "maxRecHum_",
          "type": "int16"
        },
        {
          "internalType": "int16",
          "name": "maxHum_",
          "type": "int16"
        },
        {
          "internalType": "int16",
          "name": "light_",
          "type": "int16"
        },
        {
          "internalType": "int16",
          "name": "movement_",
          "type": "int16"
        }
      ],
      "name": "addMedicine",
      "outputs": [],
      "payable": false,
      "stateMutability": "nonpayable",
      "type": "function"
    },
    {
      "constant": true,
      "inputs": [],
      "name": "decisionAlgorithm",
      "outputs": [
        {
          "internalType": "bool",
          "name": "",
          "type": "bool"
        }
      ],
      "payable": false,
      "stateMutability": "pure",
      "type": "function"
    },
    {
      "constant": true,
      "inputs": [
        {
          "internalType": "uint256",
          "name": "idM_",
          "type": "uint256"
        }
      ],
      "name": "getMedicineName",
      "outputs": [
        {
          "internalType": "string",
          "name": "",
          "type": "string"
        }
      ],
      "payable": false,
      "stateMutability": "view",
      "type": "function"
    },
    {
      "constant": true,
      "inputs": [
        {
          "internalType": "uint256",
          "name": "idM_",
          "type": "uint256"
        }
      ],
      "name": "getMedicineMinTempParam",
      "outputs": [
        {
          "internalType": "int16",
          "name": "",
          "type": "int16"
        }
      ],
      "payable": false,
      "stateMutability": "view",
      "type": "function"
    },
    {
      "constant": true,
      "inputs": [
        {
          "internalType": "uint256",
          "name": "idM_",
          "type": "uint256"
        }
      ],
      "name": "getMedicineMaxTempParam",
      "outputs": [
        {
          "internalType": "int16",
          "name": "",
          "type": "int16"
        }
      ],
      "payable": false,
      "stateMutability": "view",
      "type": "function"
    },
    {
      "constant": true,
      "inputs": [
        {
          "internalType": "uint256",
          "name": "idM_",
          "type": "uint256"
        }
      ],
      "name": "getMedicineMinRecTempParam",
      "outputs": [
        {
          "internalType": "int16",
          "name": "",
          "type": "int16"
        }
      ],
      "payable": false,
      "stateMutability": "view",
      "type": "function"
    },
    {
      "constant": true,
      "inputs": [
        {
          "internalType": "uint256",
          "name": "idM_",
          "type": "uint256"
        }
      ],
      "name": "getMedicineMaxRecTempParam",
      "outputs": [
        {
          "internalType": "int16",
          "name": "",
          "type": "int16"
        }
      ],
      "payable": false,
      "stateMutability": "view",
      "type": "function"
    },
    {
      "constant": true,
      "inputs": [
        {
          "internalType": "uint256",
          "name": "idM_",
          "type": "uint256"
        }
      ],
      "name": "getMedicineMinHumParam",
      "outputs": [
        {
          "internalType": "int16",
          "name": "",
          "type": "int16"
        }
      ],
      "payable": false,
      "stateMutability": "view",
      "type": "function"
    },
    {
      "constant": true,
      "inputs": [
        {
          "internalType": "uint256",
          "name": "idM_",
          "type": "uint256"
        }
      ],
      "name": "getMedicineMinRecHumParam",
      "outputs": [
        {
          "internalType": "int16",
          "name": "",
          "type": "int16"
        }
      ],
      "payable": false,
      "stateMutability": "view",
      "type": "function"
    },
    {
      "constant": true,
      "inputs": [
        {
          "internalType": "uint256",
          "name": "idM_",
          "type": "uint256"
        }
      ],
      "name": "getMedicineMaxRecHumParam",
      "outputs": [
        {
          "internalType": "int16",
          "name": "",
          "type": "int16"
        }
      ],
      "payable": false,
      "stateMutability": "view",
      "type": "function"
    },
    {
      "constant": true,
      "inputs": [
        {
          "internalType": "uint256",
          "name": "idM_",
          "type": "uint256"
        }
      ],
      "name": "getMedicineMaxHumParam",
      "outputs": [
        {
          "internalType": "int16",
          "name": "",
          "type": "int16"
        }
      ],
      "payable": false,
      "stateMutability": "view",
      "type": "function"
    },
    {
      "constant": true,
      "inputs": [
        {
          "internalType": "uint256",
          "name": "idM_",
          "type": "uint256"
        }
      ],
      "name": "getMedicineLightParam",
      "outputs": [
        {
          "internalType": "int16",
          "name": "",
          "type": "int16"
        }
      ],
      "payable": false,
      "stateMutability": "view",
      "type": "function"
    },
    {
      "constant": true,
      "inputs": [
        {
          "internalType": "uint256",
          "name": "idM_",
          "type": "uint256"
        }
      ],
      "name": "getMedicineMovementParam",
      "outputs": [
        {
          "internalType": "int16",
          "name": "",
          "type": "int16"
        }
      ],
      "payable": false,
      "stateMutability": "view",
      "type": "function"
    },
    {
      "constant": true,
      "inputs": [
        {
          "internalType": "uint256",
          "name": "idM_",
          "type": "uint256"
        }
      ],
      "name": "getMedicineIndex",
      "outputs": [
        {
          "internalType": "uint256",
          "name": "",
          "type": "uint256"
        }
      ],
      "payable": false,
      "stateMutability": "view",
      "type": "function"
    }
  ],
  "bytecode": "0x608060405273fad90a54c5e0b91ff95d498e33a0920afcb0d2266000806101000a81548173ffffffffffffffffffffffffffffffffffffffff021916908373ffffffffffffffffffffffffffffffffffffffff16021790555034801561006457600080fd5b50336000806101000a81548173ffffffffffffffffffffffffffffffffffffffff021916908373ffffffffffffffffffffffffffffffffffffffff16021790555060006001819055506101056040518060400160405280600f81526020017f6d65646963696e615f707275656261000000000000000000000000000000000081525060006005600860156019601e605a605f6050603261010a60201b60201c565b6103f8565b6040518061018001604052808c81526020018b60010b81526020018a60010b81526020018960010b81526020018860010b81526020018760010b81526020018660010b81526020018560010b81526020018460010b81526020018360010b81526020018260010b815260200160015481525060026000600154815260200190815260200160002060008201518160000190805190602001906101ad929190610353565b5060208201518160010160006101000a81548161ffff021916908360010b61ffff16021790555060408201518160010160026101000a81548161ffff021916908360010b61ffff16021790555060608201518160010160046101000a81548161ffff021916908360010b61ffff16021790555060808201518160010160066101000a81548161ffff021916908360010b61ffff16021790555060a08201518160010160086101000a81548161ffff021916908360010b61ffff16021790555060c082015181600101600a6101000a81548161ffff021916908360010b61ffff16021790555060e082015181600101600c6101000a81548161ffff021916908360010b61ffff16021790555061010082015181600101600e6101000a81548161ffff021916908360010b61ffff1602179055506101208201518160010160106101000a81548161ffff021916908360010b61ffff1602179055506101408201518160010160126101000a81548161ffff021916908360010b61ffff160217905550610160820151816002015590505060018054016001819055505050505050505050505050565b828054600181600116156101000203166002900490600052602060002090601f016020900481019282601f1061039457805160ff19168380011785556103c2565b828001600101855582156103c2579182015b828111156103c15782518255916020019190600101906103a6565b5b5090506103cf91906103d3565b5090565b6103f591905b808211156103f15760008160009055506001016103d9565b5090565b90565b610eb280620004086000396000f3fe608060405234801561001057600080fd5b50600436106101005760003560e01c8063a4fac96211610097578063bd848c3011610066578063bd848c3014610676578063c50fb203146106be578063f94a91c0146106dc578063fa0c19161461072457610100565b8063a4fac9621461040f578063a6058114146104b6578063abe8b8dd146104fe578063b8d2d8151461054657610100565b80636710aff9116100d35780636710aff91461021f57806376e4ed45146102415780637aed19cd14610289578063850eb9de146102d157610100565b806302378e74146101055780631b1000a01461014d57806321cab1141461018f5780634b29e708146101d7575b600080fd5b6101316004803603602081101561011b57600080fd5b810190808035906020019092919050505061076c565b604051808260010b60010b815260200191505060405180910390f35b6101796004803603602081101561016357600080fd5b8101908080359060200190929190505050610799565b6040518082815260200191505060405180910390f35b6101bb600480360360208110156101a557600080fd5b81019080803590602001909291905050506107b9565b604051808260010b60010b815260200191505060405180910390f35b610203600480360360208110156101ed57600080fd5b81019080803590602001909291905050506107e6565b604051808260010b60010b815260200191505060405180910390f35b610227610813565b604051808215151515815260200191505060405180910390f35b61026d6004803603602081101561025757600080fd5b810190808035906020019092919050505061081c565b604051808260010b60010b815260200191505060405180910390f35b6102b56004803603602081101561029f57600080fd5b8101908080359060200190929190505050610849565b604051808260010b60010b815260200191505060405180910390f35b61040d60048036036101608110156102e857600080fd5b810190808035906020019064010000000081111561030557600080fd5b82018360208201111561031757600080fd5b8035906020019184600183028401116401000000008311171561033957600080fd5b91908080601f016020809104026020016040519081016040528093929190818152602001838380828437600081840152601f19601f820116905080830192505050505050509192919290803560010b9060200190929190803560010b9060200190929190803560010b9060200190929190803560010b9060200190929190803560010b9060200190929190803560010b9060200190929190803560010b9060200190929190803560010b9060200190929190803560010b9060200190929190803560010b9060200190929190505050610876565b005b61043b6004803603602081101561042557600080fd5b8101908080359060200190929190505050610abf565b6040518080602001828103825283818151815260200191508051906020019080838360005b8381101561047b578082015181840152602081019050610460565b50505050905090810190601f1680156104a85780820380516001836020036101000a031916815260200191505b509250505060405180910390f35b6104e2600480360360208110156104cc57600080fd5b8101908080359060200190929190505050610b77565b604051808260010b60010b815260200191505060405180910390f35b61052a6004803603602081101561051457600080fd5b8101908080359060200190929190505050610ba4565b604051808260010b60010b815260200191505060405180910390f35b6105726004803603602081101561055c57600080fd5b8101908080359060200190929190505050610bd1565b60405180806020018d60010b60010b81526020018c60010b60010b81526020018b60010b60010b81526020018a60010b60010b81526020018960010b60010b81526020018860010b60010b81526020018760010b60010b81526020018660010b60010b81526020018560010b60010b81526020018460010b60010b815260200183815260200182810382528e818151815260200191508051906020019080838360005b83811015610630578082015181840152602081019050610615565b50505050905090810190601f16801561065d5780820380516001836020036101000a031916815260200191505b509d505050505050505050505050505060405180910390f35b6106a26004803603602081101561068c57600080fd5b8101908080359060200190929190505050610d4b565b604051808260010b60010b815260200191505060405180910390f35b6106c6610d78565b6040518082815260200191505060405180910390f35b610708600480360360208110156106f257600080fd5b8101908080359060200190929190505050610d7e565b604051808260010b60010b815260200191505060405180910390f35b6107506004803603602081101561073a57600080fd5b8101908080359060200190929190505050610dab565b604051808260010b60010b815260200191505060405180910390f35b60006002600083815260200190815260200160002060010160009054906101000a900460010b9050919050565b600060026000838152602001908152602001600020600201549050919050565b60006002600083815260200190815260200160002060010160069054906101000a900460010b9050919050565b60006002600083815260200190815260200160002060010160049054906101000a900460010b9050919050565b60006001905090565b60006002600083815260200190815260200160002060010160029054906101000a900460010b9050919050565b600060026000838152602001908152602001600020600101600c9054906101000a900460010b9050919050565b6040518061018001604052808c81526020018b60010b81526020018a60010b81526020018960010b81526020018860010b81526020018760010b81526020018660010b81526020018560010b81526020018460010b81526020018360010b81526020018260010b81526020016001548152506002600060015481526020019081526020016000206000820151816000019080519060200190610919929190610dd8565b5060208201518160010160006101000a81548161ffff021916908360010b61ffff16021790555060408201518160010160026101000a81548161ffff021916908360010b61ffff16021790555060608201518160010160046101000a81548161ffff021916908360010b61ffff16021790555060808201518160010160066101000a81548161ffff021916908360010b61ffff16021790555060a08201518160010160086101000a81548161ffff021916908360010b61ffff16021790555060c082015181600101600a6101000a81548161ffff021916908360010b61ffff16021790555060e082015181600101600c6101000a81548161ffff021916908360010b61ffff16021790555061010082015181600101600e6101000a81548161ffff021916908360010b61ffff1602179055506101208201518160010160106101000a81548161ffff021916908360010b61ffff1602179055506101408201518160010160126101000a81548161ffff021916908360010b61ffff160217905550610160820151816002015590505060018054016001819055505050505050505050505050565b6060600260008381526020019081526020016000206000018054600181600116156101000203166002900480601f016020809104026020016040519081016040528092919081815260200182805460018160011615610100020316600290048015610b6b5780601f10610b4057610100808354040283529160200191610b6b565b820191906000526020600020905b815481529060010190602001808311610b4e57829003601f168201915b50505050509050919050565b600060026000838152602001908152602001600020600101600a9054906101000a900460010b9050919050565b60006002600083815260200190815260200160002060010160109054906101000a900460010b9050919050565b6002602052806000526040600020600091509050806000018054600181600116156101000203166002900480601f016020809104026020016040519081016040528092919081815260200182805460018160011615610100020316600290048015610c7d5780601f10610c5257610100808354040283529160200191610c7d565b820191906000526020600020905b815481529060010190602001808311610c6057829003601f168201915b5050505050908060010160009054906101000a900460010b908060010160029054906101000a900460010b908060010160049054906101000a900460010b908060010160069054906101000a900460010b908060010160089054906101000a900460010b9080600101600a9054906101000a900460010b9080600101600c9054906101000a900460010b9080600101600e9054906101000a900460010b908060010160109054906101000a900460010b908060010160129054906101000a900460010b90806002015490508c565b600060026000838152602001908152602001600020600101600e9054906101000a900460010b9050919050565b60015481565b60006002600083815260200190815260200160002060010160089054906101000a900460010b9050919050565b60006002600083815260200190815260200160002060010160129054906101000a900460010b9050919050565b828054600181600116156101000203166002900490600052602060002090601f016020900481019282601f10610e1957805160ff1916838001178555610e47565b82800160010185558215610e47579182015b82811115610e46578251825591602001919060010190610e2b565b5b509050610e549190610e58565b5090565b610e7a91905b80821115610e76576000816000905550600101610e5e565b5090565b9056fea265627a7a723158208797f1e4dc82b147d684b433284535dc9def11864710628957e00ea1da089b9864736f6c63430005100032",
  "source": "// SPDX-License-Identifier: GPL-3.0\n\npragma solidity >=0.5.13 <0.9.0;\n\n/**\n * @title Medicines\n * @dev Smart contract para añadir y eliminar medicinas y sus parámetros\n */\ncontract Medicines{\n\n\n    address owner = 0xFaD90A54C5E0b91Ff95d498E33a0920Afcb0d226; //Dirección de la cartera del servidor. Se puede definir en el constructor.\n    uint public totalMedicines; // Contador de medicinas registradas\n\n    constructor() public{\n        owner = msg.sender; // En caso de establecer la dirección cuando se despliegue el contrato. Si no, debería estar comentado\n        totalMedicines = 0;\n        addMedicine(\"medicina_prueba\",0,5,8,21,25,30,90,95,80,50);\n    }\n    \n    // Estructura de las medicinas\n    struct Medicine{\n        string name; // Nombre comercial de la medicina\n        int16 minTemp; // Temperatura mínima que la medicina puede soportar \n        int16 minRecTemp; // Temperatura mínima recomendada para la medicina\n        int16 maxRecTemp; // Temperatura máxima recomendada para la medicina\n        int16 maxTemp; // Temperatura máxima que la medicina puede soportar \n        int16 minHum; // Humedad mínima que la medicina puede resistir\n        int16 minRecHum; // Humedad mínima recomendada para la medicina \n        int16 maxRecHum; // Humedad máxima recomendada para la medicina (\n        int16 maxHum; // Humedad máxima que la medicina puede resistir (\n        int16 light; // Intensidad de luz máxima recomendada para la medicina\n        int16 movement; // Aceleración máxima recomendada para la medicina\n        uint index; // Índice de la medicina en el mapeo, usado para llevar control de todas las medicinas que hay registradas\n    }\n\n\n    mapping(uint => Medicine) public listM; //Mapeo de las medicinas relacionado con el número total de medicinas registradas (totalMedicines)\n\n\n    // Función para añadir una medicina a la blockchain\n    function addMedicine(string memory name_,\n        int16 minTemp_,\n        int16 minRecTemp_,\n        int16 maxRecTemp_,\n        int16 maxTemp_,\n        int16 minHum_,\n        int16 minRecHum_,\n        int16 maxRecHum_,\n        int16 maxHum_,\n        int16 light_,\n        int16 movement_) public{\n            \n\n            listM[totalMedicines] = Medicine(name_,minTemp_,minRecTemp_,maxRecTemp_,maxTemp_,minHum_,minRecHum_,maxRecHum_,maxHum_,light_,movement_,totalMedicines);\n\n            totalMedicines = totalMedicines + 1;\n\n    }\n\n    function decisionAlgorithm() public pure returns(bool){\n        return true;\n    }\n\n\n\n    // Getters para los todos los parámetros de las estructuras de medicinas\n    function getMedicineName(uint idM_) public view returns(string memory){\n        return (listM[idM_].name);\n    }\n\n    function getMedicineMinTempParam(uint idM_) public view returns(int16){\n        return (listM[idM_].minTemp);\n    }\n\n    function getMedicineMaxTempParam(uint idM_) public view returns(int16){\n        return (listM[idM_].maxTemp);\n    }\n\n    function getMedicineMinRecTempParam(uint idM_) public view returns(int16){\n        return (listM[idM_].minRecTemp);\n    }\n\n    function getMedicineMaxRecTempParam(uint idM_) public view returns(int16){\n        return (listM[idM_].maxRecTemp);\n    }\n\n    function getMedicineMinHumParam(uint idM_) public view returns(int16){\n        return (listM[idM_].minHum);\n    }\n\n    function getMedicineMinRecHumParam(uint idM_) public view returns(int16){\n        return (listM[idM_].minRecHum);\n    }\n\n    function getMedicineMaxRecHumParam(uint idM_) public view returns(int16){\n        return (listM[idM_].maxRecHum);\n    }\n\n    function getMedicineMaxHumParam(uint idM_) public view returns(int16){\n        return (listM[idM_].maxHum);\n    }\n\n    function getMedicineLightParam(uint idM_) public view returns(int16){\n        return (listM[idM_].light);\n    }\n\n    function getMedicineMovementParam(uint idM_) public view returns(int16){\n        return (listM[idM_].movement);\n    }\n\n    function getMedicineIndex(uint idM_) public view returns(uint){\n        return (listM[idM_].index);\n    }\n\n}",
  "sourcePath": "C:\\Users\\Usuario\\Desktop\\DApp-Victor\\contracts\\Medicines.sol",
  "compiler": {
    "name": "solc",
    "version": "0.5.16+commit.9c3226ce.Emscripten.clang"
  },
  "schemaVersion": "3.4.8",
  "updatedAt": "2024-05-15T18:09:25.480Z",
  "networkType": "ethereum",
  "devdoc": {
    "details": "Smart contract para añadir y eliminar medicinas y sus parámetros",
    "methods": {},
    "title": "Medicines"
  },
  "userdoc": {
    "methods": {}
  }
}