{
  "contractName": "Medicines",
  "abi": [
    {
      "inputs": [],
      "payable": false,
      "stateMutability": "nonpayable",
      "type": "constructor"
    },
    {
      "constant": true,
      "inputs": [
        {
          "internalType": "uint256",
          "name": "",
          "type": "uint256"
        }
      ],
      "name": "listM",
      "outputs": [
        {
          "internalType": "string",
          "name": "name",
          "type": "string"
        },
        {
          "internalType": "int16",
          "name": "minTemp",
          "type": "int16"
        },
        {
          "internalType": "int16",
          "name": "minRecTemp",
          "type": "int16"
        },
        {
          "internalType": "int16",
          "name": "maxRecTemp",
          "type": "int16"
        },
        {
          "internalType": "int16",
          "name": "maxTemp",
          "type": "int16"
        },
        {
          "internalType": "uint8",
          "name": "minHum",
          "type": "uint8"
        },
        {
          "internalType": "uint8",
          "name": "minRecHum",
          "type": "uint8"
        },
        {
          "internalType": "uint8",
          "name": "maxRecHum",
          "type": "uint8"
        },
        {
          "internalType": "uint8",
          "name": "maxHum",
          "type": "uint8"
        },
        {
          "internalType": "uint8",
          "name": "light",
          "type": "uint8"
        },
        {
          "internalType": "uint8",
          "name": "movement",
          "type": "uint8"
        },
        {
          "internalType": "uint256",
          "name": "index",
          "type": "uint256"
        }
      ],
      "payable": false,
      "stateMutability": "view",
      "type": "function"
    },
    {
      "constant": true,
      "inputs": [],
      "name": "totalMedicines",
      "outputs": [
        {
          "internalType": "uint256",
          "name": "",
          "type": "uint256"
        }
      ],
      "payable": false,
      "stateMutability": "view",
      "type": "function"
    },
    {
      "constant": false,
      "inputs": [
        {
          "internalType": "string",
          "name": "name_",
          "type": "string"
        },
        {
          "internalType": "int16",
          "name": "minTemp_",
          "type": "int16"
        },
        {
          "internalType": "int16",
          "name": "minRecTemp_",
          "type": "int16"
        },
        {
          "internalType": "int16",
          "name": "maxRecTemp_",
          "type": "int16"
        },
        {
          "internalType": "int16",
          "name": "maxTemp_",
          "type": "int16"
        },
        {
          "internalType": "uint8",
          "name": "minHum_",
          "type": "uint8"
        },
        {
          "internalType": "uint8",
          "name": "minRecHum_",
          "type": "uint8"
        },
        {
          "internalType": "uint8",
          "name": "maxRecHum_",
          "type": "uint8"
        },
        {
          "internalType": "uint8",
          "name": "maxHum_",
          "type": "uint8"
        },
        {
          "internalType": "uint8",
          "name": "light_",
          "type": "uint8"
        },
        {
          "internalType": "uint8",
          "name": "movement_",
          "type": "uint8"
        }
      ],
      "name": "addMedicine",
      "outputs": [],
      "payable": false,
      "stateMutability": "nonpayable",
      "type": "function"
    },
    {
      "constant": true,
      "inputs": [
        {
          "internalType": "uint256",
          "name": "idM_",
          "type": "uint256"
        }
      ],
      "name": "getMedicineName",
      "outputs": [
        {
          "internalType": "string",
          "name": "",
          "type": "string"
        }
      ],
      "payable": false,
      "stateMutability": "view",
      "type": "function"
    },
    {
      "constant": true,
      "inputs": [
        {
          "internalType": "uint256",
          "name": "idM_",
          "type": "uint256"
        }
      ],
      "name": "getMedicineMinTimeParam",
      "outputs": [
        {
          "internalType": "int16",
          "name": "",
          "type": "int16"
        }
      ],
      "payable": false,
      "stateMutability": "view",
      "type": "function"
    },
    {
      "constant": true,
      "inputs": [
        {
          "internalType": "uint256",
          "name": "idM_",
          "type": "uint256"
        }
      ],
      "name": "getMedicineMaxTimeParam",
      "outputs": [
        {
          "internalType": "int16",
          "name": "",
          "type": "int16"
        }
      ],
      "payable": false,
      "stateMutability": "view",
      "type": "function"
    },
    {
      "constant": true,
      "inputs": [
        {
          "internalType": "uint256",
          "name": "idM_",
          "type": "uint256"
        }
      ],
      "name": "getMedicineMinRecTimeParam",
      "outputs": [
        {
          "internalType": "int16",
          "name": "",
          "type": "int16"
        }
      ],
      "payable": false,
      "stateMutability": "view",
      "type": "function"
    },
    {
      "constant": true,
      "inputs": [
        {
          "internalType": "uint256",
          "name": "idM_",
          "type": "uint256"
        }
      ],
      "name": "getMedicineMaxRecTimeParam",
      "outputs": [
        {
          "internalType": "int16",
          "name": "",
          "type": "int16"
        }
      ],
      "payable": false,
      "stateMutability": "view",
      "type": "function"
    },
    {
      "constant": true,
      "inputs": [
        {
          "internalType": "uint256",
          "name": "idM_",
          "type": "uint256"
        }
      ],
      "name": "getMedicineMinHumParam",
      "outputs": [
        {
          "internalType": "uint8",
          "name": "",
          "type": "uint8"
        }
      ],
      "payable": false,
      "stateMutability": "view",
      "type": "function"
    },
    {
      "constant": true,
      "inputs": [
        {
          "internalType": "uint256",
          "name": "idM_",
          "type": "uint256"
        }
      ],
      "name": "getMedicineMinRecHumParam",
      "outputs": [
        {
          "internalType": "uint8",
          "name": "",
          "type": "uint8"
        }
      ],
      "payable": false,
      "stateMutability": "view",
      "type": "function"
    },
    {
      "constant": true,
      "inputs": [
        {
          "internalType": "uint256",
          "name": "idM_",
          "type": "uint256"
        }
      ],
      "name": "getMedicineMaxRecHumParam",
      "outputs": [
        {
          "internalType": "uint8",
          "name": "",
          "type": "uint8"
        }
      ],
      "payable": false,
      "stateMutability": "view",
      "type": "function"
    },
    {
      "constant": true,
      "inputs": [
        {
          "internalType": "uint256",
          "name": "idM_",
          "type": "uint256"
        }
      ],
      "name": "getMedicineMaxHumParam",
      "outputs": [
        {
          "internalType": "uint8",
          "name": "",
          "type": "uint8"
        }
      ],
      "payable": false,
      "stateMutability": "view",
      "type": "function"
    },
    {
      "constant": true,
      "inputs": [
        {
          "internalType": "uint256",
          "name": "idM_",
          "type": "uint256"
        }
      ],
      "name": "getMedicineLightParam",
      "outputs": [
        {
          "internalType": "uint8",
          "name": "",
          "type": "uint8"
        }
      ],
      "payable": false,
      "stateMutability": "view",
      "type": "function"
    },
    {
      "constant": true,
      "inputs": [
        {
          "internalType": "uint256",
          "name": "idM_",
          "type": "uint256"
        }
      ],
      "name": "getMedicineMovementParam",
      "outputs": [
        {
          "internalType": "uint8",
          "name": "",
          "type": "uint8"
        }
      ],
      "payable": false,
      "stateMutability": "view",
      "type": "function"
    }
  ],
  "bytecode": "0x608060405234801561001057600080fd5b50336000806101000a81548173ffffffffffffffffffffffffffffffffffffffff021916908373ffffffffffffffffffffffffffffffffffffffff16021790555060006001819055506100b16040518060400160405280600f81526020017f6d65646963696e615f707275656261000000000000000000000000000000000081525060006005600860156019601e605a605f605060326100b660201b60201c565b610386565b6040518061018001604052808c81526020018b60010b81526020018a60010b81526020018960010b81526020018860010b81526020018760ff1681526020018660ff1681526020018560ff1681526020018460ff1681526020018360ff1681526020018260ff16815260200160015481525060026000600154815260200190815260200160002060008201518160000190805190602001906101599291906102e1565b5060208201518160010160006101000a81548161ffff021916908360010b61ffff16021790555060408201518160010160026101000a81548161ffff021916908360010b61ffff16021790555060608201518160010160046101000a81548161ffff021916908360010b61ffff16021790555060808201518160010160066101000a81548161ffff021916908360010b61ffff16021790555060a08201518160010160086101000a81548160ff021916908360ff16021790555060c08201518160010160096101000a81548160ff021916908360ff16021790555060e082015181600101600a6101000a81548160ff021916908360ff16021790555061010082015181600101600b6101000a81548160ff021916908360ff16021790555061012082015181600101600c6101000a81548160ff021916908360ff16021790555061014082015181600101600d6101000a81548160ff021916908360ff160217905550610160820151816002015590505060018054016001819055505050505050505050505050565b828054600181600116156101000203166002900490600052602060002090601f016020900481019282601f1061032257805160ff1916838001178555610350565b82800160010185558215610350579182015b8281111561034f578251825591602001919060010190610334565b5b50905061035d9190610361565b5090565b61038391905b8082111561037f576000816000905550600101610367565b5090565b90565b610df1806103956000396000f3fe608060405234801561001057600080fd5b50600436106100ea5760003560e01c8063bd848c301161008c578063d37619dd11610066578063d37619dd146105d2578063f686ed861461061a578063f94a91c014610662578063fa0c1916146106aa576100ea565b8063bd848c3014610524578063bddad24f1461056c578063c50fb203146105b4576100ea565b8063a6058114116100c8578063a605811414610226578063abe8b8dd1461026e578063b8d2d815146102b6578063bc423d5e146103e6576100ea565b80636d03e440146100ef5780637aed19cd14610137578063a4fac9621461017f575b600080fd5b61011b6004803603602081101561010557600080fd5b81019080803590602001909291905050506106f2565b604051808260010b60010b815260200191505060405180910390f35b6101636004803603602081101561014d57600080fd5b810190808035906020019092919050505061071f565b604051808260ff1660ff16815260200191505060405180910390f35b6101ab6004803603602081101561019557600080fd5b810190808035906020019092919050505061074c565b6040518080602001828103825283818151815260200191508051906020019080838360005b838110156101eb5780820151818401526020810190506101d0565b50505050905090810190601f1680156102185780820380516001836020036101000a031916815260200191505b509250505060405180910390f35b6102526004803603602081101561023c57600080fd5b8101908080359060200190929190505050610804565b604051808260ff1660ff16815260200191505060405180910390f35b61029a6004803603602081101561028457600080fd5b8101908080359060200190929190505050610831565b604051808260ff1660ff16815260200191505060405180910390f35b6102e2600480360360208110156102cc57600080fd5b810190808035906020019092919050505061085e565b60405180806020018d60010b60010b81526020018c60010b60010b81526020018b60010b60010b81526020018a60010b60010b81526020018960ff1660ff1681526020018860ff1660ff1681526020018760ff1660ff1681526020018660ff1660ff1681526020018560ff1660ff1681526020018460ff1660ff16815260200183815260200182810382528e818151815260200191508051906020019080838360005b838110156103a0578082015181840152602081019050610385565b50505050905090810190601f1680156103cd5780820380516001836020036101000a031916815260200191505b509d505050505050505050505050505060405180910390f35b61052260048036036101608110156103fd57600080fd5b810190808035906020019064010000000081111561041a57600080fd5b82018360208201111561042c57600080fd5b8035906020019184600183028401116401000000008311171561044e57600080fd5b91908080601f016020809104026020016040519081016040528093929190818152602001838380828437600081840152601f19601f820116905080830192505050505050509192919290803560010b9060200190929190803560010b9060200190929190803560010b9060200190929190803560010b9060200190929190803560ff169060200190929190803560ff169060200190929190803560ff169060200190929190803560ff169060200190929190803560ff169060200190929190803560ff1690602001909291905050506109d8565b005b6105506004803603602081101561053a57600080fd5b8101908080359060200190929190505050610c03565b604051808260ff1660ff16815260200191505060405180910390f35b6105986004803603602081101561058257600080fd5b8101908080359060200190929190505050610c30565b604051808260010b60010b815260200191505060405180910390f35b6105bc610c5d565b6040518082815260200191505060405180910390f35b6105fe600480360360208110156105e857600080fd5b8101908080359060200190929190505050610c63565b604051808260010b60010b815260200191505060405180910390f35b6106466004803603602081101561063057600080fd5b8101908080359060200190929190505050610c90565b604051808260010b60010b815260200191505060405180910390f35b61068e6004803603602081101561067857600080fd5b8101908080359060200190929190505050610cbd565b604051808260ff1660ff16815260200191505060405180910390f35b6106d6600480360360208110156106c057600080fd5b8101908080359060200190929190505050610cea565b604051808260ff1660ff16815260200191505060405180910390f35b60006002600083815260200190815260200160002060010160009054906101000a900460010b9050919050565b600060026000838152602001908152602001600020600101600a9054906101000a900460ff169050919050565b6060600260008381526020019081526020016000206000018054600181600116156101000203166002900480601f0160208091040260200160405190810160405280929190818152602001828054600181600116156101000203166002900480156107f85780601f106107cd576101008083540402835291602001916107f8565b820191906000526020600020905b8154815290600101906020018083116107db57829003601f168201915b50505050509050919050565b60006002600083815260200190815260200160002060010160099054906101000a900460ff169050919050565b600060026000838152602001908152602001600020600101600c9054906101000a900460ff169050919050565b6002602052806000526040600020600091509050806000018054600181600116156101000203166002900480601f01602080910402602001604051908101604052809291908181526020018280546001816001161561010002031660029004801561090a5780601f106108df5761010080835404028352916020019161090a565b820191906000526020600020905b8154815290600101906020018083116108ed57829003601f168201915b5050505050908060010160009054906101000a900460010b908060010160029054906101000a900460010b908060010160049054906101000a900460010b908060010160069054906101000a900460010b908060010160089054906101000a900460ff16908060010160099054906101000a900460ff169080600101600a9054906101000a900460ff169080600101600b9054906101000a900460ff169080600101600c9054906101000a900460ff169080600101600d9054906101000a900460ff1690806002015490508c565b6040518061018001604052808c81526020018b60010b81526020018a60010b81526020018960010b81526020018860010b81526020018760ff1681526020018660ff1681526020018560ff1681526020018460ff1681526020018360ff1681526020018260ff1681526020016001548152506002600060015481526020019081526020016000206000820151816000019080519060200190610a7b929190610d17565b5060208201518160010160006101000a81548161ffff021916908360010b61ffff16021790555060408201518160010160026101000a81548161ffff021916908360010b61ffff16021790555060608201518160010160046101000a81548161ffff021916908360010b61ffff16021790555060808201518160010160066101000a81548161ffff021916908360010b61ffff16021790555060a08201518160010160086101000a81548160ff021916908360ff16021790555060c08201518160010160096101000a81548160ff021916908360ff16021790555060e082015181600101600a6101000a81548160ff021916908360ff16021790555061010082015181600101600b6101000a81548160ff021916908360ff16021790555061012082015181600101600c6101000a81548160ff021916908360ff16021790555061014082015181600101600d6101000a81548160ff021916908360ff160217905550610160820151816002015590505060018054016001819055505050505050505050505050565b600060026000838152602001908152602001600020600101600b9054906101000a900460ff169050919050565b60006002600083815260200190815260200160002060010160029054906101000a900460010b9050919050565b60015481565b60006002600083815260200190815260200160002060010160069054906101000a900460010b9050919050565b60006002600083815260200190815260200160002060010160049054906101000a900460010b9050919050565b60006002600083815260200190815260200160002060010160089054906101000a900460ff169050919050565b600060026000838152602001908152602001600020600101600d9054906101000a900460ff169050919050565b828054600181600116156101000203166002900490600052602060002090601f016020900481019282601f10610d5857805160ff1916838001178555610d86565b82800160010185558215610d86579182015b82811115610d85578251825591602001919060010190610d6a565b5b509050610d939190610d97565b5090565b610db991905b80821115610db5576000816000905550600101610d9d565b5090565b9056fea265627a7a723158209033ff49a6a25c01c8aaac3802b0b0b6829b112c4eb399b852893dab42b0c4fa64736f6c63430005100032",
  "source": "// SPDX-License-Identifier: GPL-3.0\n\npragma solidity >=0.5.13 <0.9.0;\n\n/**\n * @title Medicines\n * @dev Smart contract para a침adir y eliminar medicinas y sus par치metros\n */\ncontract Medicines{\n\n\n    address private Owner;\n    uint public totalMedicines;\n\n    constructor() public{\n        Owner = msg.sender;\n        totalMedicines = 0;\n        addMedicine(\"medicina_prueba\",0,5,8,21,25,30,90,95,80,50);\n    }\n    \n\n    struct Medicine{\n        string name;\n        int16 minTemp;\n        int16 minRecTemp;\n        int16 maxRecTemp;\n        int16 maxTemp;\n        uint8 minHum;\n        uint8 minRecHum;\n        uint8 maxRecHum;\n        uint8 maxHum;\n        uint8 light;\n        uint8 movement;\n        uint index;\n    }\n\n\n    mapping(uint => Medicine) public listM;\n\n    function addMedicine(string memory name_,\n        int16 minTemp_,\n        int16 minRecTemp_,\n        int16 maxRecTemp_,\n        int16 maxTemp_,\n        uint8 minHum_,\n        uint8 minRecHum_,\n        uint8 maxRecHum_,\n        uint8 maxHum_,\n        uint8 light_,\n        uint8 movement_) public{\n            \n\n            listM[totalMedicines] = Medicine(name_,minTemp_,minRecTemp_,maxRecTemp_,maxTemp_,minHum_,minRecHum_,maxRecHum_,maxHum_,light_,movement_,totalMedicines);\n\n            totalMedicines = totalMedicines + 1;\n\n    }\n\n\n\n\n    function getMedicineName(uint idM_) public view returns(string memory){\n        return (listM[idM_].name);\n    }\n\n    function getMedicineMinTimeParam(uint idM_) public view returns(int16){\n        return (listM[idM_].minTemp);\n    }\n\n    function getMedicineMaxTimeParam(uint idM_) public view returns(int16){\n        return (listM[idM_].maxTemp);\n    }\n\n    function getMedicineMinRecTimeParam(uint idM_) public view returns(int16){\n        return (listM[idM_].minRecTemp);\n    }\n\n    function getMedicineMaxRecTimeParam(uint idM_) public view returns(int16){\n        return (listM[idM_].maxRecTemp);\n    }\n\n    function getMedicineMinHumParam(uint idM_) public view returns(uint8){\n        return (listM[idM_].minHum);\n    }\n\n    function getMedicineMinRecHumParam(uint idM_) public view returns(uint8){\n        return (listM[idM_].minRecHum);\n    }\n\n    function getMedicineMaxRecHumParam(uint idM_) public view returns(uint8){\n        return (listM[idM_].maxRecHum);\n    }\n\n    function getMedicineMaxHumParam(uint idM_) public view returns(uint8){\n        return (listM[idM_].maxHum);\n    }\n\n    function getMedicineLightParam(uint idM_) public view returns(uint8){\n        return (listM[idM_].light);\n    }\n\n    function getMedicineMovementParam(uint idM_) public view returns(uint8){\n        return (listM[idM_].movement);\n    }\n\n}",
  "sourcePath": "C:\\Users\\Usuario\\Desktop\\DApp-Victor\\contracts\\Medicines.sol",
  "compiler": {
    "name": "solc",
    "version": "0.5.16+commit.9c3226ce.Emscripten.clang"
  },
  "schemaVersion": "3.4.8",
  "updatedAt": "2024-02-24T21:00:49.542Z",
  "devdoc": {
    "details": "Smart contract para a침adir y eliminar medicinas y sus par치metros",
    "methods": {},
    "title": "Medicines"
  },
  "userdoc": {
    "methods": {}
  }
}