{
  "contractName": "Notifications",
  "abi": [
    {
      "inputs": [],
      "payable": false,
      "stateMutability": "nonpayable",
      "type": "constructor"
    },
    {
      "constant": false,
      "inputs": [
        {
          "internalType": "address",
          "name": "userAddress_",
          "type": "address"
        },
        {
          "internalType": "uint256",
          "name": "idM_",
          "type": "uint256"
        },
        {
          "internalType": "bytes",
          "name": "C1_",
          "type": "bytes"
        },
        {
          "internalType": "bytes",
          "name": "C2_",
          "type": "bytes"
        }
      ],
      "name": "generateNotification",
      "outputs": [],
      "payable": false,
      "stateMutability": "nonpayable",
      "type": "function"
    },
    {
      "constant": false,
      "inputs": [
        {
          "internalType": "uint256",
          "name": "idN_",
          "type": "uint256"
        }
      ],
      "name": "acceptNotification",
      "outputs": [],
      "payable": false,
      "stateMutability": "nonpayable",
      "type": "function"
    },
    {
      "constant": false,
      "inputs": [
        {
          "internalType": "uint256",
          "name": "idN_",
          "type": "uint256"
        }
      ],
      "name": "rejectNotification",
      "outputs": [],
      "payable": false,
      "stateMutability": "nonpayable",
      "type": "function"
    }
  ],
  "bytecode": "0x608060405234801561001057600080fd5b5060008081905550610497806100276000396000f3fe608060405234801561001057600080fd5b50600436106100415760003560e01c806317ef17f0146100465780638d9fa45614610074578063b296b40f146101f0575b600080fd5b6100726004803603602081101561005c57600080fd5b810190808035906020019092919050505061021e565b005b6101ee6004803603608081101561008a57600080fd5b81019080803573ffffffffffffffffffffffffffffffffffffffff16906020019092919080359060200190929190803590602001906401000000008111156100d157600080fd5b8201836020820111156100e357600080fd5b8035906020019184600183028401116401000000008311171561010557600080fd5b91908080601f016020809104026020016040519081016040528093929190818152602001838380828437600081840152601f19601f8201169050808301925050505050505091929192908035906020019064010000000081111561016857600080fd5b82018360208201111561017a57600080fd5b8035906020019184600183028401116401000000008311171561019c57600080fd5b91908080601f016020809104026020016040519081016040528093929190818152602001838380828437600081840152601f19601f82011690508083019250505050505050919291929050505061024f565b005b61021c6004803603602081101561020657600080fd5b810190808035906020019092919050505061038c565b005b600180600083815260200190815260200160002060040160016101000a81548160ff02191690831515021790555050565b6040518060c001604052808573ffffffffffffffffffffffffffffffffffffffff16815260200184815260200183815260200182815260200160001515815260200160001515815250600160008054815260200190815260200160002060008201518160000160006101000a81548173ffffffffffffffffffffffffffffffffffffffff021916908373ffffffffffffffffffffffffffffffffffffffff1602179055506020820151816001015560408201518160020190805190602001906103199291906103bd565b5060608201518160030190805190602001906103369291906103bd565b5060808201518160040160006101000a81548160ff02191690831515021790555060a08201518160040160016101000a81548160ff02191690831515021790555090505060016000540160008190555050505050565b600180600083815260200190815260200160002060040160006101000a81548160ff02191690831515021790555050565b828054600181600116156101000203166002900490600052602060002090601f016020900481019282601f106103fe57805160ff191683800117855561042c565b8280016001018555821561042c579182015b8281111561042b578251825591602001919060010190610410565b5b509050610439919061043d565b5090565b61045f91905b8082111561045b576000816000905550600101610443565b5090565b9056fea265627a7a723158203242351f52eee1a381fd920d0052ad8c582037fe3b8fc11ce5b427802eacc9a464736f6c63430005100032",
  "source": "// SPDX-License-Identifier: GPL-3.0\n\npragma solidity >=0.5.13 <0.9.0;\n\n/** \n * @title Notifications\n * @dev Smart Contract para almacenar las notificaciones generadas\n */\ncontract Notifications{\n\n    uint private totalNotifications;\n\n    constructor() public{\n        totalNotifications = 0;\n    }\n\n    struct Notification{\n\n        address userAddress; //Dirección del ususario\n        uint idM; // Identificador de la medicina\n        bytes C1; // Primera parte de la notificación encriptada\n        bytes C2; // Segunda parte de la notificación encriptada\n        bool accepted; // Booleanos que controlan si la notificación se ha rechazado o aceptado\n        bool rejected;\n    }\n\n    // Mapping para la lista acceder a la notificación correspondiente a idN\n    mapping(uint => Notification) private listN;\n\n\n    //Funcion para crear notificaciones sin el proceso de cifrado de ZKP\n    function generateNotification(address userAddress_, uint idM_, bytes memory C1_, bytes memory C2_) public{\n\n        listN[totalNotifications] = Notification(userAddress_,idM_,C1_,C2_,false,false);\n\n        totalNotifications = totalNotifications + 1;\n\n    }\n\n    //Funcion para aceptar notificaciones\n    function acceptNotification(uint idN_) public{\n        listN[idN_].accepted = true;\n    }\n\n    //Funcion para rechazar notificaciones\n    function rejectNotification(uint idN_) public{\n        listN[idN_].rejected = true;\n    }\n\n}",
  "sourcePath": "C:\\Users\\Usuario\\Desktop\\DApp-Victor\\contracts\\Notifications.sol",
  "compiler": {
    "name": "solc",
    "version": "0.5.16+commit.9c3226ce.Emscripten.clang"
  },
  "schemaVersion": "3.4.8",
  "updatedAt": "2024-02-24T21:00:49.547Z",
  "devdoc": {
    "details": "Smart Contract para almacenar las notificaciones generadas",
    "methods": {},
    "title": "Notifications"
  },
  "userdoc": {
    "methods": {}
  }
}