{
  "contractName": "Notifications",
  "abi": [
    {
      "inputs": [],
      "payable": false,
      "stateMutability": "nonpayable",
      "type": "constructor"
    },
    {
      "constant": false,
      "inputs": [
        {
          "internalType": "address",
          "name": "userAddress_",
          "type": "address"
        },
        {
          "internalType": "uint256",
          "name": "idM_",
          "type": "uint256"
        },
        {
          "internalType": "bytes",
          "name": "C1_",
          "type": "bytes"
        },
        {
          "internalType": "bytes",
          "name": "C2_",
          "type": "bytes"
        }
      ],
      "name": "generateNotification",
      "outputs": [],
      "payable": false,
      "stateMutability": "nonpayable",
      "type": "function"
    },
    {
      "constant": false,
      "inputs": [
        {
          "internalType": "uint256",
          "name": "idN_",
          "type": "uint256"
        }
      ],
      "name": "acceptNotification",
      "outputs": [],
      "payable": false,
      "stateMutability": "nonpayable",
      "type": "function"
    },
    {
      "constant": false,
      "inputs": [
        {
          "internalType": "uint256",
          "name": "idN_",
          "type": "uint256"
        }
      ],
      "name": "rejectNotification",
      "outputs": [],
      "payable": false,
      "stateMutability": "nonpayable",
      "type": "function"
    },
    {
      "constant": true,
      "inputs": [
        {
          "internalType": "uint256",
          "name": "idN_",
          "type": "uint256"
        }
      ],
      "name": "getNotificationUserAddress",
      "outputs": [
        {
          "internalType": "address",
          "name": "",
          "type": "address"
        }
      ],
      "payable": false,
      "stateMutability": "view",
      "type": "function"
    },
    {
      "constant": true,
      "inputs": [
        {
          "internalType": "uint256",
          "name": "idN_",
          "type": "uint256"
        }
      ],
      "name": "getNotificationMed",
      "outputs": [
        {
          "internalType": "uint256",
          "name": "",
          "type": "uint256"
        }
      ],
      "payable": false,
      "stateMutability": "view",
      "type": "function"
    },
    {
      "constant": true,
      "inputs": [
        {
          "internalType": "uint256",
          "name": "idN_",
          "type": "uint256"
        }
      ],
      "name": "getEncryptedMessage",
      "outputs": [
        {
          "internalType": "bytes",
          "name": "",
          "type": "bytes"
        },
        {
          "internalType": "bytes",
          "name": "",
          "type": "bytes"
        }
      ],
      "payable": false,
      "stateMutability": "view",
      "type": "function"
    },
    {
      "constant": true,
      "inputs": [
        {
          "internalType": "uint256",
          "name": "idN_",
          "type": "uint256"
        }
      ],
      "name": "getNotiAcceptState",
      "outputs": [
        {
          "internalType": "bool",
          "name": "",
          "type": "bool"
        }
      ],
      "payable": false,
      "stateMutability": "view",
      "type": "function"
    },
    {
      "constant": true,
      "inputs": [
        {
          "internalType": "uint256",
          "name": "idN_",
          "type": "uint256"
        }
      ],
      "name": "getNotiRejectState",
      "outputs": [
        {
          "internalType": "bool",
          "name": "",
          "type": "bool"
        }
      ],
      "payable": false,
      "stateMutability": "view",
      "type": "function"
    }
  ],
  "bytecode": "0x608060405234801561001057600080fd5b5060008081905550610957806100276000396000f3fe608060405234801561001057600080fd5b50600436106100885760003560e01c80638d9fa4561161005b5780638d9fa45614610256578063b296b40f146103d2578063b7180dd614610400578063f788bf8a1461046e57610088565b8063023656e31461008d57806317ef17f0146100cf5780636692c09c146100fd57806368ba91e514610210575b600080fd5b6100b9600480360360208110156100a357600080fd5b81019080803590602001909291905050506104b4565b6040518082815260200191505060405180910390f35b6100fb600480360360208110156100e557600080fd5b81019080803590602001909291905050506104d4565b005b6101296004803603602081101561011357600080fd5b8101908080359060200190929190505050610505565b604051808060200180602001838103835285818151815260200191508051906020019080838360005b8381101561016d578082015181840152602081019050610152565b50505050905090810190601f16801561019a5780820380516001836020036101000a031916815260200191505b50838103825284818151815260200191508051906020019080838360005b838110156101d35780820151818401526020810190506101b8565b50505050905090810190601f1680156102005780820380516001836020036101000a031916815260200191505b5094505050505060405180910390f35b61023c6004803603602081101561022657600080fd5b8101908080359060200190929190505050610675565b604051808215151515815260200191505060405180910390f35b6103d06004803603608081101561026c57600080fd5b81019080803573ffffffffffffffffffffffffffffffffffffffff16906020019092919080359060200190929190803590602001906401000000008111156102b357600080fd5b8201836020820111156102c557600080fd5b803590602001918460018302840111640100000000831117156102e757600080fd5b91908080601f016020809104026020016040519081016040528093929190818152602001838380828437600081840152601f19601f8201169050808301925050505050505091929192908035906020019064010000000081111561034a57600080fd5b82018360208201111561035c57600080fd5b8035906020019184600183028401116401000000008311171561037e57600080fd5b91908080601f016020809104026020016040519081016040528093929190818152602001838380828437600081840152601f19601f8201169050808301925050505050505091929192905050506106a2565b005b6103fe600480360360208110156103e857600080fd5b81019080803590602001909291905050506107df565b005b61042c6004803603602081101561041657600080fd5b8101908080359060200190929190505050610810565b604051808273ffffffffffffffffffffffffffffffffffffffff1673ffffffffffffffffffffffffffffffffffffffff16815260200191505060405180910390f35b61049a6004803603602081101561048457600080fd5b8101908080359060200190929190505050610850565b604051808215151515815260200191505060405180910390f35b600060016000838152602001908152602001600020600101549050919050565b600180600083815260200190815260200160002060040160016101000a81548160ff02191690831515021790555050565b6060806001600084815260200190815260200160002060020160016000858152602001908152602001600020600301818054600181600116156101000203166002900480601f0160208091040260200160405190810160405280929190818152602001828054600181600116156101000203166002900480156105c95780601f1061059e576101008083540402835291602001916105c9565b820191906000526020600020905b8154815290600101906020018083116105ac57829003601f168201915b50505050509150808054600181600116156101000203166002900480601f0160208091040260200160405190810160405280929190818152602001828054600181600116156101000203166002900480156106655780601f1061063a57610100808354040283529160200191610665565b820191906000526020600020905b81548152906001019060200180831161064857829003601f168201915b5050505050905091509150915091565b60006001600083815260200190815260200160002060040160019054906101000a900460ff169050919050565b6040518060c001604052808573ffffffffffffffffffffffffffffffffffffffff16815260200184815260200183815260200182815260200160001515815260200160001515815250600160008054815260200190815260200160002060008201518160000160006101000a81548173ffffffffffffffffffffffffffffffffffffffff021916908373ffffffffffffffffffffffffffffffffffffffff16021790555060208201518160010155604082015181600201908051906020019061076c92919061087d565b50606082015181600301908051906020019061078992919061087d565b5060808201518160040160006101000a81548160ff02191690831515021790555060a08201518160040160016101000a81548160ff02191690831515021790555090505060016000540160008190555050505050565b600180600083815260200190815260200160002060040160006101000a81548160ff02191690831515021790555050565b60006001600083815260200190815260200160002060000160009054906101000a900473ffffffffffffffffffffffffffffffffffffffff169050919050565b60006001600083815260200190815260200160002060040160009054906101000a900460ff169050919050565b828054600181600116156101000203166002900490600052602060002090601f016020900481019282601f106108be57805160ff19168380011785556108ec565b828001600101855582156108ec579182015b828111156108eb5782518255916020019190600101906108d0565b5b5090506108f991906108fd565b5090565b61091f91905b8082111561091b576000816000905550600101610903565b5090565b9056fea265627a7a7231582025be807e4bea42b9f345a8789b9b1497fb8ec97c76cc2819b5dae523f9712b3164736f6c63430005100032",
  "source": "// SPDX-License-Identifier: GPL-3.0\n\npragma solidity >=0.5.13 <0.9.0;\n\n/** \n * @title Notifications\n * @dev Smart Contract para almacenar las notificaciones generadas\n */\ncontract Notifications{\n\n    uint private totalNotifications;\n\n    constructor() public{\n        totalNotifications = 0;\n    }\n\n    struct Notification{\n\n        address userAddress; //Dirección del ususario\n        uint idM; // Identificador de la medicina\n        bytes C1; // Primera parte de la notificación encriptada\n        bytes C2; // Segunda parte de la notificación encriptada\n        bool accepted; // Booleanos que controlan si la notificación se ha rechazado o aceptado\n        bool rejected;\n    }\n\n    // Mapping para la lista acceder a la notificación correspondiente a idN\n    mapping(uint => Notification) private listN;\n\n\n    //Funcion para crear notificaciones sin el proceso de cifrado de ZKP\n    function generateNotification(address userAddress_, uint idM_, bytes memory C1_, bytes memory C2_) public{\n\n        listN[totalNotifications] = Notification(userAddress_,idM_,C1_,C2_,false,false);\n\n        totalNotifications = totalNotifications + 1;\n\n    }\n\n    //Funcion para aceptar notificaciones\n    function acceptNotification(uint idN_) public{\n        listN[idN_].accepted = true;\n    }\n\n    //Funcion para rechazar notificaciones\n    function rejectNotification(uint idN_) public{\n        listN[idN_].rejected = true;\n    }\n\n    //Getters para los parámetros de las notificaciones\n    function getNotificationUserAddress(uint idN_) public view returns(address){\n        return (listN[idN_].userAddress);\n    }\n\n    function getNotificationMed(uint idN_) public view returns(uint){\n        return (listN[idN_].idM);\n    }\n\n    function getEncryptedMessage(uint idN_) public view returns(bytes memory, bytes memory) {\n    return (listN[idN_].C1, listN[idN_].C2);\n}\n\n    function getNotiAcceptState(uint idN_) public view returns(bool){\n        return (listN[idN_].accepted);\n    }\n\n    function getNotiRejectState(uint idN_) public view returns(bool){\n        return (listN[idN_].rejected);\n    }\n\n}",
  "sourcePath": "C:\\Users\\Usuario\\Desktop\\DApp-Victor\\contracts\\Notifications.sol",
  "compiler": {
    "name": "solc",
    "version": "0.5.16+commit.9c3226ce.Emscripten.clang"
  },
  "schemaVersion": "3.4.8",
  "updatedAt": "2024-05-15T18:09:25.484Z",
  "networkType": "ethereum",
  "devdoc": {
    "details": "Smart Contract para almacenar las notificaciones generadas",
    "methods": {},
    "title": "Notifications"
  },
  "userdoc": {
    "methods": {}
  }
}