{
  "contractName": "Protocol",
  "abi": [
    {
      "inputs": [
        {
          "internalType": "address",
          "name": "medicinesAddress_",
          "type": "address"
        },
        {
          "internalType": "address",
          "name": "notificationsAddress_",
          "type": "address"
        }
      ],
      "payable": false,
      "stateMutability": "nonpayable",
      "type": "constructor"
    },
    {
      "constant": true,
      "inputs": [
        {
          "internalType": "uint16",
          "name": "",
          "type": "uint16"
        }
      ],
      "name": "listG",
      "outputs": [
        {
          "internalType": "bool",
          "name": "registered",
          "type": "bool"
        },
        {
          "internalType": "bytes8",
          "name": "devEui",
          "type": "bytes8"
        },
        {
          "internalType": "bytes6",
          "name": "mac",
          "type": "bytes6"
        },
        {
          "internalType": "bytes32",
          "name": "pubKeyL",
          "type": "bytes32"
        },
        {
          "internalType": "bytes32",
          "name": "pubKeyR",
          "type": "bytes32"
        },
        {
          "internalType": "uint16",
          "name": "gatewayCertificateID",
          "type": "uint16"
        }
      ],
      "payable": false,
      "stateMutability": "view",
      "type": "function"
    },
    {
      "constant": true,
      "inputs": [
        {
          "internalType": "uint16",
          "name": "",
          "type": "uint16"
        }
      ],
      "name": "listGC",
      "outputs": [
        {
          "internalType": "uint256",
          "name": "expiryDate",
          "type": "uint256"
        },
        {
          "internalType": "bool",
          "name": "revoked",
          "type": "bool"
        },
        {
          "internalType": "uint16",
          "name": "idG",
          "type": "uint16"
        },
        {
          "internalType": "address",
          "name": "userAddress",
          "type": "address"
        }
      ],
      "payable": false,
      "stateMutability": "view",
      "type": "function"
    },
    {
      "constant": true,
      "inputs": [
        {
          "internalType": "uint16",
          "name": "",
          "type": "uint16"
        }
      ],
      "name": "listS",
      "outputs": [
        {
          "internalType": "bool",
          "name": "registered",
          "type": "bool"
        },
        {
          "internalType": "bytes6",
          "name": "mac",
          "type": "bytes6"
        },
        {
          "internalType": "bytes32",
          "name": "pubKeyL",
          "type": "bytes32"
        },
        {
          "internalType": "bytes32",
          "name": "pubKeyR",
          "type": "bytes32"
        },
        {
          "internalType": "uint16",
          "name": "sensorCertificateID",
          "type": "uint16"
        }
      ],
      "payable": false,
      "stateMutability": "view",
      "type": "function"
    },
    {
      "constant": true,
      "inputs": [
        {
          "internalType": "uint16",
          "name": "",
          "type": "uint16"
        }
      ],
      "name": "listSC",
      "outputs": [
        {
          "internalType": "uint256",
          "name": "expiryDate",
          "type": "uint256"
        },
        {
          "internalType": "bool",
          "name": "revoked",
          "type": "bool"
        },
        {
          "internalType": "uint16",
          "name": "idS",
          "type": "uint16"
        },
        {
          "internalType": "uint16",
          "name": "idG",
          "type": "uint16"
        },
        {
          "internalType": "uint256",
          "name": "idM",
          "type": "uint256"
        }
      ],
      "payable": false,
      "stateMutability": "view",
      "type": "function"
    },
    {
      "constant": true,
      "inputs": [
        {
          "internalType": "uint16",
          "name": "",
          "type": "uint16"
        }
      ],
      "name": "listW",
      "outputs": [
        {
          "internalType": "uint256",
          "name": "date",
          "type": "uint256"
        },
        {
          "internalType": "enum Protocol.WarningType",
          "name": "warningType",
          "type": "uint8"
        },
        {
          "internalType": "uint256",
          "name": "idSC",
          "type": "uint256"
        },
        {
          "internalType": "bool",
          "name": "closed",
          "type": "bool"
        },
        {
          "internalType": "uint16",
          "name": "duration",
          "type": "uint16"
        },
        {
          "internalType": "int16",
          "name": "maxTemp",
          "type": "int16"
        },
        {
          "internalType": "int16",
          "name": "minTemp",
          "type": "int16"
        }
      ],
      "payable": false,
      "stateMutability": "view",
      "type": "function"
    },
    {
      "constant": true,
      "inputs": [],
      "name": "medicinesContract",
      "outputs": [
        {
          "internalType": "contract Medicines",
          "name": "",
          "type": "address"
        }
      ],
      "payable": false,
      "stateMutability": "view",
      "type": "function"
    },
    {
      "constant": true,
      "inputs": [],
      "name": "notificationsContract",
      "outputs": [
        {
          "internalType": "contract Notifications",
          "name": "",
          "type": "address"
        }
      ],
      "payable": false,
      "stateMutability": "view",
      "type": "function"
    },
    {
      "constant": false,
      "inputs": [
        {
          "internalType": "uint16",
          "name": "idS_",
          "type": "uint16"
        },
        {
          "internalType": "bytes6",
          "name": "mac_",
          "type": "bytes6"
        },
        {
          "internalType": "bytes32",
          "name": "pubKeyL_",
          "type": "bytes32"
        },
        {
          "internalType": "bytes32",
          "name": "pubKeyR_",
          "type": "bytes32"
        }
      ],
      "name": "sensorRegistration",
      "outputs": [],
      "payable": false,
      "stateMutability": "nonpayable",
      "type": "function"
    },
    {
      "constant": false,
      "inputs": [
        {
          "internalType": "uint16",
          "name": "idG_",
          "type": "uint16"
        },
        {
          "internalType": "bytes8",
          "name": "devEui_",
          "type": "bytes8"
        },
        {
          "internalType": "bytes6",
          "name": "mac_",
          "type": "bytes6"
        },
        {
          "internalType": "bytes32",
          "name": "pubKeyL_",
          "type": "bytes32"
        },
        {
          "internalType": "bytes32",
          "name": "pubKeyR_",
          "type": "bytes32"
        }
      ],
      "name": "gatewayRegistration",
      "outputs": [],
      "payable": false,
      "stateMutability": "nonpayable",
      "type": "function"
    },
    {
      "constant": false,
      "inputs": [
        {
          "internalType": "uint16",
          "name": "idG_",
          "type": "uint16"
        },
        {
          "internalType": "address",
          "name": "userAddress_",
          "type": "address"
        }
      ],
      "name": "gatewayCertificateCreation",
      "outputs": [],
      "payable": false,
      "stateMutability": "nonpayable",
      "type": "function"
    },
    {
      "constant": false,
      "inputs": [
        {
          "internalType": "uint16",
          "name": "idS_",
          "type": "uint16"
        },
        {
          "internalType": "uint16",
          "name": "idG_",
          "type": "uint16"
        },
        {
          "internalType": "uint256",
          "name": "idM_",
          "type": "uint256"
        }
      ],
      "name": "sensorCertificateCreation",
      "outputs": [],
      "payable": false,
      "stateMutability": "nonpayable",
      "type": "function"
    },
    {
      "constant": false,
      "inputs": [
        {
          "internalType": "uint16",
          "name": "idGC_",
          "type": "uint16"
        }
      ],
      "name": "gatewayCertificateUpdate",
      "outputs": [],
      "payable": false,
      "stateMutability": "nonpayable",
      "type": "function"
    },
    {
      "constant": false,
      "inputs": [
        {
          "internalType": "uint16",
          "name": "idSC_",
          "type": "uint16"
        },
        {
          "internalType": "uint16",
          "name": "idGC_",
          "type": "uint16"
        }
      ],
      "name": "sensorCertificateUpdate",
      "outputs": [],
      "payable": false,
      "stateMutability": "nonpayable",
      "type": "function"
    },
    {
      "constant": true,
      "inputs": [
        {
          "internalType": "uint16",
          "name": "idG_",
          "type": "uint16"
        }
      ],
      "name": "getGatewayCertificateID",
      "outputs": [
        {
          "internalType": "uint16",
          "name": "idGC_",
          "type": "uint16"
        }
      ],
      "payable": false,
      "stateMutability": "view",
      "type": "function"
    },
    {
      "constant": true,
      "inputs": [
        {
          "internalType": "uint16",
          "name": "idS_",
          "type": "uint16"
        }
      ],
      "name": "getSensorCertificateID",
      "outputs": [
        {
          "internalType": "uint16",
          "name": "idSC_",
          "type": "uint16"
        }
      ],
      "payable": false,
      "stateMutability": "view",
      "type": "function"
    },
    {
      "constant": true,
      "inputs": [
        {
          "internalType": "uint16",
          "name": "idG_",
          "type": "uint16"
        }
      ],
      "name": "checkGatewayCertificateStatus",
      "outputs": [
        {
          "internalType": "bool",
          "name": "",
          "type": "bool"
        }
      ],
      "payable": false,
      "stateMutability": "view",
      "type": "function"
    },
    {
      "constant": true,
      "inputs": [
        {
          "internalType": "uint16",
          "name": "idS_",
          "type": "uint16"
        }
      ],
      "name": "checkSensorCertificateStatus",
      "outputs": [
        {
          "internalType": "bool",
          "name": "",
          "type": "bool"
        }
      ],
      "payable": false,
      "stateMutability": "view",
      "type": "function"
    },
    {
      "constant": false,
      "inputs": [
        {
          "internalType": "uint16",
          "name": "idS_",
          "type": "uint16"
        }
      ],
      "name": "revokeSensorCertificate",
      "outputs": [],
      "payable": false,
      "stateMutability": "nonpayable",
      "type": "function"
    },
    {
      "constant": false,
      "inputs": [
        {
          "internalType": "uint16",
          "name": "idG_",
          "type": "uint16"
        }
      ],
      "name": "revokeGatewayCertificate",
      "outputs": [],
      "payable": false,
      "stateMutability": "nonpayable",
      "type": "function"
    },
    {
      "constant": false,
      "inputs": [
        {
          "internalType": "uint16",
          "name": "idS_",
          "type": "uint16"
        }
      ],
      "name": "eraseSensor",
      "outputs": [],
      "payable": false,
      "stateMutability": "nonpayable",
      "type": "function"
    },
    {
      "constant": false,
      "inputs": [
        {
          "internalType": "uint16",
          "name": "idG_",
          "type": "uint16"
        }
      ],
      "name": "eraseGateway",
      "outputs": [],
      "payable": false,
      "stateMutability": "nonpayable",
      "type": "function"
    },
    {
      "constant": false,
      "inputs": [
        {
          "internalType": "address",
          "name": "owner_",
          "type": "address"
        },
        {
          "internalType": "uint16",
          "name": "idS_",
          "type": "uint16"
        },
        {
          "internalType": "uint8",
          "name": "warningType_",
          "type": "uint8"
        },
        {
          "internalType": "uint16",
          "name": "duration_",
          "type": "uint16"
        },
        {
          "internalType": "int16",
          "name": "vAvg_",
          "type": "int16"
        },
        {
          "internalType": "int16",
          "name": "maxTemp_",
          "type": "int16"
        },
        {
          "internalType": "int16",
          "name": "minTemp_",
          "type": "int16"
        }
      ],
      "name": "newWarning",
      "outputs": [],
      "payable": false,
      "stateMutability": "nonpayable",
      "type": "function"
    },
    {
      "constant": false,
      "inputs": [
        {
          "internalType": "address",
          "name": "owner_",
          "type": "address"
        },
        {
          "internalType": "uint16",
          "name": "idW_",
          "type": "uint16"
        },
        {
          "internalType": "uint16",
          "name": "idS_",
          "type": "uint16"
        },
        {
          "internalType": "uint8",
          "name": "warningType_",
          "type": "uint8"
        },
        {
          "internalType": "uint16",
          "name": "idSC_",
          "type": "uint16"
        },
        {
          "internalType": "uint16",
          "name": "duration_",
          "type": "uint16"
        },
        {
          "internalType": "int16",
          "name": "vAvg_",
          "type": "int16"
        },
        {
          "internalType": "int16",
          "name": "maxTemp_",
          "type": "int16"
        },
        {
          "internalType": "int16",
          "name": "minTemp_",
          "type": "int16"
        }
      ],
      "name": "updateWarning",
      "outputs": [],
      "payable": false,
      "stateMutability": "nonpayable",
      "type": "function"
    },
    {
      "constant": false,
      "inputs": [
        {
          "internalType": "uint8",
          "name": "warningType_",
          "type": "uint8"
        },
        {
          "internalType": "uint256",
          "name": "idM_",
          "type": "uint256"
        },
        {
          "internalType": "uint16",
          "name": "idW_",
          "type": "uint16"
        },
        {
          "internalType": "uint16",
          "name": "idG_",
          "type": "uint16"
        }
      ],
      "name": "processWarning",
      "outputs": [],
      "payable": false,
      "stateMutability": "nonpayable",
      "type": "function"
    },
    {
      "constant": true,
      "inputs": [],
      "name": "decisionAlgorithm1",
      "outputs": [
        {
          "internalType": "bool",
          "name": "",
          "type": "bool"
        }
      ],
      "payable": false,
      "stateMutability": "pure",
      "type": "function"
    },
    {
      "constant": true,
      "inputs": [
        {
          "internalType": "uint16",
          "name": "idG_",
          "type": "uint16"
        }
      ],
      "name": "getGatewayData",
      "outputs": [
        {
          "internalType": "bool",
          "name": "",
          "type": "bool"
        },
        {
          "internalType": "bytes8",
          "name": "",
          "type": "bytes8"
        },
        {
          "internalType": "bytes6",
          "name": "",
          "type": "bytes6"
        },
        {
          "internalType": "bytes32",
          "name": "",
          "type": "bytes32"
        },
        {
          "internalType": "bytes32",
          "name": "",
          "type": "bytes32"
        }
      ],
      "payable": false,
      "stateMutability": "view",
      "type": "function"
    },
    {
      "constant": true,
      "inputs": [
        {
          "internalType": "uint16",
          "name": "idS_",
          "type": "uint16"
        }
      ],
      "name": "getSensorData",
      "outputs": [
        {
          "internalType": "bool",
          "name": "",
          "type": "bool"
        },
        {
          "internalType": "bytes6",
          "name": "",
          "type": "bytes6"
        },
        {
          "internalType": "bytes32",
          "name": "",
          "type": "bytes32"
        },
        {
          "internalType": "bytes32",
          "name": "",
          "type": "bytes32"
        }
      ],
      "payable": false,
      "stateMutability": "view",
      "type": "function"
    },
    {
      "constant": true,
      "inputs": [
        {
          "internalType": "uint16",
          "name": "idGC_",
          "type": "uint16"
        }
      ],
      "name": "getGatewayCertificateData",
      "outputs": [
        {
          "internalType": "uint256",
          "name": "",
          "type": "uint256"
        },
        {
          "internalType": "bool",
          "name": "",
          "type": "bool"
        },
        {
          "internalType": "uint16",
          "name": "",
          "type": "uint16"
        },
        {
          "internalType": "address",
          "name": "",
          "type": "address"
        }
      ],
      "payable": false,
      "stateMutability": "view",
      "type": "function"
    },
    {
      "constant": true,
      "inputs": [
        {
          "internalType": "uint16",
          "name": "idSC_",
          "type": "uint16"
        }
      ],
      "name": "getSensorCertificateData",
      "outputs": [
        {
          "internalType": "uint256",
          "name": "",
          "type": "uint256"
        },
        {
          "internalType": "bool",
          "name": "",
          "type": "bool"
        },
        {
          "internalType": "uint16",
          "name": "",
          "type": "uint16"
        },
        {
          "internalType": "uint16",
          "name": "",
          "type": "uint16"
        },
        {
          "internalType": "uint256",
          "name": "",
          "type": "uint256"
        }
      ],
      "payable": false,
      "stateMutability": "view",
      "type": "function"
    },
    {
      "constant": true,
      "inputs": [
        {
          "internalType": "uint16",
          "name": "idS_",
          "type": "uint16"
        }
      ],
      "name": "getAssociatedGateway",
      "outputs": [
        {
          "internalType": "uint16",
          "name": "",
          "type": "uint16"
        }
      ],
      "payable": false,
      "stateMutability": "view",
      "type": "function"
    },
    {
      "constant": true,
      "inputs": [
        {
          "internalType": "uint16",
          "name": "idW_",
          "type": "uint16"
        }
      ],
      "name": "getWarningData",
      "outputs": [
        {
          "internalType": "uint256",
          "name": "",
          "type": "uint256"
        },
        {
          "internalType": "enum Protocol.WarningType",
          "name": "",
          "type": "uint8"
        },
        {
          "internalType": "uint256",
          "name": "",
          "type": "uint256"
        },
        {
          "internalType": "bool",
          "name": "",
          "type": "bool"
        },
        {
          "internalType": "uint16",
          "name": "",
          "type": "uint16"
        },
        {
          "internalType": "int16[]",
          "name": "",
          "type": "int16[]"
        }
      ],
      "payable": false,
      "stateMutability": "view",
      "type": "function"
    },
    {
      "constant": true,
      "inputs": [
        {
          "internalType": "uint16",
          "name": "idG_",
          "type": "uint16"
        }
      ],
      "name": "getGatewaysSensorList",
      "outputs": [
        {
          "internalType": "uint16[]",
          "name": "",
          "type": "uint16[]"
        }
      ],
      "payable": false,
      "stateMutability": "view",
      "type": "function"
    },
    {
      "constant": true,
      "inputs": [
        {
          "internalType": "uint16",
          "name": "idS_",
          "type": "uint16"
        }
      ],
      "name": "getSensorsWarningList",
      "outputs": [
        {
          "internalType": "uint16[]",
          "name": "",
          "type": "uint16[]"
        }
      ],
      "payable": false,
      "stateMutability": "view",
      "type": "function"
    },
    {
      "constant": true,
      "inputs": [
        {
          "internalType": "uint16",
          "name": "idS_",
          "type": "uint16"
        },
        {
          "internalType": "uint256",
          "name": "startT_",
          "type": "uint256"
        },
        {
          "internalType": "uint256",
          "name": "endT_",
          "type": "uint256"
        }
      ],
      "name": "getSensorsWarningListForTimePeriod",
      "outputs": [
        {
          "internalType": "uint16[]",
          "name": "",
          "type": "uint16[]"
        }
      ],
      "payable": false,
      "stateMutability": "view",
      "type": "function"
    }
  ],
  "bytecode": "0x60806040526250415060005562c8a3486001556000600260006101000a81548161ffff021916908361ffff16021790555060006002806101000a81548161ffff021916908361ffff1602179055506000600260046101000a81548161ffff021916908361ffff1602179055503480156200007857600080fd5b506040516200557338038062005573833981810160405260408110156200009e57600080fd5b81019080805190602001909291908051906020019092919050505081600260066101000a81548173ffffffffffffffffffffffffffffffffffffffff021916908373ffffffffffffffffffffffffffffffffffffffff16021790555080600360006101000a81548173ffffffffffffffffffffffffffffffffffffffff021916908373ffffffffffffffffffffffffffffffffffffffff160217905550620001af60017eb0d063c22600000000000000000000000000000000000000000000000000007f476176696f7461000000000000000000000000000000000000000000000000007f496e20536f6c69646974790000000000000000000000000000000000000000006200024c60201b60201c565b6200024460017f4578616d706c65000000000000000000000000000000000000000000000000007eb0d063c22600000000000000000000000000000000000000000000000000007f476176696f7461000000000000000000000000000000000000000000000000007f496e20536f6c6964697479000000000000000000000000000000000000000000620003d160201b60201c565b5050620007c3565b60001515600460008661ffff1661ffff16815260200190815260200160002060000160009054906101000a900460ff16151514620002d6576040517f08c379a000000000000000000000000000000000000000000000000000000000815260040180806020018281038252602a8152602001806200551e602a913960400191505060405180910390fd5b620002e06200060c565b6040518060a001604052806001151581526020018579ffffffffffffffffffffffffffffffffffffffffffffffffffff19168152602001848152602001838152602001600061ffff16815250905080600460008761ffff1661ffff16815260200190815260200160002060008201518160000160006101000a81548160ff02191690831515021790555060208201518160000160016101000a81548165ffffffffffff021916908360d01c0217905550604082015181600101556060820151816002015560808201518160030160006101000a81548161ffff021916908361ffff1602179055509050505050505050565b60001515600560008761ffff1661ffff16815260200190815260200160002060000160009054906101000a900460ff161515146200045b576040517f08c379a000000000000000000000000000000000000000000000000000000000815260040180806020018281038252602b81526020018062005548602b913960400191505060405180910390fd5b6200046562000664565b6040518060c001604052806001151581526020018677ffffffffffffffffffffffffffffffffffffffffffffffff191681526020018579ffffffffffffffffffffffffffffffffffffffffffffffffffff19168152602001848152602001838152602001600061ffff16815250905080600560008861ffff1661ffff16815260200190815260200160002060008201518160000160006101000a81548160ff02191690831515021790555060208201518160000160016101000a81548167ffffffffffffffff021916908360c01c021790555060408201518160000160096101000a81548165ffffffffffff021916908360d01c0217905550606082015181600101556080820151816002015560a08201518160030160006101000a81548161ffff021916908361ffff16021790555090505060606000604051908082528060200260200182016040528015620005cb5781602001602082028038833980820191505090505b50905080600960008961ffff1661ffff168152602001908152602001600020600001908051906020019062000602929190620006de565b5050505050505050565b6040518060a00160405280600015158152602001600079ffffffffffffffffffffffffffffffffffffffffffffffffffff191681526020016000801916815260200160008019168152602001600061ffff1681525090565b6040518060c00160405280600015158152602001600077ffffffffffffffffffffffffffffffffffffffffffffffff19168152602001600079ffffffffffffffffffffffffffffffffffffffffffffffffffff191681526020016000801916815260200160008019168152602001600061ffff1681525090565b82805482825590600052602060002090600f016010900481019282156200077c5791602002820160005b838211156200074a57835183826101000a81548161ffff021916908361ffff160217905550926020019260020160208160010104928301926001030262000708565b80156200077a5782816101000a81549061ffff02191690556002016020816001010492830192600103026200074a565b505b5090506200078b91906200078f565b5090565b620007c091905b80821115620007bc57600081816101000a81549061ffff02191690555060010162000796565b5090565b90565b614d4b80620007d36000396000f3fe608060405234801561001057600080fd5b50600436106102065760003560e01c8063851322201161011a578063c4b0ceb2116100ad578063db779c7c1161007c578063db779c7c14610e21578063def5c40014610ec9578063e48127a814610f50578063f520be5114610f9a578063f7d980e71461104b57610206565b8063c4b0ceb214610cbb578063d265358814610d4e578063d386e62e14610d98578063d8c4cff714610def57610206565b8063b1ae9375116100e9578063b1ae937514610a9b578063b4aefa2b14610b80578063ba89d09b14610bce578063beb3d18f14610c2057610206565b806385132220146109485780638cec0b2c14610992578063a527f338146109e0578063a98e7c5b14610a0257610206565b806351d1cea31161019d5780635d31fb1d1161016c5780635d31fb1d146106e1578063606962d21461071357806366d22411146107a657806366ed8a21146107f057806371112862146108b457610206565b806351d1cea3146105b9578063547b2f10146105eb5780635656172e146106395780635976f89e1461066b57610206565b806324ab1062116101d957806324ab10621461045357806329c0e624146104c05780634aed7bab146105475780634e531a321461058757610206565b806311a6848b1461020b5780631cb36c4d146102a15780631e4b6d491461033357806321a6c0411461037d575b600080fd5b61023b6004803603602081101561022157600080fd5b81019080803561ffff1690602001909291905050506110c1565b6040518088815260200187600481111561025157fe5b60ff168152602001868152602001851515151581526020018461ffff1661ffff1681526020018360010b60010b81526020018260010b60010b815260200197505050505050505060405180910390f35b610331600480360360a08110156102b757600080fd5b81019080803561ffff169060200190929190803577ffffffffffffffffffffffffffffffffffffffffffffffff19169060200190929190803579ffffffffffffffffffffffffffffffffffffffffffffffffffff191690602001909291908035906020019092919080359060200190929190505050611145565b005b61033b611379565b604051808273ffffffffffffffffffffffffffffffffffffffff1673ffffffffffffffffffffffffffffffffffffffff16815260200191505060405180910390f35b6103ad6004803603602081101561039357600080fd5b81019080803561ffff16906020019092919050505061139f565b60405180861515151581526020018577ffffffffffffffffffffffffffffffffffffffffffffffff191677ffffffffffffffffffffffffffffffffffffffffffffffff191681526020018479ffffffffffffffffffffffffffffffffffffffffffffffffffff191679ffffffffffffffffffffffffffffffffffffffffffffffffffff191681526020018381526020018281526020019550505050505060405180910390f35b6104be6004803603608081101561046957600080fd5b81019080803561ffff169060200190929190803579ffffffffffffffffffffffffffffffffffffffffffffffffffff19169060200190929190803590602001909291908035906020019092919050505061147c565b005b6104f0600480360360208110156104d657600080fd5b81019080803561ffff1690602001909291905050506115fd565b6040518080602001828103825283818151815260200191508051906020019060200280838360005b83811015610533578082015181840152602081019050610518565b505050509050019250505060405180910390f35b6105856004803603604081101561055d57600080fd5b81019080803561ffff169060200190929190803561ffff16906020019092919050505061169b565b005b6105b76004803603602081101561059d57600080fd5b81019080803561ffff1690602001909291905050506118b6565b005b6105e9600480360360208110156105cf57600080fd5b81019080803561ffff169060200190929190505050611a06565b005b61061b6004803603602081101561060157600080fd5b81019080803561ffff169060200190929190505050611a95565b604051808261ffff1661ffff16815260200191505060405180910390f35b6106696004803603602081101561064f57600080fd5b81019080803561ffff169060200190929190505050611b4c565b005b61069b6004803603602081101561068157600080fd5b81019080803561ffff169060200190929190505050611c6e565b60405180868152602001851515151581526020018461ffff1661ffff1681526020018361ffff1661ffff1681526020018281526020019550505050505060405180910390f35b610711600480360360208110156106f757600080fd5b81019080803561ffff169060200190929190505050611ccd565b005b6107436004803603602081101561072957600080fd5b81019080803561ffff169060200190929190505050611e27565b60405180858152602001841515151581526020018361ffff1661ffff1681526020018273ffffffffffffffffffffffffffffffffffffffff1673ffffffffffffffffffffffffffffffffffffffff16815260200194505050505060405180910390f35b6107ae611ef3565b604051808273ffffffffffffffffffffffffffffffffffffffff1673ffffffffffffffffffffffffffffffffffffffff16815260200191505060405180910390f35b6108206004803603602081101561080657600080fd5b81019080803561ffff169060200190929190505050611f19565b6040518087815260200186600481111561083657fe5b60ff168152602001858152602001841515151581526020018361ffff1661ffff16815260200180602001828103825283818151815260200191508051906020019060200280838360005b8381101561089b578082015181840152602081019050610880565b5050505090500197505050505050505060405180910390f35b610946600480360360e08110156108ca57600080fd5b81019080803573ffffffffffffffffffffffffffffffffffffffff169060200190929190803561ffff169060200190929190803560ff169060200190929190803561ffff169060200190929190803560010b9060200190929190803560010b9060200190929190803560010b9060200190929190505050612091565b005b6109786004803603602081101561095e57600080fd5b81019080803561ffff169060200190929190505050612ead565b604051808215151515815260200191505060405180910390f35b6109c2600480360360208110156109a857600080fd5b81019080803561ffff169060200190929190505050612edc565b604051808261ffff1661ffff16815260200191505060405180910390f35b6109e8612fa4565b604051808215151515815260200191505060405180910390f35b610a3260048036036020811015610a1857600080fd5b81019080803561ffff169060200190929190505050612fad565b60405180851515151581526020018479ffffffffffffffffffffffffffffffffffffffffffffffffffff191679ffffffffffffffffffffffffffffffffffffffffffffffffffff1916815260200183815260200182815260200194505050505060405180910390f35b610acb60048036036020811015610ab157600080fd5b81019080803561ffff169060200190929190505050613058565b60405180871515151581526020018677ffffffffffffffffffffffffffffffffffffffffffffffff191677ffffffffffffffffffffffffffffffffffffffffffffffff191681526020018579ffffffffffffffffffffffffffffffffffffffffffffffffffff191679ffffffffffffffffffffffffffffffffffffffffffffffffffff191681526020018481526020018381526020018261ffff1661ffff168152602001965050505050505060405180910390f35b610bb060048036036020811015610b9657600080fd5b81019080803561ffff1690602001909291905050506130c9565b604051808261ffff1661ffff16815260200191505060405180910390f35b610c1e60048036036040811015610be457600080fd5b81019080803561ffff169060200190929190803573ffffffffffffffffffffffffffffffffffffffff1690602001909291905050506131d5565b005b610c6460048036036060811015610c3657600080fd5b81019080803561ffff16906020019092919080359060200190929190803590602001909291905050506133e8565b6040518080602001828103825283818151815260200191508051906020019060200280838360005b83811015610ca7578082015181840152602081019050610c8c565b505050509050019250505060405180910390f35b610ceb60048036036020811015610cd157600080fd5b81019080803561ffff16906020019092919050505061361c565b60405180858152602001841515151581526020018361ffff1661ffff1681526020018273ffffffffffffffffffffffffffffffffffffffff1673ffffffffffffffffffffffffffffffffffffffff16815260200194505050505060405180910390f35b610d9660048036036060811015610d6457600080fd5b81019080803561ffff169060200190929190803561ffff16906020019092919080359060200190929190505050613687565b005b610ded60048036036080811015610dae57600080fd5b81019080803560ff16906020019092919080359060200190929190803561ffff169060200190929190803561ffff169060200190929190505050613937565b005b610e1f60048036036020811015610e0557600080fd5b81019080803561ffff1690602001909291905050506140ac565b005b610e5160048036036020811015610e3757600080fd5b81019080803561ffff169060200190929190505050614170565b60405180861515151581526020018579ffffffffffffffffffffffffffffffffffffffffffffffffffff191679ffffffffffffffffffffffffffffffffffffffffffffffffffff191681526020018481526020018381526020018261ffff1661ffff1681526020019550505050505060405180910390f35b610ef960048036036020811015610edf57600080fd5b81019080803561ffff1690602001909291905050506141ce565b6040518080602001828103825283818151815260200191508051906020019060200280838360005b83811015610f3c578082015181840152602081019050610f21565b505050509050019250505060405180910390f35b610f8060048036036020811015610f6657600080fd5b81019080803561ffff16906020019092919050505061426c565b604051808215151515815260200191505060405180910390f35b6110496004803603610120811015610fb157600080fd5b81019080803573ffffffffffffffffffffffffffffffffffffffff169060200190929190803561ffff169060200190929190803561ffff169060200190929190803560ff169060200190929190803561ffff169060200190929190803561ffff169060200190929190803560010b9060200190929190803560010b9060200190929190803560010b906020019092919050505061429b565b005b61107b6004803603602081101561106157600080fd5b81019080803561ffff169060200190929190505050614573565b60405180868152602001851515151581526020018461ffff1661ffff1681526020018361ffff1661ffff1681526020018281526020019550505050505060405180910390f35b60086020528060005260406000206000915090508060000154908060010160009054906101000a900460ff16908060020154908060030160009054906101000a900460ff16908060030160019054906101000a900461ffff16908060050160009054906101000a900460010b908060050160029054906101000a900460010b905087565b60001515600560008761ffff1661ffff16815260200190815260200160002060000160009054906101000a900460ff161515146111cd576040517f08c379a000000000000000000000000000000000000000000000000000000000815260040180806020018281038252602b815260200180614cb0602b913960400191505060405180910390fd5b6111d5614652565b6040518060c001604052806001151581526020018677ffffffffffffffffffffffffffffffffffffffffffffffff191681526020018579ffffffffffffffffffffffffffffffffffffffffffffffffffff19168152602001848152602001838152602001600061ffff16815250905080600560008861ffff1661ffff16815260200190815260200160002060008201518160000160006101000a81548160ff02191690831515021790555060208201518160000160016101000a81548167ffffffffffffffff021916908360c01c021790555060408201518160000160096101000a81548165ffffffffffff021916908360d01c0217905550606082015181600101556080820151816002015560a08201518160030160006101000a81548161ffff021916908361ffff1602179055509050506060600060405190808252806020026020018201604052801561133a5781602001602082028038833980820191505090505b50905080600960008961ffff1661ffff168152602001908152602001600020600001908051906020019061136f9291906146cc565b5050505050505050565b600360009054906101000a900473ffffffffffffffffffffffffffffffffffffffff1681565b6000806000806000600560008761ffff1661ffff16815260200190815260200160002060000160009054906101000a900460ff16600560008861ffff1661ffff16815260200190815260200160002060000160019054906101000a900460c01b600560008961ffff1661ffff16815260200190815260200160002060000160099054906101000a900460d01b600560008a61ffff1661ffff16815260200190815260200160002060010154600560008b61ffff1661ffff168152602001908152602001600020600201549450945094509450945091939590929450565b60001515600460008661ffff1661ffff16815260200190815260200160002060000160009054906101000a900460ff16151514611504576040517f08c379a000000000000000000000000000000000000000000000000000000000815260040180806020018281038252602a815260200180614b20602a913960400191505060405180910390fd5b61150c614776565b6040518060a001604052806001151581526020018579ffffffffffffffffffffffffffffffffffffffffffffffffffff19168152602001848152602001838152602001600061ffff16815250905080600460008761ffff1661ffff16815260200190815260200160002060008201518160000160006101000a81548160ff02191690831515021790555060208201518160000160016101000a81548165ffffffffffff021916908360d01c0217905550604082015181600101556060820151816002015560808201518160030160006101000a81548161ffff021916908361ffff1602179055509050505050505050565b6060600960008361ffff1661ffff16815260200190815260200160002060000180548060200260200160405190810160405280929190818152602001828054801561168f57602002820191906000526020600020906000905b82829054906101000a900461ffff1661ffff16815260200190600201906020826001010492830192600103820291508084116116565790505b50505050509050919050565b42600760008361ffff1661ffff1681526020019081526020016000206000015411611711576040517f08c379a0000000000000000000000000000000000000000000000000000000008152600401808060200182810382526029815260200180614af76029913960400191505060405180910390fd5b600760008261ffff1661ffff16815260200190815260200160002060010160009054906101000a900460ff1615611793576040517f08c379a0000000000000000000000000000000000000000000000000000000008152600401808060200182810382526029815260200180614c156029913960400191505060405180910390fd5b42600660008461ffff1661ffff1681526020019081526020016000206000015411611809576040517f08c379a0000000000000000000000000000000000000000000000000000000008152600401808060200182810382526041815260200180614ab66041913960600191505060405180910390fd5b600660008361ffff1661ffff16815260200190815260200160002060010160009054906101000a900460ff161561188b576040517f08c379a0000000000000000000000000000000000000000000000000000000008152600401808060200182810382526046815260200180614a336046913960600191505060405180910390fd5b6000544201600760008461ffff1661ffff168152602001908152602001600020600001819055505050565b600560008261ffff1661ffff16815260200190815260200160002060000160009054906101000a900460ff16611937576040517f08c379a000000000000000000000000000000000000000000000000000000000815260040180806020018281038252603b815260200180614b4a603b913960400191505060405180910390fd5b6060611942826115fd565b905060008090505b81518110156119c1576004600083838151811061196357fe5b602002602001015161ffff1661ffff16815260200190815260200160002060000160009054906101000a900460ff16156119b4576119b38282815181106119a657fe5b60200260200101516140ac565b5b808060010191505061194a565b506119cb82611ccd565b6000600460008461ffff1661ffff16815260200190815260200160002060000160006101000a81548160ff0219169083151502179055505050565b6000611a1182611a95565b905060008161ffff1614611a91576001600660008361ffff1661ffff16815260200190815260200160002060010160006101000a81548160ff0219169083151502179055506000600460008461ffff1661ffff16815260200190815260200160002060030160006101000a81548161ffff021916908361ffff1602179055505b5050565b600080600460008461ffff1661ffff16815260200190815260200160002060030160009054906101000a900461ffff16905060008161ffff1614611b415742600660008361ffff1661ffff16815260200190815260200160002060000154118015611b295750600660008261ffff1661ffff16815260200190815260200160002060010160009054906101000a900460ff16155b15611b375780915050611b47565b6000915050611b47565b60009150505b919050565b42600760008361ffff1661ffff1681526020019081526020016000206000015411611bc2576040517f08c379a0000000000000000000000000000000000000000000000000000000008152600401808060200182810382526042815260200180614bd36042913960600191505060405180910390fd5b600760008261ffff1661ffff16815260200190815260200160002060010160009054906101000a900460ff1615611c44576040517f08c379a0000000000000000000000000000000000000000000000000000000008152600401808060200182810382526047815260200180614c696047913960600191505060405180910390fd5b6001544201600760008361ffff1661ffff1681526020019081526020016000206000018190555050565b60066020528060005260406000206000915090508060000154908060010160009054906101000a900460ff16908060010160019054906101000a900461ffff16908060010160039054906101000a900461ffff16908060020154905085565b6000611cd882612edc565b905060008161ffff1614611df9576060600960008461ffff1661ffff168152602001908152602001600020600001805480602002602001604051908101604052809291908181526020018280548015611d7857602002820191906000526020600020906000905b82829054906101000a900461ffff1661ffff1681526020019060020190602082600101049283019260010382029150808411611d3f5790505b5050505050905060008090505b81518161ffff161015611dbf57611db2828261ffff1681518110611da557fe5b6020026020010151611a06565b8080600101915050611d85565b506001600760008561ffff1661ffff16815260200190815260200160002060010160006101000a81548160ff021916908315150217905550505b600960008361ffff1661ffff1681526020019081526020016000206000016000611e2391906147ce565b5050565b600080600080600760008661ffff1661ffff16815260200190815260200160002060000154600760008761ffff1661ffff16815260200190815260200160002060010160009054906101000a900460ff16600760008861ffff1661ffff16815260200190815260200160002060010160019054906101000a900461ffff16600760008961ffff1661ffff16815260200190815260200160002060010160039054906101000a900473ffffffffffffffffffffffffffffffffffffffff1693509350935093509193509193565b600260069054906101000a900473ffffffffffffffffffffffffffffffffffffffff1681565b60008060008060006060600860008861ffff1661ffff16815260200190815260200160002060000154600860008961ffff1661ffff16815260200190815260200160002060010160009054906101000a900460ff16600860008a61ffff1661ffff16815260200190815260200160002060020154600860008b61ffff1661ffff16815260200190815260200160002060030160009054906101000a900460ff16600860008c61ffff1661ffff16815260200190815260200160002060030160019054906101000a900461ffff16600860008d61ffff1661ffff1681526020019081526020016000206004018080548060200260200160405190810160405280929190818152602001828054801561207557602002820191906000526020600020906000905b82829054906101000a900460010b60010b8152602001906002019060208260010104928301926001038202915080841161203e5790505b5050505050905095509550955095509550955091939550919395565b8673ffffffffffffffffffffffffffffffffffffffff163373ffffffffffffffffffffffffffffffffffffffff16146120c957600080fd5b6120d28661426c565b612127576040517f08c379a000000000000000000000000000000000000000000000000000000000815260040180806020018281038252602b815260200180614c3e602b913960400191505060405180910390fd5b60048081111561213357fe5b60ff168560ff161115612191576040517f08c379a000000000000000000000000000000000000000000000000000000000815260040180806020018281038252602f815260200180614a04602f913960400191505060405180910390fd5b6000600460008861ffff1661ffff16815260200190815260200160002060030160009054906101000a900461ffff1690506001600260049054906101000a900461ffff1601600260046101000a81548161ffff021916908361ffff16021790555060008660ff16141561243c57606060006040519080825280602002602001820160405280156122305781602001602082028038833980820191505090505b50905061223b6147f6565b6040518061010001604052804281526020018960ff16600481111561225c57fe5b600481111561226757fe5b81526020018461ffff1681526020016000151581526020018861ffff1681526020018381526020018660010b81526020018560010b81525090508060086000600260049054906101000a900461ffff1661ffff1661ffff1681526020019081526020016000206000820151816000015560208201518160010160006101000a81548160ff021916908360048111156122fb57fe5b02179055506040820151816002015560608201518160030160006101000a81548160ff02191690831515021790555060808201518160030160016101000a81548161ffff021916908361ffff16021790555060a0820151816004019080519060200190612369929190614852565b5060c08201518160050160006101000a81548161ffff021916908360010b61ffff16021790555060e08201518160050160026101000a81548161ffff021916908360010b61ffff16021790555090505060086000600260049054906101000a900461ffff1661ffff1661ffff16815260200190815260200160002060040186908060018154018082558091505090600182039060005260206000209060109182820401919006600202909192909190916101000a81548161ffff021916908360010b61ffff160217905550505050612ddc565b60018660ff1614156126c6576060600060405190808252806020026020018201604052801561247a5781602001602082028038833980820191505090505b5090506124856147f6565b6040518061010001604052804281526020018960ff1660048111156124a657fe5b60048111156124b157fe5b81526020018461ffff1681526020016000151581526020018861ffff1681526020018381526020017fffffffffffffffffffffffffffffffffffffffffffffffffffffffffffffff9c60010b81526020017fffffffffffffffffffffffffffffffffffffffffffffffffffffffffffffff9c60010b81525090508060086000600260049054906101000a900461ffff1661ffff1661ffff1681526020019081526020016000206000820151816000015560208201518160010160006101000a81548160ff0219169083600481111561258557fe5b02179055506040820151816002015560608201518160030160006101000a81548160ff02191690831515021790555060808201518160030160016101000a81548161ffff021916908361ffff16021790555060a08201518160040190805190602001906125f3929190614852565b5060c08201518160050160006101000a81548161ffff021916908360010b61ffff16021790555060e08201518160050160026101000a81548161ffff021916908360010b61ffff16021790555090505060086000600260049054906101000a900461ffff1661ffff1661ffff16815260200190815260200160002060040186908060018154018082558091505090600182039060005260206000209060109182820401919006600202909192909190916101000a81548161ffff021916908360010b61ffff160217905550505050612ddb565b60028660ff16141561295057606060006040519080825280602002602001820160405280156127045781602001602082028038833980820191505090505b50905061270f6147f6565b6040518061010001604052804281526020018960ff16600481111561273057fe5b600481111561273b57fe5b81526020018461ffff1681526020016001151581526020018861ffff1681526020018381526020017fffffffffffffffffffffffffffffffffffffffffffffffffffffffffffffff9c60010b81526020017fffffffffffffffffffffffffffffffffffffffffffffffffffffffffffffff9c60010b81525090508060086000600260049054906101000a900461ffff1661ffff1661ffff1681526020019081526020016000206000820151816000015560208201518160010160006101000a81548160ff0219169083600481111561280f57fe5b02179055506040820151816002015560608201518160030160006101000a81548160ff02191690831515021790555060808201518160030160016101000a81548161ffff021916908361ffff16021790555060a082015181600401908051906020019061287d929190614852565b5060c08201518160050160006101000a81548161ffff021916908360010b61ffff16021790555060e08201518160050160026101000a81548161ffff021916908360010b61ffff16021790555090505060086000600260049054906101000a900461ffff1661ffff1661ffff16815260200190815260200160002060040186908060018154018082558091505090600182039060005260206000209060109182820401919006600202909192909190916101000a81548161ffff021916908360010b61ffff160217905550505050612dda565b60038660ff161415612bda576060600060405190808252806020026020018201604052801561298e5781602001602082028038833980820191505090505b5090506129996147f6565b6040518061010001604052804281526020018960ff1660048111156129ba57fe5b60048111156129c557fe5b81526020018461ffff1681526020016001151581526020018861ffff1681526020018381526020017fffffffffffffffffffffffffffffffffffffffffffffffffffffffffffffff9c60010b81526020017fffffffffffffffffffffffffffffffffffffffffffffffffffffffffffffff9c60010b81525090508060086000600260049054906101000a900461ffff1661ffff1661ffff1681526020019081526020016000206000820151816000015560208201518160010160006101000a81548160ff02191690836004811115612a9957fe5b02179055506040820151816002015560608201518160030160006101000a81548160ff02191690831515021790555060808201518160030160016101000a81548161ffff021916908361ffff16021790555060a0820151816004019080519060200190612b07929190614852565b5060c08201518160050160006101000a81548161ffff021916908360010b61ffff16021790555060e08201518160050160026101000a81548161ffff021916908360010b61ffff16021790555090505060086000600260049054906101000a900461ffff1661ffff1661ffff16815260200190815260200160002060040186908060018154018082558091505090600182039060005260206000209060109182820401919006600202909192909190916101000a81548161ffff021916908360010b61ffff160217905550505050612dd9565b60606000604051908082528060200260200182016040528015612c0c5781602001602082028038833980820191505090505b509050612c176147f6565b6040518061010001604052804281526020018960ff166004811115612c3857fe5b6004811115612c4357fe5b81526020018461ffff168152602001600115158152602001600061ffff1681526020018381526020017fffffffffffffffffffffffffffffffffffffffffffffffffffffffffffffff9c60010b81526020017fffffffffffffffffffffffffffffffffffffffffffffffffffffffffffffff9c60010b81525090508060086000600260049054906101000a900461ffff1661ffff1661ffff1681526020019081526020016000206000820151816000015560208201518160010160006101000a81548160ff02191690836004811115612d1857fe5b02179055506040820151816002015560608201518160030160006101000a81548160ff02191690831515021790555060808201518160030160016101000a81548161ffff021916908361ffff16021790555060a0820151816004019080519060200190612d86929190614852565b5060c08201518160050160006101000a81548161ffff021916908360010b61ffff16021790555060e08201518160050160026101000a81548161ffff021916908360010b61ffff16021790555090505050505b5b5b5b600a60008861ffff1661ffff168152602001908152602001600020600001600260049054906101000a900461ffff16908060018154018082558091505090600182039060005260206000209060109182820401919006600202909192909190916101000a81548161ffff021916908361ffff160217905550506000600660008361ffff1661ffff1681526020019081526020016000206002015490506000612e83896130c9565b9050612ea18883600260049054906101000a900461ffff1684613937565b50505050505050505050565b600080612eb983612edc565b905060008161ffff1614612ed1576001915050612ed7565b60009150505b919050565b600080600560008461ffff1661ffff16815260200190815260200160002060030160009054906101000a900461ffff16905060008161ffff1614612f995742600760008361ffff1661ffff16815260200190815260200160002060000154118015612f705750600760008261ffff1661ffff16815260200190815260200160002060010160009054906101000a900460ff16155b8015612f81575060008161ffff1614155b15612f8f5780915050612f9f565b6000915050612f9f565b60009150505b919050565b60006001905090565b600080600080600460008661ffff1661ffff16815260200190815260200160002060000160009054906101000a900460ff16600460008761ffff1661ffff16815260200190815260200160002060000160019054906101000a900460d01b600460008861ffff1661ffff16815260200190815260200160002060010154600460008961ffff1661ffff1681526020019081526020016000206002015493509350935093509193509193565b60056020528060005260406000206000915090508060000160009054906101000a900460ff16908060000160019054906101000a900460c01b908060000160099054906101000a900460d01b908060010154908060020154908060030160009054906101000a900461ffff16905086565b6000801515600460008461ffff1661ffff16815260200190815260200160002060000160009054906101000a900460ff1615151461316f576040517f08c379a000000000000000000000000000000000000000000000000000000000815260040180806020018281038252601c8152602001807f4e6f206578697374652073656e736f72207265676973747261646f2e0000000081525060200191505060405180910390fd5b6000600460008461ffff1661ffff16815260200190815260200160002060030160009054906101000a900461ffff169050600660008261ffff1661ffff16815260200190815260200160002060010160039054906101000a900461ffff16915050919050565b600560008361ffff1661ffff16815260200190815260200160002060000160009054906101000a900460ff16613256576040517f08c379a000000000000000000000000000000000000000000000000000000000815260040180806020018281038252603d815260200180614a79603d913960400191505060405180910390fd5b61325f82611ccd565b6132676148ff565b6040518060800160405280600154420181526020016000151581526020018461ffff1681526020018373ffffffffffffffffffffffffffffffffffffffff16815250905060016002809054906101000a900461ffff16016002806101000a81548161ffff021916908361ffff16021790555080600760006002809054906101000a900461ffff1661ffff1661ffff1681526020019081526020016000206000820151816000015560208201518160010160006101000a81548160ff02191690831515021790555060408201518160010160016101000a81548161ffff021916908361ffff16021790555060608201518160010160036101000a81548173ffffffffffffffffffffffffffffffffffffffff021916908373ffffffffffffffffffffffffffffffffffffffff1602179055509050506002809054906101000a900461ffff16600560008561ffff1661ffff16815260200190815260200160002060030160006101000a81548161ffff021916908361ffff160217905550505050565b606080600a60008661ffff1661ffff16815260200190815260200160002060000180548060200260200160405190810160405280929190818152602001828054801561347b57602002820191906000526020600020906000905b82829054906101000a900461ffff1661ffff16815260200190600201906020826001010492830192600103820291508084116134425790505b50505050509050606060006040519080825280602002602001820160405280156134b45781602001602082028038833980820191505090505b50905060008090505b825181101561360f5785600860008584815181106134d757fe5b602002602001015161ffff1661ffff168152602001908152602001600020600001541180156135365750846008600085848151811061351257fe5b602002602001015161ffff1661ffff16815260200190815260200160002060000154105b1561360257606060018351016040519080825280602002602001820160405280156135705781602001602082028038833980820191505090505b50905060008090505b83518110156135c55783818151811061358e57fe5b60200260200101518282815181106135a257fe5b602002602001019061ffff16908161ffff16815250508080600101915050613579565b508382815181106135d257fe5b6020026020010151818451815181106135e757fe5b602002602001019061ffff16908161ffff1681525050809250505b80806001019150506134bd565b5080925050509392505050565b60076020528060005260406000206000915090508060000154908060010160009054906101000a900460ff16908060010160019054906101000a900461ffff16908060010160039054906101000a900473ffffffffffffffffffffffffffffffffffffffff16905084565b600460008461ffff1661ffff16815260200190815260200160002060000160009054906101000a900460ff16613708576040517f08c379a000000000000000000000000000000000000000000000000000000000815260040180806020018281038252603c815260200180614cdb603c913960400191505060405180910390fd5b61371182612ead565b613766576040517f08c379a000000000000000000000000000000000000000000000000000000000815260040180806020018281038252604e815260200180614b85604e913960600191505060405180910390fd5b6001600260009054906101000a900461ffff1601600260006101000a81548161ffff021916908361ffff16021790555061379e614943565b6040518060a00160405280600054420181526020016000151581526020018561ffff1681526020018461ffff1681526020018381525090508060066000600260009054906101000a900461ffff1661ffff1661ffff1681526020019081526020016000206000820151816000015560208201518160010160006101000a81548160ff02191690831515021790555060408201518160010160016101000a81548161ffff021916908361ffff16021790555060608201518160010160036101000a81548161ffff021916908361ffff16021790555060808201518160020155905050600960008461ffff1661ffff16815260200190815260200160002060000184908060018154018082558091505090600182039060005260206000209060109182820401919006600202909192909190916101000a81548161ffff021916908361ffff16021790555050600260009054906101000a900461ffff16600460008661ffff1661ffff16815260200190815260200160002060030160006101000a81548161ffff021916908361ffff16021790555050505050565b60008090506139446147f6565b600860008561ffff1661ffff16815260200190815260200160002060405180610100016040529081600082015481526020016001820160009054906101000a900460ff16600481111561399357fe5b600481111561399e57fe5b8152602001600282015481526020016003820160009054906101000a900460ff161515151581526020016003820160019054906101000a900461ffff1661ffff1661ffff16815260200160048201805480602002602001604051908101604052809291908181526020018280548015613a5c57602002820191906000526020600020906000905b82829054906101000a900460010b60010b81526020019060020190602082600101049283019260010382029150808411613a255790505b505050505081526020016005820160009054906101000a900460010b60010b60010b81526020016005820160029054906101000a900460010b60010b60010b81525050905060018660ff161415613def576000600260069054906101000a900473ffffffffffffffffffffffffffffffffffffffff1673ffffffffffffffffffffffffffffffffffffffff16636d03e440876040518263ffffffff1660e01b81526004018082815260200191505060206040518083038186803b158015613b2257600080fd5b505afa158015613b36573d6000803e3d6000fd5b505050506040513d6020811015613b4c57600080fd5b810190808051906020019092919050505090506000600260069054906101000a900473ffffffffffffffffffffffffffffffffffffffff1673ffffffffffffffffffffffffffffffffffffffff1663d37619dd886040518263ffffffff1660e01b81526004018082815260200191505060206040518083038186803b158015613bd457600080fd5b505afa158015613be8573d6000803e3d6000fd5b505050506040513d6020811015613bfe57600080fd5b810190808051906020019092919050505090506000600260069054906101000a900473ffffffffffffffffffffffffffffffffffffffff1673ffffffffffffffffffffffffffffffffffffffff1663bddad24f896040518263ffffffff1660e01b81526004018082815260200191505060206040518083038186803b158015613c8657600080fd5b505afa158015613c9a573d6000803e3d6000fd5b505050506040513d6020811015613cb057600080fd5b810190808051906020019092919050505090506000600260069054906101000a900473ffffffffffffffffffffffffffffffffffffffff1673ffffffffffffffffffffffffffffffffffffffff1663f686ed868a6040518263ffffffff1660e01b81526004018082815260200191505060206040518083038186803b158015613d3857600080fd5b505afa158015613d4c573d6000803e3d6000fd5b505050506040513d6020811015613d6257600080fd5b810190808051906020019092919050505090508460e0015160010b8460010b1280613d9657508460c0015160010b8360010b135b15613da45760019550613de6565b8460e0015160010b8260010b1280613dc557508460c0015160010b8160010b135b8015613ddb5750621baf80856080015161ffff16115b15613de557600195505b5b50505050613e16565b60028660ff161415613e0a57613e03612fa4565b9150613e15565b613e12612fa4565b91505b5b81156140a4576000600560008561ffff1661ffff16815260200190815260200160002060030160009054906101000a900461ffff1690506000600760008361ffff1661ffff16815260200190815260200160002060010160039054906101000a900473ffffffffffffffffffffffffffffffffffffffff16905060606040518060400160405280601f81526020017f7072696d65726f735f62797465735f6369667261646f735f6d656e73616a6500815250905060606040518060400160405280601f81526020017f736567756e646f735f62797465735f6369667261646f735f6d656e73616a65008152509050600360009054906101000a900473ffffffffffffffffffffffffffffffffffffffff1673ffffffffffffffffffffffffffffffffffffffff16638d9fa456848b85856040518563ffffffff1660e01b8152600401808573ffffffffffffffffffffffffffffffffffffffff1673ffffffffffffffffffffffffffffffffffffffff1681526020018481526020018060200180602001838103835285818151815260200191508051906020019080838360005b83811015613fd1578082015181840152602081019050613fb6565b50505050905090810190601f168015613ffe5780820380516001836020036101000a031916815260200191505b50838103825284818151815260200191508051906020019080838360005b8381101561403757808201518184015260208101905061401c565b50505050905090810190601f1680156140645780820380516001836020036101000a031916815260200191505b509650505050505050600060405180830381600087803b15801561408757600080fd5b505af115801561409b573d6000803e3d6000fd5b50505050505050505b505050505050565b600460008261ffff1661ffff16815260200190815260200160002060000160009054906101000a900460ff1661412d576040517f08c379a000000000000000000000000000000000000000000000000000000000815260040180806020018281038252603b815260200180614b4a603b913960400191505060405180910390fd5b61413681611a06565b6000600460008361ffff1661ffff16815260200190815260200160002060000160006101000a81548160ff02191690831515021790555050565b60046020528060005260406000206000915090508060000160009054906101000a900460ff16908060000160019054906101000a900460d01b908060010154908060020154908060030160009054906101000a900461ffff16905085565b6060600a60008361ffff1661ffff16815260200190815260200160002060000180548060200260200160405190810160405280929190818152602001828054801561426057602002820191906000526020600020906000905b82829054906101000a900461ffff1661ffff16815260200190600201906020826001010492830192600103820291508084116142275790505b50505050509050919050565b60008061427883611a95565b905060008161ffff1614614290576001915050614296565b60009150505b919050565b8873ffffffffffffffffffffffffffffffffffffffff163373ffffffffffffffffffffffffffffffffffffffff16146142d357600080fd5b6142dc8761426c565b614331576040517f08c379a000000000000000000000000000000000000000000000000000000000815260040180806020018281038252602b815260200180614c3e602b913960400191505060405180910390fd5b6001600481111561433e57fe5b60ff168660ff16111561439c576040517f08c379a000000000000000000000000000000000000000000000000000000000815260040180806020018281038252602f815260200180614a04602f913960400191505060405180910390fd5b600860008961ffff1661ffff16815260200190815260200160002060030160009054906101000a900460ff16156143d257600080fd5b8461ffff16600860008a61ffff1661ffff168152602001908152602001600020600201541461440057600080fd5b83600860008a61ffff1661ffff16815260200190815260200160002060030160016101000a81548161ffff021916908361ffff160217905550600860008961ffff1661ffff16815260200190815260200160002060040183908060018154018082558091505090600182039060005260206000209060109182820401919006600202909192909190916101000a81548161ffff021916908360010b61ffff160217905550506000600660008761ffff1661ffff16815260200190815260200160002060020154905060018760ff16141561454d5781600860008b61ffff1661ffff16815260200190815260200160002060050160026101000a81548161ffff021916908360010b61ffff16021790555082600860008b61ffff1661ffff16815260200190815260200160002060050160006101000a81548161ffff021916908360010b61ffff1602179055505b6000614558896130c9565b905061456688838c84613937565b5050505050505050505050565b6000806000806000600660008761ffff1661ffff16815260200190815260200160002060000154600660008861ffff1661ffff16815260200190815260200160002060010160009054906101000a900460ff16600660008961ffff1661ffff16815260200190815260200160002060010160039054906101000a900461ffff16600660008a61ffff1661ffff16815260200190815260200160002060010160019054906101000a900461ffff16600660008b61ffff1661ffff168152602001908152602001600020600201549450945094509450945091939590929450565b6040518060c00160405280600015158152602001600077ffffffffffffffffffffffffffffffffffffffffffffffff19168152602001600079ffffffffffffffffffffffffffffffffffffffffffffffffffff191681526020016000801916815260200160008019168152602001600061ffff1681525090565b82805482825590600052602060002090600f016010900481019282156147655791602002820160005b8382111561473557835183826101000a81548161ffff021916908361ffff16021790555092602001926002016020816001010492830192600103026146f5565b80156147635782816101000a81549061ffff0219169055600201602081600101049283019260010302614735565b505b509050614772919061497c565b5090565b6040518060a00160405280600015158152602001600079ffffffffffffffffffffffffffffffffffffffffffffffffffff191681526020016000801916815260200160008019168152602001600061ffff1681525090565b50805460008255600f0160109004906000526020600020908101906147f391906149ad565b50565b604051806101000160405280600081526020016000600481111561481657fe5b815260200160008152602001600015158152602001600061ffff16815260200160608152602001600060010b8152602001600060010b81525090565b82805482825590600052602060002090600f016010900481019282156148ee5791602002820160005b838211156148be57835183826101000a81548161ffff021916908360010b61ffff160217905550926020019260020160208160010104928301926001030261487b565b80156148ec5782816101000a81549061ffff02191690556002016020816001010492830192600103026148be565b505b5090506148fb91906149d2565b5090565b604051806080016040528060008152602001600015158152602001600061ffff168152602001600073ffffffffffffffffffffffffffffffffffffffff1681525090565b6040518060a0016040528060008152602001600015158152602001600061ffff168152602001600061ffff168152602001600081525090565b6149aa91905b808211156149a657600081816101000a81549061ffff021916905550600101614982565b5090565b90565b6149cf91905b808211156149cb5760008160009055506001016149b3565b5090565b90565b614a0091905b808211156149fc57600081816101000a81549061ffff0219169055506001016149d8565b5090565b9056fe456c207469706f20646520616c6572746120696e74726f64756369746f206e6f20657320656c20636f72726563746f4e6f2073652070756564652061637475616c697a617220656c20636572746966696361646f2064656c2073656e736f7220706f727175652065737461207265766f6361646f2e4e6f2065786973746520656c206761746577617920616c20717565207365206c6520646573656120637265617220656c20636572746966696361646f2e4e6f2073652070756564652061637475616c697a617220656c20636572746966696361646f2064656c2073656e736f7220706f7271756520636164756361646f2e456c20636572746966696361646f2064656c2067617465776179206573746120636164756361646f2e457374652049442079612065737461207265676973747261646f207061726120756e2073656e736f722e4e6f20657869737465206f20796120736520686120626f727261646f20656c2073656e736f722071756520736520646573656120626f727261722e4e6f2065786973746520756e20636572746966696361646f2076616c69646f2064656c206761746577617920616c207175652073652064657365612061736f6369617220656c2073656e736f722e4e6f2073652070756564652061637475616c697a617220656c20636572746966696361646f2064656c206761746577617920706f7271756520636164756361646f2e456c20636572746966696361646f2064656c20676174657761792065737461207265766f6361646f2e456c2073656e736f72206e6f20646973706f6e6520646520636572746966696361646f2061637469766f2e4e6f2073652070756564652061637475616c697a617220656c20636572746966696361646f2064656c206761746577617920706f727175652065737461207265766f6361646f2e457374652049442079612065737461207265676973747261646f207061726120756e20676174657761792e4e6f2065786973746520656c2073656e736f7220616c20717565207365206c6520646573656120637265617220656c20636572746966696361646f2ea265627a7a72315820097fc9bf2382fbc3cddef4686f40fff03930a0ac3c683c751aa5f072cded3cb364736f6c63430005100032457374652049442079612065737461207265676973747261646f207061726120756e2073656e736f722e457374652049442079612065737461207265676973747261646f207061726120756e20676174657761792e",
  "source": "// SPDX-License-Identifier: GPL-3.0\n// Enable optimizer\n\npragma solidity >=0.5.13 <0.9.0;\n\n/**\n * @title Protocol\n * @dev Administracin de dispositivos y sus certificados segn protocolo.\n * @custom:dev-run-script ./scripts/deploy_with_ethers.ts\n */\n\nimport \"./Medicines.sol\";\nimport \"./Notifications.sol\";\n\n\ncontract Protocol{\n\n    //Variables utilizadas\n\n    //address owner = 0xFaD90A54C5E0b91Ff95d498E33a0920Afcb0d226; //Direccin de la cartera del servidor (comentado porque no se usa en las pruebas)\n    uint durationSC = 5259600; //Duracin de la validez del certificado para un sensor (2 meses o ms??)\n    uint durationGC = 13149000; //Duracin de la validez del certificado para un gateway (5 meses o ms??)\n    uint16 totalSC = 0; //Total de certificados de sensores registrados\n    uint16 totalGC = 0; //Total de certificados de gateways registrados\n    uint16 totalW = 0;\n    enum WarningType{ temp, hum, light, mov, discon } //Tipos de alertas\n\n    Medicines public medicinesContract;  // Declaracin de la instancia de Medicines\n    Notifications public notificationsContract;  // Declaracin de la instancia de Notification\n\n    constructor(address medicinesAddress_, address notificationsAddress_) public{\n        medicinesContract = Medicines(medicinesAddress_);  // Asignacin de la instancia de Medicines. Me obliga a ponerle public por la versin del compilador de truffle.\n        notificationsContract = Notifications(notificationsAddress_);\n        sensorRegistration(1,hex\"00B0D063C226\",hex\"476176696f7461\",hex\"496e20536f6c6964697479\");\n        gatewayRegistration(1,hex\"4578616d706c65\",hex\"00B0D063C226\",hex\"476176696f7461\",hex\"496e20536f6c6964697479\");\n    }\n\n    // Estructuras usadas en el subprotocolo\n\n    struct Sensor{\n        bool registered; // Estado: true = registrado ; false = no registrado (borrado)\n        bytes6 mac; //Identificador MAC del sensor\n        bytes32 pubKeyL; //Primeros 32 bytes de la clave pblica del sensor\n        bytes32 pubKeyR; //ltimos 32 bytes de la clave pblica del sensor\n        uint16 sensorCertificateID; //ID del ltimo certificado de sensor aadido. Por defecto se deja en 0, lo que implica que no tiene certificado.\n    }\n\n    struct Gateway{\n        //uint16 idG; //Identificador del gateway, quiz nmero de serie??\n        bool registered; // Estado: true = registrado ; false = no registrado (borrado)\n        bytes8 devEui; //Algo del LoRa, mirar ms tarde (identificador WiFi)\n        bytes6 mac; //Identificador MAC del gateway\n        bytes32 pubKeyL; //Primeros 32 bytes de la clave pblica del sensor\n        bytes32 pubKeyR; //ltimos 32 bytes de la clave pblica del sensor\n        uint16 gatewayCertificateID; //ID del ltimo certificado de gateway aadido. Por defecto se deja en 0, lo que implica que no tiene certificado.\n    }\n\n    struct SensorCertificate{\n        uint expiryDate; // Fecha de expiracin del contrato\n        bool revoked; // Estado: true=revocado ;  false = vlido\n        uint16 idS; // Identificador del sensor al que certifica\n        uint16 idG;  // Identificador del gateway asociado al sensor\n        uint idM; // Identificador de la medicina controlada\n    }\n\n    struct GatewayCertificate{\n        uint expiryDate; // Fecha de expiracin del contrato\n        bool revoked; // Estado: true=revocado ;  false = vlido\n        uint16 idG;  // Identificador del gateway al que certifica\n        address userAddress; // Direccin de la cartera del usuario que tiene instalado el gateway en su casa\n    }\n\n    //Estructura para crear un mapeo que diga los sensores con certificado asociado a un gateway determinado\n    struct SensorsOfGateway{\n        uint16[] sensors;\n    }\n\n    struct Warning{\n        uint date; // Fecha de registro de la alarma\n        WarningType warningType; // Tipo de alarma. enum con todas las opciones definido al comienzo del contrato\n        uint idSC; // ID del certificado del sensor que ha avisado de la alarma\n        bool closed; // Estado de la alarma\n        uint16 duration; // Duracin de la exposicin de la medicina al estado anmalo\n        int16[] vAvg; // Media de los valores tomados durante el tiempo de estado anmalo\n        int16 maxTemp; //Valores mximo y mnimo de temperatura utilizados para realizar pruebas con el contrato\n        int16 minTemp;\n    }\n\n\n    //Estructura para crear un mapeo que diga los warnings de un sensor\n    struct WarningsOfSensors{\n        uint16[] warnings;\n    }\n\n\n\n    //Mapeo para definir el ndice de los sensores y gateways\n\n    mapping(uint16 => Sensor) public listS; //Mapeo de los sensores usando idS como ndice\n    mapping(uint16 => Gateway) public listG; //Mapeo de los gateways usando idG como ndice\n    mapping(uint16 => SensorCertificate) public listSC; //Mapeo de los gateways usando idSC como ndice\n    mapping(uint16 => GatewayCertificate) public listGC; //Mapeo de los gateways usando idGC como ndice\n    mapping(uint16 => Warning) public listW; //Mapeo de los warnings\n    mapping(uint16 => SensorsOfGateway) internal sensorsOfGateway; //Mapeo de las listas de sensores con el idG del gateway al que estn asociados\n    mapping(uint16 => WarningsOfSensors) internal warningsOfSensor; //Mapeo de las listas de warnings con el idS del sensor al que perteneces\n\n\n    //Funcin para aadir un sensor a la lista de sensores registrados\n    function sensorRegistration(uint16 idS_,bytes6 mac_,bytes32 pubKeyL_,bytes32 pubKeyR_) public {\n        //require(msg.sender == owner);\n        require(listS[idS_].registered == false, \"Este ID ya esta registrado para un sensor.\");\n        Sensor memory newSensor = Sensor(true,mac_,pubKeyL_,pubKeyR_,0); //Se crea un objeto temporal creando la estructura del sensor\n        listS[idS_] = newSensor; //Se aade al mapeo con el ndice deseado\n    }\n\n    //Funcin para aadir un sensor a la lista de sensores registrados\n    function gatewayRegistration(uint16 idG_,bytes8 devEui_,bytes6 mac_,bytes32 pubKeyL_,bytes32 pubKeyR_) public {\n        //require(msg.sender == owner);\n        require(listG[idG_].registered == false, \"Este ID ya esta registrado para un gateway.\");\n        Gateway memory newGateway = Gateway(true,devEui_,mac_,pubKeyL_,pubKeyR_,0); //Se crea un objeto temporal creando la estructura del gateway\n        listG[idG_] = newGateway; //Se aade al mapeo con el ndice deseado\n        uint16[] memory aux = new uint16[](0); // Variable auxiliar para crear un array vaco\n        sensorsOfGateway[idG_].sensors = aux; // Se crea la lista de sensores asociados al gateway (inicializada vaca)\n    }\n\n    //Funcin para crear un certificado de gateway\n    function gatewayCertificateCreation(uint16 idG_,address userAddress_) public{\n        //require(msg.sender == owner);\n        require(listG[idG_].registered,\"No existe el gateway al que se le desea crear el certificado.\"); // Requisito: que el gateway est registrado en la lista de gateways\n        revokeGatewayCertificate(idG_); // Se revocan los certificados del gateway junto con todos los certificados anteriores de los sensores.\n        GatewayCertificate memory newGatewayCertificate = GatewayCertificate(block.timestamp+durationGC,false,idG_,userAddress_); // Se crea un objeto temporal creando la estructura del gateway\n        totalGC = totalGC + 1; // Se aade 1 al contador general de certificados de gateway\n        listGC[totalGC] = newGatewayCertificate; // Se aade al mapeo con el ndice deseado. Este mapeo ayuda a la hora de acceder a los certificados de un gateway?\n        listG[idG_].gatewayCertificateID = totalGC;\n    }\n\n    //Funcin para crear un certificado de sensor\n    function sensorCertificateCreation(uint16 idS_,uint16 idG_,uint idM_) public{\n        //require(msg.sender == owner);\n        require(listS[idS_].registered,\"No existe el sensor al que se le desea crear el certificado.\"); // Requisitos: que el sensor est registrado en la lista de sensores\n        require(checkGatewayCertificateStatus(idG_),\"No existe un certificado valido del gateway al que se desea asociar el sensor.\"); // que exista certificado del gateway al que se quiere asociar el sensor\n        //require(listM[idM_].idM != 0,\"No existe la medicina que se trata de monitorizar con el sensor.\"); // Que exista la medicina que se desea monitorizar con el sensor\n        totalSC = totalSC + 1; // Se aade 1 al total de certificados de sensores\n        SensorCertificate memory newSensorCertificate = SensorCertificate(block.timestamp+durationSC,false,idS_,idG_,idM_); // Se crea el certificado con los datos necesarios\n        listSC[totalSC] = newSensorCertificate; //Almacena el certificado del sensor en el mapeo de certificados de sensores\n        (sensorsOfGateway[idG_].sensors).push(idS_); //Se aade el sensor a la lista de sensores asociados al gateway\n        listS[idS_].sensorCertificateID = totalSC;\n    }\n\n    //Funcin para actualizar la fecha de expiracin de un gateway\n    function gatewayCertificateUpdate(uint16 idGC_) public{\n        require(listGC[idGC_].expiryDate > block.timestamp, \"No se puede actualizar el certificado del gateway porque caducado.\");\n        require(!listGC[idGC_].revoked,\"No se puede actualizar el certificado del gateway porque esta revocado.\");\n\n        listGC[idGC_]. expiryDate = block.timestamp + durationGC;\n    }\n\n    //Funcin para actualizar la fecha de expiracin de un sensor\n    function sensorCertificateUpdate(uint16 idSC_, uint16 idGC_) public{\n        require(listGC[idGC_].expiryDate > block.timestamp, \"El certificado del gateway esta caducado.\");\n        require(!listGC[idGC_].revoked,\"El certificado del gateway esta revocado.\");\n        require(listSC[idSC_].expiryDate > block.timestamp, \"No se puede actualizar el certificado del sensor porque caducado.\");\n        require(!listSC[idSC_].revoked,\"No se puede actualizar el certificado del sensor porque esta revocado.\");\n\n        listGC[idSC_]. expiryDate = block.timestamp + durationSC;\n    }\n\n\n    //Funcin para saber el idGC del certificado vigente del gateway de entrada\n    function getGatewayCertificateID(uint16 idG_) public view returns (uint16 idGC_){\n        //require(msg.sender == owner);\n        uint16 aux = listG[idG_].gatewayCertificateID;\n        if(aux != 0){\n            if((listGC[aux].expiryDate > block.timestamp)&&(!listGC[aux].revoked)&&(aux != 0)){\n                return aux; \n            } else{\n                return 0;\n            }\n        } else {\n                return 0;\n        }\n    }\n\n    //Funcin para saber el idSC del certificado vigente del sensor de entrada sin necesidad del idG\n    function getSensorCertificateID(uint16 idS_) public view returns (uint16 idSC_){\n        \n        uint16 aux = listS[idS_].sensorCertificateID;\n        if(aux != 0){\n            if((listSC[aux].expiryDate > block.timestamp)&&(!listSC[aux].revoked)){\n                return aux; \n            } else{\n                return 0;\n            }\n        } else{\n            return 0;\n        }\n    }\n\n    //Funcin para comprobar si un gateway tiene un certificado vlido vigente\n    function checkGatewayCertificateStatus(uint16 idG_) public view returns(bool){\n\n        uint16 aux = getGatewayCertificateID(idG_); // Buscamos el id del ltimo certificado del gateway\n\n        if (aux != 0){ // Si existe\n            return true;\n        } else {\n            return false; // No hay certificado de este gateway\n        }\n\n    }\n\n    \n    //Funcin para comprobar si un sensor tiene un certificado vlido vigente\n    function checkSensorCertificateStatus(uint16 idS_) public view returns(bool){\n\n        uint16 aux = getSensorCertificateID(idS_); // Buscamos el id del ltimo certificado del sensor\n\n        if (aux != 0){\n            return true;\n        }else{\n            return false; // No hay certificado de este sensor\n        }\n        \n    }\n\n    // Funcin para revocar el timo certificado de un sensor (se supone que solo pueden tener uno a la vez puesto que cuando se da de baja un gateway se revocan los certificados).\n    function revokeSensorCertificate(uint16 idS_) public{\n        //require(msg.sender == owner);\n        uint16 aux = getSensorCertificateID(idS_);\n        if (aux!=0){\n            listSC[aux].revoked = true;\n            listS[idS_].sensorCertificateID = 0;\n        }\n    }\n\n    // Funcin para revocar el certificado de un gateway y todos los certificados de sensores asociados a ese gateway.\n    function revokeGatewayCertificate(uint16 idG_) public{ \n        //require(msg.sender == owner);\n        uint16 aux1 = getGatewayCertificateID(idG_);\n        if (aux1 != 0){\n            uint16[] memory aux = sensorsOfGateway[idG_].sensors;\n            for (uint16 i = 0; i < aux.length; i++){\n                revokeSensorCertificate(aux[i]);\n            }\n            listGC[idG_].revoked = true;\n        }\n\n        delete sensorsOfGateway[idG_].sensors;\n        \n    }\n\n    // Funcin para borrar un sensor de la lista de sensores registrados\n    function eraseSensor(uint16 idS_) public{\n        //require(msg.sender == owner);\n        require(listS[idS_].registered,\"No existe o ya se ha borrado el sensor que se desea borrar.\");  // Se comprueba que haya\n        revokeSensorCertificate(idS_); //Se revoca el certificado\n        listS[idS_].registered = false; //Se pone como no registrado (se borra)\n    }\n\n    //Funcin para borrar un gateway de la lista de gateways registrados\n    function eraseGateway(uint16 idG_) public{\n        //require(msg.sender == owner);\n        require(listG[idG_].registered,\"No existe o ya se ha borrado el sensor que se desea borrar.\");  // Se comprueba que haya\n        uint16[] memory auxArray = getGatewaysSensorList(idG_);\n        for (uint i = 0; i<auxArray.length; i++){\n            if(listS[auxArray[i]].registered){\n                eraseSensor(auxArray[i]);\n            }\n        }\n        revokeGatewayCertificate(idG_); //Se revoca el certificado\n        listS[idG_].registered = false; //Se pone como no registrado (se borra)\n    }\n\n    // Funcin para registrar una nueva alerta\n    function newWarning(address owner_, uint16 idS_, uint8 warningType_, uint16 duration_, int16 vAvg_,int16 maxTemp_, int16 minTemp_) public{\n        require(msg.sender == owner_); // Esto es nuevo (sirve para que solo pueda ejecutarse por llamadas del propietario del sensor/gateway???)\n        require(checkSensorCertificateStatus(idS_),\"El sensor no dispone de certificado activo.\"); //r Comprobar que exista un certificado del Sensor\n        require(warningType_ <= uint8(WarningType.discon),\"El tipo de alerta introducito no es el correcto\");\n        uint16 idSC_ = listS[idS_].sensorCertificateID;\n        totalW = totalW + 1;\n        if (warningType_ == 0){\n            int16[] memory aux = new int16[](0); // Variable auxiliar para crear un array vaco\n            Warning memory newWarn = Warning(block.timestamp,WarningType(warningType_),idSC_,false,duration_,aux,maxTemp_,minTemp_); //Se crea un objeto temporal creando la estructura del gateway\n            listW[totalW] = newWarn; //Se aade al mapeo con el ndice deseado\n            (listW[totalW].vAvg).push(vAvg_); //Se aade el valor medio medido\n        } else if (warningType_ == 1){\n            int16[] memory aux = new int16[](0); // Variable auxiliar para crear un array vaco\n            Warning memory newWarn = Warning(block.timestamp,WarningType(warningType_),idSC_,false,duration_,aux,-100,-100); //Se crea un objeto temporal creando la estructura del gateway\n            listW[totalW] = newWarn; //Se aade al mapeo con el ndice deseado\n            (listW[totalW].vAvg).push(vAvg_); //Se aade el valor medio medido\n        } else if (warningType_ == 2){\n            int16[] memory aux = new int16[](0); // Variable auxiliar para crear un array vaco\n            Warning memory newWarn = Warning(block.timestamp,WarningType(warningType_),idSC_,true,duration_,aux,-100,-100); //Se crea un objeto temporal creando la estructura del gateway\n            listW[totalW] = newWarn; //Se aade al mapeo con el ndice deseado\n            (listW[totalW].vAvg).push(vAvg_); //Se aade el valor medio medido\n        } else if (warningType_ == 3){\n            int16[] memory aux = new int16[](0); // Variable auxiliar para crear un array vaco\n            Warning memory newWarn = Warning(block.timestamp,WarningType(warningType_),idSC_,true,duration_,aux,-100,-100); //Se crea un objeto temporal creando la estructura del gateway\n            listW[totalW] = newWarn; //Se aade al mapeo con el ndice deseado\n            (listW[totalW].vAvg).push(vAvg_); //Se aade el valor medio medido\n        } else{\n            int16[] memory aux = new int16[](0); // Variable auxiliar para crear un array vaco\n            Warning memory newWarn = Warning(block.timestamp,WarningType(warningType_),idSC_,true,0,aux,-100,-100); //Se crea un objeto temporal creando la estructura del gateway\n            listW[totalW] = newWarn; //Se aade al mapeo con el ndice deseado\n        }\n\n        (warningsOfSensor[idS_].warnings).push(totalW); //Se aade el warnings a la lista de warnings del sensor correspondiente\n    \n        uint aux1 = listSC[idSC_].idM; // Variable auxiliar para poder acceder al id de la medicina\n\n        uint16 idG = getAssociatedGateway(idS_); // Variable que se usa en processWarning() para determinar el usuario a quien enviar la notificacin\n\n        processWarning(warningType_,aux1,totalW, idG);\n        \n    }\n\n    // Funcin para aadir un nuevo valor a los warnings de temperatura y humedad\n\n    function updateWarning(address owner_,uint16 idW_, uint16 idS_, uint8 warningType_, uint16 idSC_, uint16 duration_, int16 vAvg_,int16 maxTemp_, int16 minTemp_) public{\n        require(msg.sender == owner_); // Esto es nuevo (sirve para que solo pueda ejecutarse por llamadas del propietario del sensor???)\n        require(checkSensorCertificateStatus(idS_),\"El sensor no dispone de certificado activo.\"); // Comprobar que exista un certificado del Sensor\n        require(warningType_ <= uint8(WarningType.hum),\"El tipo de alerta introducito no es el correcto\");\n        require(!listW[idW_].closed);\n        require(listW[idW_].idSC == idSC_);\n        listW[idW_].duration = duration_;\n        (listW[idW_].vAvg).push(vAvg_);\n        uint aux = listSC[idSC_].idM; // Variable auxiliar para poder acceder al id de la medicina\n        if (warningType_ == 1){\n            listW[idW_].minTemp = minTemp_;\n            listW[idW_].maxTemp = maxTemp_;\n        }\n        \n        uint16 idG = getAssociatedGateway(idS_); // Variable que se usa en processWarning() para determinar el usuario a quien enviar la notificacin\n\n        processWarning(warningType_,aux,idW_,idG);\n    }\n\n    \n\n    // Funcin de procesado de los warnings \n\n    function processWarning(uint8 warningType_, uint idM_,uint16 idW_, uint16 idG_) public {\n        //require(msg.sender == owner);\n        //require(listM[idM_].exists,\"No existe la medicina\");\n        //uint16 aux = listSC[idSC_].idS;\n        //uint16[] memory auxArray =  warningsOfSensor[aux].warnings;\n        bool decision = false;\n        Warning memory auxWarning = listW[idW_];\n        if (warningType_ == 1 ){\n            int16 minTemp = medicinesContract.getMedicineMinTimeParam(idM_);\n            int16 maxTemp = medicinesContract.getMedicineMaxTimeParam(idM_);\n            int16 minRecTemp = medicinesContract.getMedicineMinRecTimeParam(idM_);\n            int16 maxRecTemp = medicinesContract.getMedicineMaxRecTimeParam(idM_);\n            \n            if ((minTemp < auxWarning.minTemp)||(maxTemp > auxWarning.maxTemp)){\n                decision = true;\n            }else if (((minRecTemp < auxWarning.minTemp)||(maxRecTemp > auxWarning.maxTemp))&&(auxWarning.duration > 1814400)){\n                decision = true;\n            }\n\n        }else if (warningType_ == 2){\n            //uint8 minHum = medicinesContract.getMedicineMinHumParam(idM_);\n            //uint8 maxHum = medicinesContract.getMedicineMaxHumParam(idM_);\n            decision = decisionAlgorithm1();\n\n        } else{\n            //uint8 light = medicinesContract.getMedicineLightParam(idM_);\n            //uint8 movement = medicinesContract.getMedicineMovementParam(idM_);\n            decision = decisionAlgorithm1();\n        }\n\n\n        if (decision){\n            uint16 idGC = listG[idG_].gatewayCertificateID;\n            address userAddress = listGC[idGC].userAddress;\n            bytes memory C1 = \"primeros_bytes_cifrados_mensaje\";\n            bytes memory C2 = \"segundos_bytes_cifrados_mensaje\";\n            notificationsContract.generateNotification(userAddress,idM_,C1,C2);\n\n        }\n\n    }\n\n    // Placeholder del algoritmo de decisin de las medicinas\n\n    function decisionAlgorithm1() public pure returns(bool){\n        return true;\n    }\n\n    // Subprotocolo 3\n\n    function getGatewayData(uint16 idG_) public view returns(bool, bytes8, bytes6, bytes32, bytes32){\n        //require(msg.sender == owner);\n        return(listG[idG_].registered,listG[idG_].devEui,listG[idG_].mac,listG[idG_].pubKeyL,listG[idG_].pubKeyR);\n    }\n\n    function getSensorData(uint16 idS_) public view returns(bool, bytes6, bytes32, bytes32){\n        //require(msg.sender == owner);\n        return(listS[idS_].registered,listS[idS_].mac,listS[idS_].pubKeyL,listS[idS_].pubKeyR);\n    }\n\n    function getGatewayCertificateData(uint16 idGC_) public view returns(uint, bool, uint16, address){\n        //require(msg.sender == owner);\n        return(listGC[idGC_].expiryDate,listGC[idGC_].revoked,listGC[idGC_].idG,listGC[idGC_].userAddress);\n    }\n\n    function getSensorCertificateData(uint16 idSC_) public view returns(uint, bool, uint16, uint16, uint256){\n        //require(msg.sender == owner);\n        return(listSC[idSC_].expiryDate,listSC[idSC_].revoked,listSC[idSC_].idG,listSC[idSC_].idS,listSC[idSC_].idM);\n    }\n\n    function getAssociatedGateway(uint16 idS_) public view returns(uint16){\n        //require(msg.sender == owner);\n        require(listS[idS_].registered == false, \"No existe sensor registrado.\");\n\n        uint16 aux = listS[idS_].sensorCertificateID;\n\n        return listSC[aux].idG;\n        \n    }\n\n    function getWarningData(uint16 idW_) public view returns(uint, WarningType, uint, bool, uint16, int16[] memory){\n        //require(msg.sender == owner);\n        return(listW[idW_].date,listW[idW_].warningType,listW[idW_].idSC,listW[idW_].closed,listW[idW_].duration,listW[idW_].vAvg);\n    }\n\n    function getGatewaysSensorList(uint16 idG_) public view returns (uint16[] memory) {\n        //require(msg.sender == owner);\n        return sensorsOfGateway[idG_].sensors;\n    }\n\n    function getSensorsWarningList(uint16 idS_) public view returns (uint16[] memory) {\n        //require(msg.sender == owner);\n        return warningsOfSensor[idS_].warnings;\n    }\n\n    function getSensorsWarningListForTimePeriod(uint16 idS_, uint startT_, uint endT_) public view returns (uint16[] memory) {\n        //require(msg.sender == owner);\n        uint16[] memory warnings = warningsOfSensor[idS_].warnings;\n        uint16[] memory auxWarnings = new uint16[](0); // Inicializar el array con longitud cero\n\n        for (uint i = 0; i < warnings.length; i++) {\n            if ((listW[warnings[i]].date > startT_) && (listW[warnings[i]].date < endT_)) {\n                // Redimensionar el array y aadir el nuevo elemento, si no da error de variable is of storage pointer type and can be accessed without prior assignment\n                uint16[] memory tempArray = new uint16[](auxWarnings.length + 1);\n                for (uint j = 0; j < auxWarnings.length; j++) {\n                    tempArray[j] = auxWarnings[j];\n                }\n                tempArray[auxWarnings.length] = warnings[i];\n                auxWarnings = tempArray;\n            }\n        }\n\n        return auxWarnings;\n    }\n\n}",
  "sourcePath": "C:\\Users\\Usuario\\Desktop\\DApp-Victor\\contracts\\Protocol.sol",
  "compiler": {
    "name": "solc",
    "version": "0.5.16+commit.9c3226ce.Emscripten.clang"
  },
  "schemaVersion": "3.4.8",
  "updatedAt": "2024-02-24T21:00:49.556Z",
  "devdoc": {
    "methods": {}
  },
  "userdoc": {
    "methods": {}
  }
}