{
  "contractName": "Protocol",
  "abi": [
    {
      "inputs": [
        {
          "internalType": "address",
          "name": "medicinesAddress_",
          "type": "address"
        },
        {
          "internalType": "address",
          "name": "notificationsAddress_",
          "type": "address"
        }
      ],
      "payable": false,
      "stateMutability": "nonpayable",
      "type": "constructor"
    },
    {
      "constant": true,
      "inputs": [
        {
          "internalType": "uint16",
          "name": "",
          "type": "uint16"
        }
      ],
      "name": "listG",
      "outputs": [
        {
          "internalType": "bool",
          "name": "registered",
          "type": "bool"
        },
        {
          "internalType": "bytes8",
          "name": "devEui",
          "type": "bytes8"
        },
        {
          "internalType": "bytes6",
          "name": "mac",
          "type": "bytes6"
        },
        {
          "internalType": "bytes32",
          "name": "pubKeyL",
          "type": "bytes32"
        },
        {
          "internalType": "bytes32",
          "name": "pubKeyR",
          "type": "bytes32"
        },
        {
          "internalType": "uint16",
          "name": "gatewayCertificateID",
          "type": "uint16"
        }
      ],
      "payable": false,
      "stateMutability": "view",
      "type": "function"
    },
    {
      "constant": true,
      "inputs": [
        {
          "internalType": "uint16",
          "name": "",
          "type": "uint16"
        }
      ],
      "name": "listGC",
      "outputs": [
        {
          "internalType": "uint256",
          "name": "expiryDate",
          "type": "uint256"
        },
        {
          "internalType": "bool",
          "name": "revoked",
          "type": "bool"
        },
        {
          "internalType": "uint16",
          "name": "idG",
          "type": "uint16"
        },
        {
          "internalType": "address",
          "name": "userAddress",
          "type": "address"
        }
      ],
      "payable": false,
      "stateMutability": "view",
      "type": "function"
    },
    {
      "constant": true,
      "inputs": [
        {
          "internalType": "uint16",
          "name": "",
          "type": "uint16"
        }
      ],
      "name": "listS",
      "outputs": [
        {
          "internalType": "bool",
          "name": "registered",
          "type": "bool"
        },
        {
          "internalType": "bytes6",
          "name": "mac",
          "type": "bytes6"
        },
        {
          "internalType": "bytes32",
          "name": "pubKeyL",
          "type": "bytes32"
        },
        {
          "internalType": "bytes32",
          "name": "pubKeyR",
          "type": "bytes32"
        },
        {
          "internalType": "uint16",
          "name": "sensorCertificateID",
          "type": "uint16"
        }
      ],
      "payable": false,
      "stateMutability": "view",
      "type": "function"
    },
    {
      "constant": true,
      "inputs": [
        {
          "internalType": "uint16",
          "name": "",
          "type": "uint16"
        }
      ],
      "name": "listSC",
      "outputs": [
        {
          "internalType": "uint256",
          "name": "expiryDate",
          "type": "uint256"
        },
        {
          "internalType": "bool",
          "name": "revoked",
          "type": "bool"
        },
        {
          "internalType": "uint16",
          "name": "idS",
          "type": "uint16"
        },
        {
          "internalType": "uint16",
          "name": "idG",
          "type": "uint16"
        },
        {
          "internalType": "uint256",
          "name": "idM",
          "type": "uint256"
        }
      ],
      "payable": false,
      "stateMutability": "view",
      "type": "function"
    },
    {
      "constant": true,
      "inputs": [
        {
          "internalType": "uint16",
          "name": "",
          "type": "uint16"
        }
      ],
      "name": "listW",
      "outputs": [
        {
          "internalType": "uint256",
          "name": "date",
          "type": "uint256"
        },
        {
          "internalType": "enum Protocol.WarningType",
          "name": "warningType",
          "type": "uint8"
        },
        {
          "internalType": "uint256",
          "name": "idSC",
          "type": "uint256"
        },
        {
          "internalType": "bool",
          "name": "closed",
          "type": "bool"
        },
        {
          "internalType": "uint16",
          "name": "duration",
          "type": "uint16"
        }
      ],
      "payable": false,
      "stateMutability": "view",
      "type": "function"
    },
    {
      "constant": true,
      "inputs": [],
      "name": "medicinesContract",
      "outputs": [
        {
          "internalType": "contract Medicines",
          "name": "",
          "type": "address"
        }
      ],
      "payable": false,
      "stateMutability": "view",
      "type": "function"
    },
    {
      "constant": true,
      "inputs": [],
      "name": "notificationsContract",
      "outputs": [
        {
          "internalType": "contract Notifications",
          "name": "",
          "type": "address"
        }
      ],
      "payable": false,
      "stateMutability": "view",
      "type": "function"
    },
    {
      "constant": false,
      "inputs": [
        {
          "internalType": "uint16",
          "name": "idS_",
          "type": "uint16"
        },
        {
          "internalType": "bytes6",
          "name": "mac_",
          "type": "bytes6"
        },
        {
          "internalType": "bytes32",
          "name": "pubKeyL_",
          "type": "bytes32"
        },
        {
          "internalType": "bytes32",
          "name": "pubKeyR_",
          "type": "bytes32"
        }
      ],
      "name": "sensorRegistration",
      "outputs": [],
      "payable": false,
      "stateMutability": "nonpayable",
      "type": "function"
    },
    {
      "constant": false,
      "inputs": [
        {
          "internalType": "uint16",
          "name": "idG_",
          "type": "uint16"
        },
        {
          "internalType": "bytes8",
          "name": "devEui_",
          "type": "bytes8"
        },
        {
          "internalType": "bytes6",
          "name": "mac_",
          "type": "bytes6"
        },
        {
          "internalType": "bytes32",
          "name": "pubKeyL_",
          "type": "bytes32"
        },
        {
          "internalType": "bytes32",
          "name": "pubKeyR_",
          "type": "bytes32"
        }
      ],
      "name": "gatewayRegistration",
      "outputs": [],
      "payable": false,
      "stateMutability": "nonpayable",
      "type": "function"
    },
    {
      "constant": false,
      "inputs": [
        {
          "internalType": "uint16",
          "name": "idG_",
          "type": "uint16"
        },
        {
          "internalType": "address",
          "name": "userAddress_",
          "type": "address"
        }
      ],
      "name": "gatewayCertificateCreation",
      "outputs": [],
      "payable": false,
      "stateMutability": "nonpayable",
      "type": "function"
    },
    {
      "constant": false,
      "inputs": [
        {
          "internalType": "uint16",
          "name": "idS_",
          "type": "uint16"
        },
        {
          "internalType": "uint16",
          "name": "idG_",
          "type": "uint16"
        },
        {
          "internalType": "uint256",
          "name": "idM_",
          "type": "uint256"
        }
      ],
      "name": "sensorCertificateCreation",
      "outputs": [],
      "payable": false,
      "stateMutability": "nonpayable",
      "type": "function"
    },
    {
      "constant": false,
      "inputs": [
        {
          "internalType": "uint16",
          "name": "idGC_",
          "type": "uint16"
        }
      ],
      "name": "gatewayCertificateUpdate",
      "outputs": [],
      "payable": false,
      "stateMutability": "nonpayable",
      "type": "function"
    },
    {
      "constant": false,
      "inputs": [
        {
          "internalType": "uint16",
          "name": "idSC_",
          "type": "uint16"
        },
        {
          "internalType": "uint16",
          "name": "idGC_",
          "type": "uint16"
        }
      ],
      "name": "sensorCertificateUpdate",
      "outputs": [],
      "payable": false,
      "stateMutability": "nonpayable",
      "type": "function"
    },
    {
      "constant": true,
      "inputs": [
        {
          "internalType": "uint16",
          "name": "idG_",
          "type": "uint16"
        }
      ],
      "name": "getGatewayCertificateID",
      "outputs": [
        {
          "internalType": "uint16",
          "name": "idGC_",
          "type": "uint16"
        }
      ],
      "payable": false,
      "stateMutability": "view",
      "type": "function"
    },
    {
      "constant": true,
      "inputs": [
        {
          "internalType": "uint16",
          "name": "idS_",
          "type": "uint16"
        }
      ],
      "name": "getSensorCertificateID",
      "outputs": [
        {
          "internalType": "uint16",
          "name": "idSC_",
          "type": "uint16"
        }
      ],
      "payable": false,
      "stateMutability": "view",
      "type": "function"
    },
    {
      "constant": true,
      "inputs": [
        {
          "internalType": "uint16",
          "name": "idG_",
          "type": "uint16"
        }
      ],
      "name": "checkGatewayCertificateStatus",
      "outputs": [
        {
          "internalType": "bool",
          "name": "",
          "type": "bool"
        }
      ],
      "payable": false,
      "stateMutability": "view",
      "type": "function"
    },
    {
      "constant": true,
      "inputs": [
        {
          "internalType": "uint16",
          "name": "idS_",
          "type": "uint16"
        }
      ],
      "name": "checkSensorCertificateStatus",
      "outputs": [
        {
          "internalType": "bool",
          "name": "",
          "type": "bool"
        }
      ],
      "payable": false,
      "stateMutability": "view",
      "type": "function"
    },
    {
      "constant": false,
      "inputs": [
        {
          "internalType": "uint16",
          "name": "idS_",
          "type": "uint16"
        }
      ],
      "name": "revokeSensorCertificate",
      "outputs": [],
      "payable": false,
      "stateMutability": "nonpayable",
      "type": "function"
    },
    {
      "constant": false,
      "inputs": [
        {
          "internalType": "uint16",
          "name": "idG_",
          "type": "uint16"
        }
      ],
      "name": "revokeGatewayCertificate",
      "outputs": [],
      "payable": false,
      "stateMutability": "nonpayable",
      "type": "function"
    },
    {
      "constant": false,
      "inputs": [
        {
          "internalType": "uint16",
          "name": "idS_",
          "type": "uint16"
        }
      ],
      "name": "eraseSensor",
      "outputs": [],
      "payable": false,
      "stateMutability": "nonpayable",
      "type": "function"
    },
    {
      "constant": false,
      "inputs": [
        {
          "internalType": "uint16",
          "name": "idG_",
          "type": "uint16"
        }
      ],
      "name": "eraseGateway",
      "outputs": [],
      "payable": false,
      "stateMutability": "nonpayable",
      "type": "function"
    },
    {
      "constant": false,
      "inputs": [
        {
          "internalType": "address",
          "name": "owner_",
          "type": "address"
        },
        {
          "internalType": "uint16",
          "name": "idS_",
          "type": "uint16"
        },
        {
          "internalType": "uint8",
          "name": "warningType_",
          "type": "uint8"
        },
        {
          "internalType": "uint16",
          "name": "duration_",
          "type": "uint16"
        },
        {
          "internalType": "int16",
          "name": "vAvg_",
          "type": "int16"
        },
        {
          "internalType": "int16",
          "name": "vMax_",
          "type": "int16"
        },
        {
          "internalType": "int16",
          "name": "vMin_",
          "type": "int16"
        }
      ],
      "name": "newWarning",
      "outputs": [],
      "payable": false,
      "stateMutability": "nonpayable",
      "type": "function"
    },
    {
      "constant": false,
      "inputs": [
        {
          "internalType": "address",
          "name": "owner_",
          "type": "address"
        },
        {
          "internalType": "uint16",
          "name": "idW_",
          "type": "uint16"
        },
        {
          "internalType": "uint16",
          "name": "idS_",
          "type": "uint16"
        },
        {
          "internalType": "uint8",
          "name": "warningType_",
          "type": "uint8"
        },
        {
          "internalType": "uint16",
          "name": "idSC_",
          "type": "uint16"
        },
        {
          "internalType": "uint16",
          "name": "duration_",
          "type": "uint16"
        },
        {
          "internalType": "int16",
          "name": "vAvg_",
          "type": "int16"
        },
        {
          "internalType": "int16",
          "name": "vMax_",
          "type": "int16"
        },
        {
          "internalType": "int16",
          "name": "vMin_",
          "type": "int16"
        }
      ],
      "name": "updateWarning",
      "outputs": [],
      "payable": false,
      "stateMutability": "nonpayable",
      "type": "function"
    },
    {
      "constant": false,
      "inputs": [
        {
          "internalType": "uint8",
          "name": "warningType_",
          "type": "uint8"
        },
        {
          "internalType": "uint256",
          "name": "idM_",
          "type": "uint256"
        },
        {
          "internalType": "uint16",
          "name": "idW_",
          "type": "uint16"
        },
        {
          "internalType": "uint16",
          "name": "idG_",
          "type": "uint16"
        }
      ],
      "name": "processWarning",
      "outputs": [],
      "payable": false,
      "stateMutability": "nonpayable",
      "type": "function"
    },
    {
      "constant": true,
      "inputs": [],
      "name": "decisionAlgorithm1",
      "outputs": [
        {
          "internalType": "bool",
          "name": "",
          "type": "bool"
        }
      ],
      "payable": false,
      "stateMutability": "pure",
      "type": "function"
    },
    {
      "constant": true,
      "inputs": [
        {
          "internalType": "uint16",
          "name": "idG_",
          "type": "uint16"
        }
      ],
      "name": "getGatewayData",
      "outputs": [
        {
          "internalType": "bool",
          "name": "",
          "type": "bool"
        },
        {
          "internalType": "bytes8",
          "name": "",
          "type": "bytes8"
        },
        {
          "internalType": "bytes6",
          "name": "",
          "type": "bytes6"
        },
        {
          "internalType": "bytes32",
          "name": "",
          "type": "bytes32"
        },
        {
          "internalType": "bytes32",
          "name": "",
          "type": "bytes32"
        }
      ],
      "payable": false,
      "stateMutability": "view",
      "type": "function"
    },
    {
      "constant": true,
      "inputs": [
        {
          "internalType": "uint16",
          "name": "idS_",
          "type": "uint16"
        }
      ],
      "name": "getSensorData",
      "outputs": [
        {
          "internalType": "bool",
          "name": "",
          "type": "bool"
        },
        {
          "internalType": "bytes6",
          "name": "",
          "type": "bytes6"
        },
        {
          "internalType": "bytes32",
          "name": "",
          "type": "bytes32"
        },
        {
          "internalType": "bytes32",
          "name": "",
          "type": "bytes32"
        }
      ],
      "payable": false,
      "stateMutability": "view",
      "type": "function"
    },
    {
      "constant": true,
      "inputs": [
        {
          "internalType": "uint16",
          "name": "idGC_",
          "type": "uint16"
        }
      ],
      "name": "getGatewayCertificateData",
      "outputs": [
        {
          "internalType": "uint256",
          "name": "",
          "type": "uint256"
        },
        {
          "internalType": "bool",
          "name": "",
          "type": "bool"
        },
        {
          "internalType": "uint16",
          "name": "",
          "type": "uint16"
        },
        {
          "internalType": "address",
          "name": "",
          "type": "address"
        }
      ],
      "payable": false,
      "stateMutability": "view",
      "type": "function"
    },
    {
      "constant": true,
      "inputs": [
        {
          "internalType": "uint16",
          "name": "idSC_",
          "type": "uint16"
        }
      ],
      "name": "getSensorCertificateData",
      "outputs": [
        {
          "internalType": "uint256",
          "name": "",
          "type": "uint256"
        },
        {
          "internalType": "bool",
          "name": "",
          "type": "bool"
        },
        {
          "internalType": "uint16",
          "name": "",
          "type": "uint16"
        },
        {
          "internalType": "uint16",
          "name": "",
          "type": "uint16"
        },
        {
          "internalType": "uint256",
          "name": "",
          "type": "uint256"
        }
      ],
      "payable": false,
      "stateMutability": "view",
      "type": "function"
    },
    {
      "constant": true,
      "inputs": [
        {
          "internalType": "uint16",
          "name": "idS_",
          "type": "uint16"
        }
      ],
      "name": "getAssociatedGateway",
      "outputs": [
        {
          "internalType": "uint16",
          "name": "",
          "type": "uint16"
        }
      ],
      "payable": false,
      "stateMutability": "view",
      "type": "function"
    },
    {
      "constant": true,
      "inputs": [
        {
          "internalType": "uint16",
          "name": "idW_",
          "type": "uint16"
        }
      ],
      "name": "getWarningData",
      "outputs": [
        {
          "internalType": "uint256",
          "name": "",
          "type": "uint256"
        },
        {
          "internalType": "enum Protocol.WarningType",
          "name": "",
          "type": "uint8"
        },
        {
          "internalType": "uint256",
          "name": "",
          "type": "uint256"
        },
        {
          "internalType": "bool",
          "name": "",
          "type": "bool"
        },
        {
          "internalType": "uint16",
          "name": "",
          "type": "uint16"
        },
        {
          "internalType": "int16[]",
          "name": "",
          "type": "int16[]"
        }
      ],
      "payable": false,
      "stateMutability": "view",
      "type": "function"
    },
    {
      "constant": true,
      "inputs": [
        {
          "internalType": "uint16",
          "name": "idG_",
          "type": "uint16"
        }
      ],
      "name": "getGatewaysSensorList",
      "outputs": [
        {
          "internalType": "uint16[]",
          "name": "",
          "type": "uint16[]"
        }
      ],
      "payable": false,
      "stateMutability": "view",
      "type": "function"
    },
    {
      "constant": true,
      "inputs": [
        {
          "internalType": "uint16",
          "name": "idS_",
          "type": "uint16"
        }
      ],
      "name": "getSensorsWarningList",
      "outputs": [
        {
          "internalType": "uint16[]",
          "name": "",
          "type": "uint16[]"
        }
      ],
      "payable": false,
      "stateMutability": "view",
      "type": "function"
    },
    {
      "constant": true,
      "inputs": [
        {
          "internalType": "uint16",
          "name": "idS_",
          "type": "uint16"
        },
        {
          "internalType": "uint256",
          "name": "startT_",
          "type": "uint256"
        },
        {
          "internalType": "uint256",
          "name": "endT_",
          "type": "uint256"
        }
      ],
      "name": "getSensorsWarningListForTimePeriod",
      "outputs": [
        {
          "internalType": "uint16[]",
          "name": "",
          "type": "uint16[]"
        }
      ],
      "payable": false,
      "stateMutability": "view",
      "type": "function"
    }
  ],
  "bytecode": "0x608060405273fad90a54c5e0b91ff95d498e33a0920afcb0d2266000806101000a81548173ffffffffffffffffffffffffffffffffffffffff021916908373ffffffffffffffffffffffffffffffffffffffff1602179055506250415060015562c8a3486002556000600360006101000a81548161ffff021916908361ffff1602179055506000600360026101000a81548161ffff021916908361ffff1602179055506000600360046101000a81548161ffff021916908361ffff160217905550348015620000cd57600080fd5b5060405162005a6e38038062005a6e83398181016040526040811015620000f357600080fd5b81019080805190602001909291908051906020019092919050505081600360066101000a81548173ffffffffffffffffffffffffffffffffffffffff021916908373ffffffffffffffffffffffffffffffffffffffff16021790555080600460006101000a81548173ffffffffffffffffffffffffffffffffffffffff021916908373ffffffffffffffffffffffffffffffffffffffff1602179055506200020460017eb0d063c22600000000000000000000000000000000000000000000000000007f476176696f7461000000000000000000000000000000000000000000000000007f496e20536f6c6964697479000000000000000000000000000000000000000000620002a160201b60201c565b6200029960017f4578616d706c65000000000000000000000000000000000000000000000000007eb0d063c22600000000000000000000000000000000000000000000000000007f476176696f7461000000000000000000000000000000000000000000000000007f496e20536f6c69646974790000000000000000000000000000000000000000006200042660201b60201c565b505062000818565b60001515600560008661ffff1661ffff16815260200190815260200160002060000160009054906101000a900460ff161515146200032b576040517f08c379a000000000000000000000000000000000000000000000000000000000815260040180806020018281038252602a81526020018062005a19602a913960400191505060405180910390fd5b6200033562000661565b6040518060a001604052806001151581526020018579ffffffffffffffffffffffffffffffffffffffffffffffffffff19168152602001848152602001838152602001600061ffff16815250905080600560008761ffff1661ffff16815260200190815260200160002060008201518160000160006101000a81548160ff02191690831515021790555060208201518160000160016101000a81548165ffffffffffff021916908360d01c0217905550604082015181600101556060820151816002015560808201518160030160006101000a81548161ffff021916908361ffff1602179055509050505050505050565b60001515600660008761ffff1661ffff16815260200190815260200160002060000160009054906101000a900460ff16151514620004b0576040517f08c379a000000000000000000000000000000000000000000000000000000000815260040180806020018281038252602b81526020018062005a43602b913960400191505060405180910390fd5b620004ba620006b9565b6040518060c001604052806001151581526020018677ffffffffffffffffffffffffffffffffffffffffffffffff191681526020018579ffffffffffffffffffffffffffffffffffffffffffffffffffff19168152602001848152602001838152602001600061ffff16815250905080600660008861ffff1661ffff16815260200190815260200160002060008201518160000160006101000a81548160ff02191690831515021790555060208201518160000160016101000a81548167ffffffffffffffff021916908360c01c021790555060408201518160000160096101000a81548165ffffffffffff021916908360d01c0217905550606082015181600101556080820151816002015560a08201518160030160006101000a81548161ffff021916908361ffff16021790555090505060606000604051908082528060200260200182016040528015620006205781602001602082028038833980820191505090505b50905080600a60008961ffff1661ffff16815260200190815260200160002060000190805190602001906200065792919062000733565b5050505050505050565b6040518060a00160405280600015158152602001600079ffffffffffffffffffffffffffffffffffffffffffffffffffff191681526020016000801916815260200160008019168152602001600061ffff1681525090565b6040518060c00160405280600015158152602001600077ffffffffffffffffffffffffffffffffffffffffffffffff19168152602001600079ffffffffffffffffffffffffffffffffffffffffffffffffffff191681526020016000801916815260200160008019168152602001600061ffff1681525090565b82805482825590600052602060002090600f01601090048101928215620007d15791602002820160005b838211156200079f57835183826101000a81548161ffff021916908361ffff16021790555092602001926002016020816001010492830192600103026200075d565b8015620007cf5782816101000a81549061ffff02191690556002016020816001010492830192600103026200079f565b505b509050620007e09190620007e4565b5090565b6200081591905b808211156200081157600081816101000a81549061ffff021916905550600101620007eb565b5090565b90565b6151f180620008286000396000f3fe608060405234801561001057600080fd5b50600436106102065760003560e01c8063851322201161011a578063c4b0ceb2116100ad578063db779c7c1161007c578063db779c7c14610e07578063def5c40014610eaf578063e48127a814610f36578063f520be5114610f80578063f7d980e71461103157610206565b8063c4b0ceb214610ca1578063d265358814610d34578063d386e62e14610d7e578063d8c4cff714610dd557610206565b8063b1ae9375116100e9578063b1ae937514610a81578063b4aefa2b14610b66578063ba89d09b14610bb4578063beb3d18f14610c0657610206565b8063851322201461092e5780638cec0b2c14610978578063a527f338146109c6578063a98e7c5b146109e857610206565b806351d1cea31161019d5780635d31fb1d1161016c5780635d31fb1d146106c7578063606962d2146106f957806366d224111461078c57806366ed8a21146107d6578063711128621461089a57610206565b806351d1cea31461059f578063547b2f10146105d15780635656172e1461061f5780635976f89e1461065157610206565b806324ab1062116101d957806324ab10621461043957806329c0e624146104a65780634aed7bab1461052d5780634e531a321461056d57610206565b806311a6848b1461020b5780631cb36c4d146102875780631e4b6d491461031957806321a6c04114610363575b600080fd5b61023b6004803603602081101561022157600080fd5b81019080803561ffff1690602001909291905050506110a7565b6040518086815260200185600481111561025157fe5b60ff168152602001848152602001831515151581526020018261ffff1661ffff1681526020019550505050505060405180910390f35b610317600480360360a081101561029d57600080fd5b81019080803561ffff169060200190929190803577ffffffffffffffffffffffffffffffffffffffffffffffff19169060200190929190803579ffffffffffffffffffffffffffffffffffffffffffffffffffff191690602001909291908035906020019092919080359060200190929190505050611105565b005b610321611339565b604051808273ffffffffffffffffffffffffffffffffffffffff1673ffffffffffffffffffffffffffffffffffffffff16815260200191505060405180910390f35b6103936004803603602081101561037957600080fd5b81019080803561ffff16906020019092919050505061135f565b60405180861515151581526020018577ffffffffffffffffffffffffffffffffffffffffffffffff191677ffffffffffffffffffffffffffffffffffffffffffffffff191681526020018479ffffffffffffffffffffffffffffffffffffffffffffffffffff191679ffffffffffffffffffffffffffffffffffffffffffffffffffff191681526020018381526020018281526020019550505050505060405180910390f35b6104a46004803603608081101561044f57600080fd5b81019080803561ffff169060200190929190803579ffffffffffffffffffffffffffffffffffffffffffffffffffff19169060200190929190803590602001909291908035906020019092919050505061143c565b005b6104d6600480360360208110156104bc57600080fd5b81019080803561ffff1690602001909291905050506115bd565b6040518080602001828103825283818151815260200191508051906020019060200280838360005b838110156105195780820151818401526020810190506104fe565b505050509050019250505060405180910390f35b61056b6004803603604081101561054357600080fd5b81019080803561ffff169060200190929190803561ffff16906020019092919050505061165b565b005b61059d6004803603602081101561058357600080fd5b81019080803561ffff169060200190929190505050611876565b005b6105cf600480360360208110156105b557600080fd5b81019080803561ffff1690602001909291905050506119c6565b005b610601600480360360208110156105e757600080fd5b81019080803561ffff169060200190929190505050611a55565b604051808261ffff1661ffff16815260200191505060405180910390f35b61064f6004803603602081101561063557600080fd5b81019080803561ffff169060200190929190505050611b0c565b005b6106816004803603602081101561066757600080fd5b81019080803561ffff169060200190929190505050611c2e565b60405180868152602001851515151581526020018461ffff1661ffff1681526020018361ffff1661ffff1681526020018281526020019550505050505060405180910390f35b6106f7600480360360208110156106dd57600080fd5b81019080803561ffff169060200190929190505050611c8d565b005b6107296004803603602081101561070f57600080fd5b81019080803561ffff169060200190929190505050611e21565b60405180858152602001841515151581526020018361ffff1661ffff1681526020018273ffffffffffffffffffffffffffffffffffffffff1673ffffffffffffffffffffffffffffffffffffffff16815260200194505050505060405180910390f35b610794611eed565b604051808273ffffffffffffffffffffffffffffffffffffffff1673ffffffffffffffffffffffffffffffffffffffff16815260200191505060405180910390f35b610806600480360360208110156107ec57600080fd5b81019080803561ffff169060200190929190505050611f13565b6040518087815260200186600481111561081c57fe5b60ff168152602001858152602001841515151581526020018361ffff1661ffff16815260200180602001828103825283818151815260200191508051906020019060200280838360005b83811015610881578082015181840152602081019050610866565b5050505090500197505050505050505060405180910390f35b61092c600480360360e08110156108b057600080fd5b81019080803573ffffffffffffffffffffffffffffffffffffffff169060200190929190803561ffff169060200190929190803560ff169060200190929190803561ffff169060200190929190803560010b9060200190929190803560010b9060200190929190803560010b906020019092919050505061208b565b005b61095e6004803603602081101561094457600080fd5b81019080803561ffff169060200190929190505050612a4f565b604051808215151515815260200191505060405180910390f35b6109a86004803603602081101561098e57600080fd5b81019080803561ffff169060200190929190505050612a7e565b604051808261ffff1661ffff16815260200191505060405180910390f35b6109ce612b46565b604051808215151515815260200191505060405180910390f35b610a18600480360360208110156109fe57600080fd5b81019080803561ffff169060200190929190505050612b4f565b60405180851515151581526020018479ffffffffffffffffffffffffffffffffffffffffffffffffffff191679ffffffffffffffffffffffffffffffffffffffffffffffffffff1916815260200183815260200182815260200194505050505060405180910390f35b610ab160048036036020811015610a9757600080fd5b81019080803561ffff169060200190929190505050612bfa565b60405180871515151581526020018677ffffffffffffffffffffffffffffffffffffffffffffffff191677ffffffffffffffffffffffffffffffffffffffffffffffff191681526020018579ffffffffffffffffffffffffffffffffffffffffffffffffffff191679ffffffffffffffffffffffffffffffffffffffffffffffffffff191681526020018481526020018381526020018261ffff1661ffff168152602001965050505050505060405180910390f35b610b9660048036036020811015610b7c57600080fd5b81019080803561ffff169060200190929190505050612c6b565b604051808261ffff1661ffff16815260200191505060405180910390f35b610c0460048036036040811015610bca57600080fd5b81019080803561ffff169060200190929190803573ffffffffffffffffffffffffffffffffffffffff169060200190929190505050612d78565b005b610c4a60048036036060811015610c1c57600080fd5b81019080803561ffff1690602001909291908035906020019092919080359060200190929190505050613018565b6040518080602001828103825283818151815260200191508051906020019060200280838360005b83811015610c8d578082015181840152602081019050610c72565b505050509050019250505060405180910390f35b610cd160048036036020811015610cb757600080fd5b81019080803561ffff16906020019092919050505061324c565b60405180858152602001841515151581526020018361ffff1661ffff1681526020018273ffffffffffffffffffffffffffffffffffffffff1673ffffffffffffffffffffffffffffffffffffffff16815260200194505050505060405180910390f35b610d7c60048036036060811015610d4a57600080fd5b81019080803561ffff169060200190929190803561ffff169060200190929190803590602001909291905050506132b7565b005b610dd360048036036080811015610d9457600080fd5b81019080803560ff16906020019092919080359060200190929190803561ffff169060200190929190803561ffff1690602001909291905050506136f7565b005b610e0560048036036020811015610deb57600080fd5b81019080803561ffff1690602001909291905050506143b2565b005b610e3760048036036020811015610e1d57600080fd5b81019080803561ffff169060200190929190505050614476565b60405180861515151581526020018579ffffffffffffffffffffffffffffffffffffffffffffffffffff191679ffffffffffffffffffffffffffffffffffffffffffffffffffff191681526020018481526020018381526020018261ffff1661ffff1681526020019550505050505060405180910390f35b610edf60048036036020811015610ec557600080fd5b81019080803561ffff1690602001909291905050506144d4565b6040518080602001828103825283818151815260200191508051906020019060200280838360005b83811015610f22578082015181840152602081019050610f07565b505050509050019250505060405180910390f35b610f6660048036036020811015610f4c57600080fd5b81019080803561ffff169060200190929190505050614572565b604051808215151515815260200191505060405180910390f35b61102f6004803603610120811015610f9757600080fd5b81019080803573ffffffffffffffffffffffffffffffffffffffff169060200190929190803561ffff169060200190929190803561ffff169060200190929190803560ff169060200190929190803561ffff169060200190929190803561ffff169060200190929190803560010b9060200190929190803560010b9060200190929190803560010b90602001909291905050506145a1565b005b6110616004803603602081101561104757600080fd5b81019080803561ffff169060200190929190505050614989565b60405180868152602001851515151581526020018461ffff1661ffff1681526020018361ffff1661ffff1681526020018281526020019550505050505060405180910390f35b60096020528060005260406000206000915090508060000154908060010160009054906101000a900460ff16908060020154908060030160009054906101000a900460ff16908060030160019054906101000a900461ffff16905085565b60001515600660008761ffff1661ffff16815260200190815260200160002060000160009054906101000a900460ff1615151461118d576040517f08c379a000000000000000000000000000000000000000000000000000000000815260040180806020018281038252602b81526020018061512e602b913960400191505060405180910390fd5b611195614a68565b6040518060c001604052806001151581526020018677ffffffffffffffffffffffffffffffffffffffffffffffff191681526020018579ffffffffffffffffffffffffffffffffffffffffffffffffffff19168152602001848152602001838152602001600061ffff16815250905080600660008861ffff1661ffff16815260200190815260200160002060008201518160000160006101000a81548160ff02191690831515021790555060208201518160000160016101000a81548167ffffffffffffffff021916908360c01c021790555060408201518160000160096101000a81548165ffffffffffff021916908360d01c0217905550606082015181600101556080820151816002015560a08201518160030160006101000a81548161ffff021916908361ffff160217905550905050606060006040519080825280602002602001820160405280156112fa5781602001602082028038833980820191505090505b50905080600a60008961ffff1661ffff168152602001908152602001600020600001908051906020019061132f929190614ae2565b5050505050505050565b600460009054906101000a900473ffffffffffffffffffffffffffffffffffffffff1681565b6000806000806000600660008761ffff1661ffff16815260200190815260200160002060000160009054906101000a900460ff16600660008861ffff1661ffff16815260200190815260200160002060000160019054906101000a900460c01b600660008961ffff1661ffff16815260200190815260200160002060000160099054906101000a900460d01b600660008a61ffff1661ffff16815260200190815260200160002060010154600660008b61ffff1661ffff168152602001908152602001600020600201549450945094509450945091939590929450565b60001515600560008661ffff1661ffff16815260200190815260200160002060000160009054906101000a900460ff161515146114c4576040517f08c379a000000000000000000000000000000000000000000000000000000000815260040180806020018281038252602a815260200180614f3d602a913960400191505060405180910390fd5b6114cc614b8c565b6040518060a001604052806001151581526020018579ffffffffffffffffffffffffffffffffffffffffffffffffffff19168152602001848152602001838152602001600061ffff16815250905080600560008761ffff1661ffff16815260200190815260200160002060008201518160000160006101000a81548160ff02191690831515021790555060208201518160000160016101000a81548165ffffffffffff021916908360d01c0217905550604082015181600101556060820151816002015560808201518160030160006101000a81548161ffff021916908361ffff1602179055509050505050505050565b6060600a60008361ffff1661ffff16815260200190815260200160002060000180548060200260200160405190810160405280929190818152602001828054801561164f57602002820191906000526020600020906000905b82829054906101000a900461ffff1661ffff16815260200190600201906020826001010492830192600103820291508084116116165790505b50505050509050919050565b42600860008361ffff1661ffff16815260200190815260200160002060000154116116d1576040517f08c379a0000000000000000000000000000000000000000000000000000000008152600401808060200182810382526029815260200180614f146029913960400191505060405180910390fd5b600860008261ffff1661ffff16815260200190815260200160002060010160009054906101000a900460ff1615611753576040517f08c379a00000000000000000000000000000000000000000000000000000000081526004018080602001828103825260298152602001806150af6029913960400191505060405180910390fd5b42600760008461ffff1661ffff16815260200190815260200160002060000154116117c9576040517f08c379a0000000000000000000000000000000000000000000000000000000008152600401808060200182810382526026815260200180614fa26026913960400191505060405180910390fd5b600760008361ffff1661ffff16815260200190815260200160002060010160009054906101000a900460ff161561184b576040517f08c379a00000000000000000000000000000000000000000000000000000000081526004018080602001828103825260288152602001806151596028913960400191505060405180910390fd5b6001544201600860008461ffff1661ffff168152602001908152602001600020600001819055505050565b600660008261ffff1661ffff16815260200190815260200160002060000160009054906101000a900460ff166118f7576040517f08c379a000000000000000000000000000000000000000000000000000000000815260040180806020018281038252603b815260200180614f67603b913960400191505060405180910390fd5b6060611902826115bd565b905060008090505b8151811015611981576005600083838151811061192357fe5b602002602001015161ffff1661ffff16815260200190815260200160002060000160009054906101000a900460ff16156119745761197382828151811061196657fe5b60200260200101516143b2565b5b808060010191505061190a565b5061198b82611c8d565b6000600660008461ffff1661ffff16815260200190815260200160002060000160006101000a81548160ff0219169083151502179055505050565b60006119d182611a55565b905060008161ffff1614611a51576001600760008361ffff1661ffff16815260200190815260200160002060010160006101000a81548160ff0219169083151502179055506000600560008461ffff1661ffff16815260200190815260200160002060030160006101000a81548161ffff021916908361ffff1602179055505b5050565b600080600560008461ffff1661ffff16815260200190815260200160002060030160009054906101000a900461ffff16905060008161ffff1614611b015742600760008361ffff1661ffff16815260200190815260200160002060000154118015611ae95750600760008261ffff1661ffff16815260200190815260200160002060010160009054906101000a900460ff16155b15611af75780915050611b07565b6000915050611b07565b60009150505b919050565b42600860008361ffff1661ffff1681526020019081526020016000206000015411611b82576040517f08c379a0000000000000000000000000000000000000000000000000000000008152600401808060200182810382526027815260200180614e836027913960400191505060405180910390fd5b600860008261ffff1661ffff16815260200190815260200160002060010160009054906101000a900460ff1615611c04576040517f08c379a00000000000000000000000000000000000000000000000000000000081526004018080602001828103825260298152602001806150af6029913960400191505060405180910390fd5b6002544201600860008361ffff1661ffff1681526020019081526020016000206000018190555050565b60076020528060005260406000206000915090508060000154908060010160009054906101000a900460ff16908060010160019054906101000a900461ffff16908060010160039054906101000a900461ffff16908060020154905085565b6000611c9882612a7e565b905060008161ffff1614611df3576060600a60008461ffff1661ffff168152602001908152602001600020600001805480602002602001604051908101604052809291908181526020018280548015611d3857602002820191906000526020600020906000905b82829054906101000a900461ffff1661ffff1681526020019060020190602082600101049283019260010382029150808411611cff5790505b5050505050905060008090505b81518161ffff161015611d7f57611d72828261ffff1681518110611d6557fe5b60200260200101516119c6565b8080600101915050611d45565b506001600860008461ffff1661ffff16815260200190815260200160002060010160006101000a81548160ff0219169083151502179055506000600660008561ffff1661ffff16815260200190815260200160002060030160006101000a81548161ffff021916908361ffff160217905550505b600a60008361ffff1661ffff1681526020019081526020016000206000016000611e1d9190614be4565b5050565b600080600080600860008661ffff1661ffff16815260200190815260200160002060000154600860008761ffff1661ffff16815260200190815260200160002060010160009054906101000a900460ff16600860008861ffff1661ffff16815260200190815260200160002060010160019054906101000a900461ffff16600860008961ffff1661ffff16815260200190815260200160002060010160039054906101000a900473ffffffffffffffffffffffffffffffffffffffff1693509350935093509193509193565b600360069054906101000a900473ffffffffffffffffffffffffffffffffffffffff1681565b60008060008060006060600960008861ffff1661ffff16815260200190815260200160002060000154600960008961ffff1661ffff16815260200190815260200160002060010160009054906101000a900460ff16600960008a61ffff1661ffff16815260200190815260200160002060020154600960008b61ffff1661ffff16815260200190815260200160002060030160009054906101000a900460ff16600960008c61ffff1661ffff16815260200190815260200160002060030160019054906101000a900461ffff16600960008d61ffff1661ffff1681526020019081526020016000206004018080548060200260200160405190810160405280929190818152602001828054801561206f57602002820191906000526020600020906000905b82829054906101000a900460010b60010b815260200190600201906020826001010492830192600103820291508084116120385790505b5050505050905095509550955095509550955091939550919395565b600860006006600061209c8a612c6b565b61ffff1661ffff16815260200190815260200160002060030160009054906101000a900461ffff1661ffff1661ffff16815260200190815260200160002060010160039054906101000a900473ffffffffffffffffffffffffffffffffffffffff1673ffffffffffffffffffffffffffffffffffffffff168773ffffffffffffffffffffffffffffffffffffffff161461213557600080fd5b61213e86614572565b612193576040517f08c379a000000000000000000000000000000000000000000000000000000000815260040180806020018281038252602b815260200180615103602b913960400191505060405180910390fd5b60048081111561219f57fe5b60ff168560ff1611156121fd576040517f08c379a000000000000000000000000000000000000000000000000000000000815260040180806020018281038252602d815260200180614eaa602d913960400191505060405180910390fd5b6000600560008861ffff1661ffff16815260200190815260200160002060030160009054906101000a900461ffff1690506001600360049054906101000a900461ffff1601600360046101000a81548161ffff021916908361ffff160217905550606060006040519080825280602002602001820160405280156122905781602001602082028038833980820191505090505b509050606060006040519080825280602002602001820160405280156122c55781602001602082028038833980820191505090505b509050606060006040519080825280602002602001820160405280156122fa5781602001602082028038833980820191505090505b50905060008960ff161480612312575060018960ff16145b156125ff5761231f614c0c565b6040518061010001604052804281526020018b60ff16600481111561234057fe5b600481111561234b57fe5b81526020018661ffff1681526020016000151581526020018a61ffff1681526020018581526020018481526020018381525090508060096000600360049054906101000a900461ffff1661ffff1661ffff1681526020019081526020016000206000820151816000015560208201518160010160006101000a81548160ff021916908360048111156123d957fe5b02179055506040820151816002015560608201518160030160006101000a81548160ff02191690831515021790555060808201518160030160016101000a81548161ffff021916908361ffff16021790555060a0820151816004019080519060200190612447929190614c62565b5060c0820151816005019080519060200190612464929190614c62565b5060e0820151816006019080519060200190612481929190614c62565b5090505060096000600360049054906101000a900461ffff1661ffff1661ffff16815260200190815260200160002060040188908060018154018082558091505090600182039060005260206000209060109182820401919006600202909192909190916101000a81548161ffff021916908360010b61ffff1602179055505060096000600360049054906101000a900461ffff1661ffff1661ffff16815260200190815260200160002060060186908060018154018082558091505090600182039060005260206000209060109182820401919006600202909192909190916101000a81548161ffff021916908360010b61ffff1602179055505060096000600360049054906101000a900461ffff1661ffff1661ffff16815260200190815260200160002060050187908060018154018082558091505090600182039060005260206000209060109182820401919006600202909192909190916101000a81548161ffff021916908360010b61ffff160217905550505061297b565b60028960ff161480612614575060038960ff16145b1561280957612621614c0c565b6040518061010001604052804281526020018b60ff16600481111561264257fe5b600481111561264d57fe5b81526020018661ffff1681526020016001151581526020018a61ffff1681526020018581526020018481526020018381525090508060096000600360049054906101000a900461ffff1661ffff1661ffff1681526020019081526020016000206000820151816000015560208201518160010160006101000a81548160ff021916908360048111156126db57fe5b02179055506040820151816002015560608201518160030160006101000a81548160ff02191690831515021790555060808201518160030160016101000a81548161ffff021916908361ffff16021790555060a0820151816004019080519060200190612749929190614c62565b5060c0820151816005019080519060200190612766929190614c62565b5060e0820151816006019080519060200190612783929190614c62565b5090505060096000600360049054906101000a900461ffff1661ffff1661ffff16815260200190815260200160002060050187908060018154018082558091505090600182039060005260206000209060109182820401919006600202909192909190916101000a81548161ffff021916908360010b61ffff160217905550505061297a565b612811614c0c565b6040518061010001604052804281526020018b60ff16600481111561283257fe5b600481111561283d57fe5b81526020018661ffff168152602001600115158152602001600061ffff1681526020018581526020018481526020018381525090508060096000600360049054906101000a900461ffff1661ffff1661ffff1681526020019081526020016000206000820151816000015560208201518160010160006101000a81548160ff021916908360048111156128cc57fe5b02179055506040820151816002015560608201518160030160006101000a81548160ff02191690831515021790555060808201518160030160016101000a81548161ffff021916908361ffff16021790555060a082015181600401908051906020019061293a929190614c62565b5060c0820151816005019080519060200190612957929190614c62565b5060e0820151816006019080519060200190612974929190614c62565b50905050505b5b600b60008b61ffff1661ffff168152602001908152602001600020600001600360049054906101000a900461ffff16908060018154018082558091505090600182039060005260206000209060109182820401919006600202909192909190916101000a81548161ffff021916908361ffff160217905550506000600760008661ffff1661ffff1681526020019081526020016000206002015490506000612a228c612c6b565b9050612a408b83600360049054906101000a900461ffff16846136f7565b50505050505050505050505050565b600080612a5b83612a7e565b905060008161ffff1614612a73576001915050612a79565b60009150505b919050565b600080600660008461ffff1661ffff16815260200190815260200160002060030160009054906101000a900461ffff16905060008161ffff1614612b3b5742600860008361ffff1661ffff16815260200190815260200160002060000154118015612b125750600860008261ffff1661ffff16815260200190815260200160002060010160009054906101000a900460ff16155b8015612b23575060008161ffff1614155b15612b315780915050612b41565b6000915050612b41565b60009150505b919050565b60006001905090565b600080600080600560008661ffff1661ffff16815260200190815260200160002060000160009054906101000a900460ff16600560008761ffff1661ffff16815260200190815260200160002060000160019054906101000a900460d01b600560008861ffff1661ffff16815260200190815260200160002060010154600560008961ffff1661ffff1681526020019081526020016000206002015493509350935093509193509193565b60066020528060005260406000206000915090508060000160009054906101000a900460ff16908060000160019054906101000a900460c01b908060000160099054906101000a900460d01b908060010154908060020154908060030160009054906101000a900461ffff16905086565b600060011515600560008461ffff1661ffff16815260200190815260200160002060000160009054906101000a900460ff16151514612d12576040517f08c379a000000000000000000000000000000000000000000000000000000000815260040180806020018281038252601c8152602001807f4e6f206578697374652073656e736f72207265676973747261646f2e0000000081525060200191505060405180910390fd5b6000600560008461ffff1661ffff16815260200190815260200160002060030160009054906101000a900461ffff169050600760008261ffff1661ffff16815260200190815260200160002060010160039054906101000a900461ffff16915050919050565b600660008361ffff1661ffff16815260200190815260200160002060000160009054906101000a900460ff16612df9576040517f08c379a000000000000000000000000000000000000000000000000000000000815260040180806020018281038252603d815260200180614ed7603d913960400191505060405180910390fd5b6000600660008461ffff1661ffff16815260200190815260200160002060030160009054906101000a900461ffff1661ffff1614612e82576040517f08c379a000000000000000000000000000000000000000000000000000000000815260040180806020018281038252604d815260200180614fc8604d913960600191505060405180910390fd5b612e8b82611c8d565b612e93614d0f565b6040518060800160405280600254420181526020016000151581526020018461ffff1681526020018373ffffffffffffffffffffffffffffffffffffffff1681525090506001600360029054906101000a900461ffff1601600360026101000a81548161ffff021916908361ffff1602179055508060086000600360029054906101000a900461ffff1661ffff1661ffff1681526020019081526020016000206000820151816000015560208201518160010160006101000a81548160ff02191690831515021790555060408201518160010160016101000a81548161ffff021916908361ffff16021790555060608201518160010160036101000a81548173ffffffffffffffffffffffffffffffffffffffff021916908373ffffffffffffffffffffffffffffffffffffffff160217905550905050600360029054906101000a900461ffff16600660008561ffff1661ffff16815260200190815260200160002060030160006101000a81548161ffff021916908361ffff160217905550505050565b606080600b60008661ffff1661ffff1681526020019081526020016000206000018054806020026020016040519081016040528092919081815260200182805480156130ab57602002820191906000526020600020906000905b82829054906101000a900461ffff1661ffff16815260200190600201906020826001010492830192600103820291508084116130725790505b50505050509050606060006040519080825280602002602001820160405280156130e45781602001602082028038833980820191505090505b50905060008090505b825181101561323f57856009600085848151811061310757fe5b602002602001015161ffff1661ffff168152602001908152602001600020600001541180156131665750846009600085848151811061314257fe5b602002602001015161ffff1661ffff16815260200190815260200160002060000154105b1561323257606060018351016040519080825280602002602001820160405280156131a05781602001602082028038833980820191505090505b50905060008090505b83518110156131f5578381815181106131be57fe5b60200260200101518282815181106131d257fe5b602002602001019061ffff16908161ffff168152505080806001019150506131a9565b5083828151811061320257fe5b60200260200101518184518151811061321757fe5b602002602001019061ffff16908161ffff1681525050809250505b80806001019150506130ed565b5080925050509392505050565b60086020528060005260406000206000915090508060000154908060010160009054906101000a900460ff16908060010160019054906101000a900461ffff16908060010160039054906101000a900473ffffffffffffffffffffffffffffffffffffffff16905084565b600560008461ffff1661ffff16815260200190815260200160002060000160009054906101000a900460ff16613338576040517f08c379a000000000000000000000000000000000000000000000000000000000815260040180806020018281038252603c815260200180615181603c913960400191505060405180910390fd5b6000600560008561ffff1661ffff16815260200190815260200160002060030160009054906101000a900461ffff1661ffff16146133c1576040517f08c379a000000000000000000000000000000000000000000000000000000000815260040180806020018281038252604c815260200180615015604c913960600191505060405180910390fd5b6133ca82612a4f565b61341f576040517f08c379a000000000000000000000000000000000000000000000000000000000815260040180806020018281038252604e815260200180615061604e913960600191505060405180910390fd5b6000600360069054906101000a900473ffffffffffffffffffffffffffffffffffffffff1673ffffffffffffffffffffffffffffffffffffffff16631b1000a0836040518263ffffffff1660e01b81526004018082815260200191505060206040518083038186803b15801561349457600080fd5b505afa1580156134a8573d6000803e3d6000fd5b505050506040513d60208110156134be57600080fd5b81019080805190602001909291905050501415613526576040517f08c379a0000000000000000000000000000000000000000000000000000000008152600401808060200182810382526040815260200180614e436040913960400191505060405180910390fd5b6001600360009054906101000a900461ffff1601600360006101000a81548161ffff021916908361ffff16021790555061355e614d53565b6040518060a00160405280600154420181526020016000151581526020018561ffff1681526020018461ffff1681526020018381525090508060076000600360009054906101000a900461ffff1661ffff1661ffff1681526020019081526020016000206000820151816000015560208201518160010160006101000a81548160ff02191690831515021790555060408201518160010160016101000a81548161ffff021916908361ffff16021790555060608201518160010160036101000a81548161ffff021916908361ffff16021790555060808201518160020155905050600a60008461ffff1661ffff16815260200190815260200160002060000184908060018154018082558091505090600182039060005260206000209060109182820401919006600202909192909190916101000a81548161ffff021916908361ffff16021790555050600360009054906101000a900461ffff16600560008661ffff1661ffff16815260200190815260200160002060030160006101000a81548161ffff021916908361ffff16021790555050505050565b6000809050613704614c0c565b600960008561ffff1661ffff16815260200190815260200160002060405180610100016040529081600082015481526020016001820160009054906101000a900460ff16600481111561375357fe5b600481111561375e57fe5b8152602001600282015481526020016003820160009054906101000a900460ff161515151581526020016003820160019054906101000a900461ffff1661ffff1661ffff1681526020016004820180548060200260200160405190810160405280929190818152602001828054801561381c57602002820191906000526020600020906000905b82829054906101000a900460010b60010b815260200190600201906020826001010492830192600103820291508084116137e55790505b505050505081526020016005820180548060200260200160405190810160405280929190818152602001828054801561389a57602002820191906000526020600020906000905b82829054906101000a900460010b60010b815260200190600201906020826001010492830192600103820291508084116138635790505b505050505081526020016006820180548060200260200160405190810160405280929190818152602001828054801561391857602002820191906000526020600020906000905b82829054906101000a900460010b60010b815260200190600201906020826001010492830192600103820291508084116138e15790505b505050505081525050905060608160e00151905060608260c00151905060608360a00151905060008960ff161415613cd8576000600360069054906101000a900473ffffffffffffffffffffffffffffffffffffffff1673ffffffffffffffffffffffffffffffffffffffff166302378e748a6040518263ffffffff1660e01b81526004018082815260200191505060206040518083038186803b1580156139bf57600080fd5b505afa1580156139d3573d6000803e3d6000fd5b505050506040513d60208110156139e957600080fd5b810190808051906020019092919050505090506000600360069054906101000a900473ffffffffffffffffffffffffffffffffffffffff1673ffffffffffffffffffffffffffffffffffffffff166321cab1148b6040518263ffffffff1660e01b81526004018082815260200191505060206040518083038186803b158015613a7157600080fd5b505afa158015613a85573d6000803e3d6000fd5b505050506040513d6020811015613a9b57600080fd5b810190808051906020019092919050505090506000600360069054906101000a900473ffffffffffffffffffffffffffffffffffffffff1673ffffffffffffffffffffffffffffffffffffffff166376e4ed458c6040518263ffffffff1660e01b81526004018082815260200191505060206040518083038186803b158015613b2357600080fd5b505afa158015613b37573d6000803e3d6000fd5b505050506040513d6020811015613b4d57600080fd5b810190808051906020019092919050505090506000600360069054906101000a900473ffffffffffffffffffffffffffffffffffffffff1673ffffffffffffffffffffffffffffffffffffffff16634b29e7088d6040518263ffffffff1660e01b81526004018082815260200191505060206040518083038186803b158015613bd557600080fd5b505afa158015613be9573d6000803e3d6000fd5b505050506040513d6020811015613bff57600080fd5b8101908080519060200190929190505050905086600188510381518110613c2257fe5b602002602001015160010b8460010b1380613c59575085600187510381518110613c4857fe5b602002602001015160010b8360010b125b15613c675760019850613ccf565b621baf80886080015161ffff16118015613cc457508160010b85600187510381518110613c9057fe5b602002602001015160010b1280613cc357508060010b85600187510381518110613cb657fe5b602002602001015160010b135b5b15613cce57600198505b5b50505050614119565b60018960ff161415614072576000600360069054906101000a900473ffffffffffffffffffffffffffffffffffffffff1673ffffffffffffffffffffffffffffffffffffffff1663f94a91c08a6040518263ffffffff1660e01b81526004018082815260200191505060206040518083038186803b158015613d5957600080fd5b505afa158015613d6d573d6000803e3d6000fd5b505050506040513d6020811015613d8357600080fd5b810190808051906020019092919050505090506000600360069054906101000a900473ffffffffffffffffffffffffffffffffffffffff1673ffffffffffffffffffffffffffffffffffffffff1663bd848c308b6040518263ffffffff1660e01b81526004018082815260200191505060206040518083038186803b158015613e0b57600080fd5b505afa158015613e1f573d6000803e3d6000fd5b505050506040513d6020811015613e3557600080fd5b810190808051906020019092919050505090506000600360069054906101000a900473ffffffffffffffffffffffffffffffffffffffff1673ffffffffffffffffffffffffffffffffffffffff1663a60581148c6040518263ffffffff1660e01b81526004018082815260200191505060206040518083038186803b158015613ebd57600080fd5b505afa158015613ed1573d6000803e3d6000fd5b505050506040513d6020811015613ee757600080fd5b810190808051906020019092919050505090506000600360069054906101000a900473ffffffffffffffffffffffffffffffffffffffff1673ffffffffffffffffffffffffffffffffffffffff16637aed19cd8d6040518263ffffffff1660e01b81526004018082815260200191505060206040518083038186803b158015613f6f57600080fd5b505afa158015613f83573d6000803e3d6000fd5b505050506040513d6020811015613f9957600080fd5b8101908080519060200190929190505050905086600188510381518110613fbc57fe5b602002602001015160010b8460010b1380613ff3575085600187510381518110613fe257fe5b602002602001015160010b8360010b125b156140015760019850614069565b621baf80886080015161ffff1611801561405e57508160010b8560018751038151811061402a57fe5b602002602001015160010b128061405d57508060010b8560018751038151811061405057fe5b602002602001015160010b135b5b1561406857600198505b5b50505050614118565b600360069054906101000a900473ffffffffffffffffffffffffffffffffffffffff1673ffffffffffffffffffffffffffffffffffffffff16636710aff96040518163ffffffff1660e01b815260040160206040518083038186803b1580156140da57600080fd5b505afa1580156140ee573d6000803e3d6000fd5b505050506040513d602081101561410457600080fd5b810190808051906020019092919050505094505b5b84156143a7576000600660008861ffff1661ffff16815260200190815260200160002060030160009054906101000a900461ffff1690506000600860008361ffff1661ffff16815260200190815260200160002060010160039054906101000a900473ffffffffffffffffffffffffffffffffffffffff16905060606040518060400160405280601f81526020017f7072696d65726f735f62797465735f6369667261646f735f6d656e73616a6500815250905060606040518060400160405280601f81526020017f736567756e646f735f62797465735f6369667261646f735f6d656e73616a65008152509050600460009054906101000a900473ffffffffffffffffffffffffffffffffffffffff1673ffffffffffffffffffffffffffffffffffffffff16638d9fa456848e85856040518563ffffffff1660e01b8152600401808573ffffffffffffffffffffffffffffffffffffffff1673ffffffffffffffffffffffffffffffffffffffff1681526020018481526020018060200180602001838103835285818151815260200191508051906020019080838360005b838110156142d45780820151818401526020810190506142b9565b50505050905090810190601f1680156143015780820380516001836020036101000a031916815260200191505b50838103825284818151815260200191508051906020019080838360005b8381101561433a57808201518184015260208101905061431f565b50505050905090810190601f1680156143675780820380516001836020036101000a031916815260200191505b509650505050505050600060405180830381600087803b15801561438a57600080fd5b505af115801561439e573d6000803e3d6000fd5b50505050505050505b505050505050505050565b600560008261ffff1661ffff16815260200190815260200160002060000160009054906101000a900460ff16614433576040517f08c379a000000000000000000000000000000000000000000000000000000000815260040180806020018281038252603b815260200180614f67603b913960400191505060405180910390fd5b61443c816119c6565b6000600560008361ffff1661ffff16815260200190815260200160002060000160006101000a81548160ff02191690831515021790555050565b60056020528060005260406000206000915090508060000160009054906101000a900460ff16908060000160019054906101000a900460d01b908060010154908060020154908060030160009054906101000a900461ffff16905085565b6060600b60008361ffff1661ffff16815260200190815260200160002060000180548060200260200160405190810160405280929190818152602001828054801561456657602002820191906000526020600020906000905b82829054906101000a900461ffff1661ffff168152602001906002019060208260010104928301926001038202915080841161452d5790505b50505050509050919050565b60008061457e83611a55565b905060008161ffff161461459657600191505061459c565b60009150505b919050565b60086000600660006145b28b612c6b565b61ffff1661ffff16815260200190815260200160002060030160009054906101000a900461ffff1661ffff1661ffff16815260200190815260200160002060010160039054906101000a900473ffffffffffffffffffffffffffffffffffffffff1673ffffffffffffffffffffffffffffffffffffffff168973ffffffffffffffffffffffffffffffffffffffff161461464b57600080fd5b61465487614572565b6146a9576040517f08c379a000000000000000000000000000000000000000000000000000000000815260040180806020018281038252602b8152602001806150d8602b913960400191505060405180910390fd5b600160048111156146b657fe5b60ff168660ff161115614714576040517f08c379a000000000000000000000000000000000000000000000000000000000815260040180806020018281038252602f815260200180614e14602f913960400191505060405180910390fd5b600960008961ffff1661ffff16815260200190815260200160002060030160009054906101000a900460ff161561474a57600080fd5b8461ffff16600960008a61ffff1661ffff168152602001908152602001600020600201541461477857600080fd5b6000600760008761ffff1661ffff16815260200190815260200160002060020154905060008760ff1614806147b0575060018760ff16145b156149635784600960008b61ffff1661ffff16815260200190815260200160002060030160016101000a81548161ffff021916908361ffff16021790555060096000600360049054906101000a900461ffff1661ffff1661ffff16815260200190815260200160002060040184908060018154018082558091505090600182039060005260206000209060109182820401919006600202909192909190916101000a81548161ffff021916908360010b61ffff1602179055505060096000600360049054906101000a900461ffff1661ffff1661ffff16815260200190815260200160002060060182908060018154018082558091505090600182039060005260206000209060109182820401919006600202909192909190916101000a81548161ffff021916908360010b61ffff1602179055505060096000600360049054906101000a900461ffff1661ffff1661ffff16815260200190815260200160002060050183908060018154018082558091505090600182039060005260206000209060109182820401919006600202909192909190916101000a81548161ffff021916908360010b61ffff160217905550505b600061496e89612c6b565b905061497c88838c846136f7565b5050505050505050505050565b6000806000806000600760008761ffff1661ffff16815260200190815260200160002060000154600760008861ffff1661ffff16815260200190815260200160002060010160009054906101000a900460ff16600760008961ffff1661ffff16815260200190815260200160002060010160039054906101000a900461ffff16600760008a61ffff1661ffff16815260200190815260200160002060010160019054906101000a900461ffff16600760008b61ffff1661ffff168152602001908152602001600020600201549450945094509450945091939590929450565b6040518060c00160405280600015158152602001600077ffffffffffffffffffffffffffffffffffffffffffffffff19168152602001600079ffffffffffffffffffffffffffffffffffffffffffffffffffff191681526020016000801916815260200160008019168152602001600061ffff1681525090565b82805482825590600052602060002090600f01601090048101928215614b7b5791602002820160005b83821115614b4b57835183826101000a81548161ffff021916908361ffff1602179055509260200192600201602081600101049283019260010302614b0b565b8015614b795782816101000a81549061ffff0219169055600201602081600101049283019260010302614b4b565b505b509050614b889190614d8c565b5090565b6040518060a00160405280600015158152602001600079ffffffffffffffffffffffffffffffffffffffffffffffffffff191681526020016000801916815260200160008019168152602001600061ffff1681525090565b50805460008255600f016010900490600052602060002090810190614c099190614dbd565b50565b6040518061010001604052806000815260200160006004811115614c2c57fe5b815260200160008152602001600015158152602001600061ffff1681526020016060815260200160608152602001606081525090565b82805482825590600052602060002090600f01601090048101928215614cfe5791602002820160005b83821115614cce57835183826101000a81548161ffff021916908360010b61ffff1602179055509260200192600201602081600101049283019260010302614c8b565b8015614cfc5782816101000a81549061ffff0219169055600201602081600101049283019260010302614cce565b505b509050614d0b9190614de2565b5090565b604051806080016040528060008152602001600015158152602001600061ffff168152602001600073ffffffffffffffffffffffffffffffffffffffff1681525090565b6040518060a0016040528060008152602001600015158152602001600061ffff168152602001600061ffff168152602001600081525090565b614dba91905b80821115614db657600081816101000a81549061ffff021916905550600101614d92565b5090565b90565b614ddf91905b80821115614ddb576000816000905550600101614dc3565b5090565b90565b614e1091905b80821115614e0c57600081816101000a81549061ffff021916905550600101614de8565b5090565b9056fe456c207469706f20646520616c6572746120696e74726f64756369746f206e6f20657320656c20636f72726563746f4e6f20657869737465206c61206d65646963696e6120717565207365207472617461206465206d6f6e69746f72697a617220636f6e20656c2073656e736f722e456c20636572746966696361646f2064656c206761746577617920686120636164756361646f2e456c207469706f20646520616c6572746120696e74726f64756369746f206e6f20657320636f72726563746f2e4e6f2065786973746520656c206761746577617920616c20717565207365206c6520646573656120637265617220656c20636572746966696361646f2e456c20636572746966696361646f2064656c2067617465776179206573746120636164756361646f2e457374652049442079612065737461207265676973747261646f207061726120756e2073656e736f722e4e6f20657869737465206f20796120736520686120626f727261646f20656c2073656e736f722071756520736520646573656120626f727261722e456c20636572746966696361646f2064656c2073656e736f7220686120636164756361646f2e59612065786973746520636572746966696361646f206465206573746520676174657761792e205265766f63616c6f207061726120706f64657220616e796164697220756e6f206e7565766f2e59612065786973746520636572746966696361646f20646520657374652073656e736f722e205265766f63616c6f207061726120706f64657220616e796164697220756e6f206e7565766f2e4e6f2065786973746520756e20636572746966696361646f2076616c69646f2064656c206761746577617920616c207175652073652064657365612061736f6369617220656c2073656e736f722e456c20636572746966696361646f2064656c20676174657761792065737461207265766f6361646f2e456c2073656e736f72206e6f20646973706f6e6520646520636572746966696361646f2061637469766f2e456c2073656e736f72206e6f20646973706f6e6520646520636572746966696361646f2076616c69646f2e457374652049442079612065737461207265676973747261646f207061726120756e20676174657761792e456c20636572746966696361646f2064656c2073656e736f722065737461207265766f6361646f2e4e6f2065786973746520656c2073656e736f7220616c20717565207365206c6520646573656120637265617220656c20636572746966696361646f2ea265627a7a7231582013074cd9364448f3d512df27f06492108e9d857426194ad27ccbe794218a470264736f6c63430005100032457374652049442079612065737461207265676973747261646f207061726120756e2073656e736f722e457374652049442079612065737461207265676973747261646f207061726120756e20676174657761792e",
  "source": "// SPDX-License-Identifier: GPL-3.0\n// Enable optimizer\n\npragma solidity >=0.5.13 <0.9.0;\n\n/**\n * @title Protocol\n * @dev Administracin de dispositivos y sus certificados segn protocolo.\n * @custom:dev-run-script ./scripts/deploy_with_ethers.ts\n */\n\nimport \"./Medicines.sol\";\nimport \"./Notifications.sol\";\n\n\ncontract Protocol {\n\n    //Variables utilizadas\n\n    address owner = 0xFaD90A54C5E0b91Ff95d498E33a0920Afcb0d226; //Direccin de la cartera del servidor. Se usa en las funciones para que solo el servidor pueda acceder a ellas\n    uint durationSC = 5259600; //Duracin de la validez del certificado para un sensor (2 meses)\n    uint durationGC = 13149000; //Duracin de la validez del certificado para un gateway (5 meses)\n    uint16 totalSC = 0; //Total de certificados de sensores registrados\n    uint16 totalGC = 0; //Total de certificados de gateways registrados\n    uint16 totalW = 0; //Total de alarmas registradas\n    enum WarningType{ temp, hum, light, mov, discon } //Tipos de alertas\n\n    Medicines public medicinesContract;  // Declaracin de la instancia de Medicines\n    Notifications public notificationsContract;  // Declaracin de la instancia de Notification\n\n    constructor(address medicinesAddress_, address notificationsAddress_) public{\n        medicinesContract = Medicines(medicinesAddress_);  // Asignacin de la instancia de Medicines.\n        notificationsContract = Notifications(notificationsAddress_); // Asignacin de la instancia de Notifications.\n        sensorRegistration(1,hex\"00B0D063C226\",hex\"476176696f7461\",hex\"496e20536f6c6964697479\"); //Creamos un sensor de prueba\n        gatewayRegistration(1,hex\"4578616d706c65\",hex\"00B0D063C226\",hex\"476176696f7461\",hex\"496e20536f6c6964697479\"); //Creamos un gateway de prueba\n    }\n\n    // Estructuras usadas en el subprotocolo\n\n    struct Sensor{\n        bool registered; // Estado: true = registrado ; false = no registrado (borrado)\n        bytes6 mac; //Identificador MAC del sensor\n        bytes32 pubKeyL; //Primeros 32 bytes de la clave pblica del sensor\n        bytes32 pubKeyR; //ltimos 32 bytes de la clave pblica del sensor\n        uint16 sensorCertificateID; //ID del ltimo certificado de sensor aadido. Por defecto se deja en 0, lo que implica que no tiene certificado\n    }\n\n    struct Gateway{\n        bool registered; // Estado: true = registrado ; false = no registrado (borrado)\n        bytes8 devEui; //Algo del LoRa, mirar ms tarde (identificador WiFi)\n        bytes6 mac; //Identificador MAC del gateway\n        bytes32 pubKeyL; //Primeros 32 bytes de la clave pblica del sensor\n        bytes32 pubKeyR; //ltimos 32 bytes de la clave pblica del sensor\n        uint16 gatewayCertificateID; //ID del ltimo certificado de gateway aadido. Por defecto se deja en 0, lo que implica que no tiene certificado\n    }\n\n    struct SensorCertificate{\n        uint expiryDate; // Fecha de expiracin del contrato\n        bool revoked; // Estado: true=revocado ;  false = vlido\n        uint16 idS; // Identificador del sensor al que certifica (nmero de serie)\n        uint16 idG;  // Identificador del gateway asociado al sensor (nmero de serie)\n        uint idM; // Identificador de la medicina controlada\n    }\n\n    struct GatewayCertificate{\n        uint expiryDate; // Fecha de expiracin del contrato\n        bool revoked; // Estado: true=revocado ;  false = vlido\n        uint16 idG;  // Identificador del gateway al que certifica\n        address userAddress; // Direccin de la cartera del usuario que tiene instalado el gateway en su casa\n    }\n\n    //Estructura para crear un mapeo que diga los sensores con certificado asociado a un gateway determinado\n    struct SensorsOfGateway{\n        uint16[] sensors;\n    }\n\n    struct Warning{\n        uint date; // Fecha de registro de la alarma\n        WarningType warningType; // Tipo de alarma. enum con todas las opciones definido al comienzo del contrato\n        uint idSC; // ID del certificado del sensor que ha avisado de la alarma\n        bool closed; // Estado de la alarma\n        uint16 duration; // Duracin de la exposicin de la medicina al estado anmalo\n        int16[] vAvg; // Media de los valores tomados durante el tiempo de estado anmalo\n        int16[] vMax; //Valores mximo y mnimo tomados durante el tiempo de estado anmalo\n        int16[] vMin; \n    }\n\n\n    //Estructura para crear un mapeo que diga los warnings de un sensor\n    struct WarningsOfSensors{\n        uint16[] warnings;\n    }\n\n\n\n    //Mapeo para definir el ndice de los sensores y gateways\n\n    mapping(uint16 => Sensor) public listS; //Mapeo de los sensores usando idS (nmero de serie) como ndice\n    mapping(uint16 => Gateway) public listG; //Mapeo de los gateways usando idG (nmero de serie) como ndice\n    mapping(uint16 => SensorCertificate) public listSC; //Mapeo de los gateways usando idSC como ndice\n    mapping(uint16 => GatewayCertificate) public listGC; //Mapeo de los gateways usando idGC como ndice\n    mapping(uint16 => Warning) public listW; //Mapeo de los warnings\n    mapping(uint16 => SensorsOfGateway) internal sensorsOfGateway; //Mapeo de las listas de sensores con el idG del gateway al que estn asociados\n    mapping(uint16 => WarningsOfSensors) internal warningsOfSensor; //Mapeo de las listas de warnings con el idS del sensor al que perteneces\n\n\n    //Funcin para aadir un sensor a la lista de sensores registrados\n    function sensorRegistration(uint16 idS_,bytes6 mac_,bytes32 pubKeyL_,bytes32 pubKeyR_) public {\n        //require(msg.sender == owner);\n        require(listS[idS_].registered == false, \"Este ID ya esta registrado para un sensor.\");\n        Sensor memory newSensor = Sensor(true,mac_,pubKeyL_,pubKeyR_,0); //Se crea un objeto temporal creando la estructura del sensor\n        listS[idS_] = newSensor; //Se aade al mapeo con el ndice deseado\n    }\n\n    //Funcin para aadir un sensor a la lista de sensores registrados\n    function gatewayRegistration(uint16 idG_,bytes8 devEui_,bytes6 mac_,bytes32 pubKeyL_,bytes32 pubKeyR_) public {\n        //require(msg.sender == owner);\n        require(listG[idG_].registered == false, \"Este ID ya esta registrado para un gateway.\");\n        Gateway memory newGateway = Gateway(true,devEui_,mac_,pubKeyL_,pubKeyR_,0); //Se crea un objeto temporal creando la estructura del gateway\n        listG[idG_] = newGateway; //Se aade al mapeo con el ndice deseado\n        uint16[] memory aux = new uint16[](0); // Variable auxiliar para crear un array vaco\n        sensorsOfGateway[idG_].sensors = aux; // Se crea la lista de sensores asociados al gateway (inicializada vaca)\n    }\n\n    //Funcin para crear un certificado de gateway\n    function gatewayCertificateCreation(uint16 idG_,address userAddress_) public{\n        //require(msg.sender == owner);\n        require(listG[idG_].registered,\"No existe el gateway al que se le desea crear el certificado.\"); // Requisito: que el gateway est registrado en la lista de gateways\n        require(listG[idG_].gatewayCertificateID == 0, \"Ya existe certificado de este gateway. Revocalo para poder anyadir uno nuevo.\"); // Se necesita que no exista ya un certificado existente\n        revokeGatewayCertificate(idG_); // Se revocan los certificados del gateway junto con todos los certificados anteriores de los sensores\n        GatewayCertificate memory newGatewayCertificate = GatewayCertificate(block.timestamp+durationGC,false,idG_,userAddress_); // Se crea un objeto temporal creando la estructura del gateway\n        totalGC = totalGC + 1; // Se aade 1 al contador general de certificados de gateway\n        listGC[totalGC] = newGatewayCertificate; // Se aade al mapeo con el ndice deseado\n        listG[idG_].gatewayCertificateID = totalGC; // Se aade el identificador del certificado como vigente en la estructura de datos\n    }\n\n    //Funcin para crear un certificado de sensor\n    function sensorCertificateCreation(uint16 idS_,uint16 idG_,uint idM_) public{\n        //require(msg.sender == owner);\n        require(listS[idS_].registered,\"No existe el sensor al que se le desea crear el certificado.\"); // Requisitos: que el sensor est registrado en la lista de sensores\n        require(listS[idS_].sensorCertificateID == 0, \"Ya existe certificado de este sensor. Revocalo para poder anyadir uno nuevo.\");\n        require(checkGatewayCertificateStatus(idG_),\"No existe un certificado valido del gateway al que se desea asociar el sensor.\"); // que exista certificado del gateway al que se quiere asociar el sensor\n        require(medicinesContract.getMedicineIndex(idM_) != 0,\"No existe la medicina que se trata de monitorizar con el sensor.\"); // Que exista la medicina que se desea monitorizar con el sensor\n        totalSC = totalSC + 1; // Se aade 1 al total de certificados de sensores\n        SensorCertificate memory newSensorCertificate = SensorCertificate(block.timestamp+durationSC,false,idS_,idG_,idM_); // Se crea el certificado con los datos necesarios\n        listSC[totalSC] = newSensorCertificate; //Almacena el certificado del sensor en el mapeo de certificados de sensores\n        (sensorsOfGateway[idG_].sensors).push(idS_); //Se aade el sensor a la lista de sensores asociados al gateway\n        listS[idS_].sensorCertificateID = totalSC; // Se aade el identificador del certificado como vigente en la estructura de datos\n    }\n\n    //Funcin para actualizar la fecha de expiracin de un gateway\n    function gatewayCertificateUpdate(uint16 idGC_) public{\n        //require(msg.sender == owner);\n        require(listGC[idGC_].expiryDate > block.timestamp, \"El certificado del gateway ha caducado.\");\n        require(!listGC[idGC_].revoked,\"El certificado del gateway esta revocado.\");\n\n        listGC[idGC_]. expiryDate = block.timestamp + durationGC; // Tiempo actual + duracin determinada por defecto de un certificado de gateway\n    }\n\n    //Funcin para actualizar la fecha de expiracin de un sensor\n    function sensorCertificateUpdate(uint16 idSC_, uint16 idGC_) public{\n        //require(msg.sender == owner);\n        require(listGC[idGC_].expiryDate > block.timestamp, \"El certificado del gateway esta caducado.\");\n        require(!listGC[idGC_].revoked,\"El certificado del gateway esta revocado.\");\n        require(listSC[idSC_].expiryDate > block.timestamp, \"El certificado del sensor ha caducado.\");\n        require(!listSC[idSC_].revoked,\"El certificado del sensor esta revocado.\");\n\n        listGC[idSC_]. expiryDate = block.timestamp + durationSC; // Tiempo actual + duracin determinada por defecto de un certificado de sensor\n    }\n\n\n    //Funcin para saber el idGC del certificado vigente del gateway de entrada\n    function getGatewayCertificateID(uint16 idG_) public view returns (uint16 idGC_){\n        //require(msg.sender == owner);\n        uint16 aux = listG[idG_].gatewayCertificateID; // Buscamos el id del ltimo certificado del gateway\n        if(aux != 0){ // Si existe\n            if((listGC[aux].expiryDate > block.timestamp)&&(!listGC[aux].revoked)&&(aux != 0)){ // Comprobamos que no est caducado\n                return aux; // Si no lo est, devolvemos su id como output\n            } else{\n                return 0; // Si no, devolvemos 0\n            }\n        } else {\n                return 0;\n        }\n    }\n\n    //Funcin para saber el idSC del certificado vigente del sensor de entrada sin necesidad del idG\n    function getSensorCertificateID(uint16 idS_) public view returns (uint16 idSC_){\n        //require(msg.sender == owner);\n        \n        uint16 aux = listS[idS_].sensorCertificateID; // Buscamos el id del ltimo certificado del sensor\n        if(aux != 0){ // Si existe\n            if((listSC[aux].expiryDate > block.timestamp)&&(!listSC[aux].revoked)){ // Comprobamos que no est caducado\n                return aux; // Si no lo est, devolvemos su id como output\n            } else{\n                return 0; // Si no, devolvemos 0\n            }\n        } else{\n            return 0;\n        }\n    }\n\n    //Funcin para comprobar si un gateway tiene un certificado vlido vigente\n    function checkGatewayCertificateStatus(uint16 idG_) public view returns(bool){\n        //require(msg.sender == owner);\n\n        uint16 aux = getGatewayCertificateID(idG_); // Buscamos el id del ltimo certificado del gateway\n\n        if (aux != 0){ // Si existe\n            return true;\n        } else { //Si no\n            return false; // No hay certificado de este gateway\n        }\n\n    }\n\n    \n    //Funcin para comprobar si un sensor tiene un certificado vlido vigente\n    function checkSensorCertificateStatus(uint16 idS_) public view returns(bool){\n        //require(msg.sender == owner);\n\n        uint16 aux = getSensorCertificateID(idS_); // Buscamos el id del ltimo certificado del sensor\n\n        if (aux != 0){ //Si existe\n            return true;\n        }else{ //Si no\n            return false; // No hay certificado de este sensor\n        }\n        \n    }\n\n    // Funcin para revocar el timo certificado de un sensor\n    function revokeSensorCertificate(uint16 idS_) public{\n        //require(msg.sender == owner);\n        uint16 aux = getSensorCertificateID(idS_); // Buscamos el id del ltimo certificado del sensor\n        if (aux!=0){ // Si existe\n            listSC[aux].revoked = true; //Lo revocamos\n            listS[idS_].sensorCertificateID = 0; // Y establecemos valor de certificado vigente a 0 para determinar que no hay certificado vlido\n        }\n    }\n\n    // Funcin para revocar el certificado de un gateway y todos los certificados de sensores asociados a ese gateway\n    function revokeGatewayCertificate(uint16 idG_) public{ \n        //require(msg.sender == owner);\n        uint16 aux1 = getGatewayCertificateID(idG_); // Buscamos el id del ltimo certificado del gateway\n        if (aux1 != 0){\n            uint16[] memory aux = sensorsOfGateway[idG_].sensors;\n            for (uint16 i = 0; i < aux.length; i++){\n                revokeSensorCertificate(aux[i]);\n            }\n            listGC[aux1].revoked = true;\n            listG[idG_].gatewayCertificateID = 0;\n        }\n\n        delete sensorsOfGateway[idG_].sensors;\n        \n    }\n\n    // Funcin para borrar un sensor de la lista de sensores registrados\n    function eraseSensor(uint16 idS_) public{\n        //require(msg.sender == owner);\n        require(listS[idS_].registered,\"No existe o ya se ha borrado el sensor que se desea borrar.\");  // Se comprueba que haya sensor a borrar\n        revokeSensorCertificate(idS_); //Se revoca el certificado\n        listS[idS_].registered = false; //Se pone como no registrado (se borra)\n    }\n\n    //Funcin para borrar un gateway de la lista de gateways registrados\n    function eraseGateway(uint16 idG_) public{\n        //require(msg.sender == owner);\n        require(listG[idG_].registered,\"No existe o ya se ha borrado el sensor que se desea borrar.\");  // Se comprueba que haya gateway a borrar\n        uint16[] memory auxArray = getGatewaysSensorList(idG_);\n        for (uint i = 0; i<auxArray.length; i++){  // Se borran todos los sensores porque no se pueden reutilizar\n            if(listS[auxArray[i]].registered){\n                eraseSensor(auxArray[i]);\n            }\n        }\n        revokeGatewayCertificate(idG_); //Se revoca el certificado\n        listG[idG_].registered = false; //Se pone como no registrado (se borra)\n    }\n\n    // Funcin para registrar una nueva alarma. Se limitan las pruebas a los parmetros de temperatura\n    function newWarning(address owner_, uint16 idS_, uint8 warningType_, uint16 duration_, int16 vAvg_,int16 vMax_, int16 vMin_) public{\n        //require(msg.sender == owner);\n        require(owner_==listGC[listG[getAssociatedGateway(idS_)].gatewayCertificateID].userAddress);\n        require(checkSensorCertificateStatus(idS_),\"El sensor no dispone de certificado valido.\"); // Comprobar que exista un certificado del Sensor\n        require(warningType_ <= uint8(WarningType.discon),\"El tipo de alerta introducito no es correcto.\");\n        uint16 idSC_ = listS[idS_].sensorCertificateID;\n        totalW = totalW + 1;\n        int16[] memory aux = new int16[](0); // Variable auxiliar para crear un array vaco\n        int16[] memory aux1 = new int16[](0); // Variable auxiliar para crear un array vaco\n        int16[] memory aux2 = new int16[](0); // Variable auxiliar para crear un array vaco\n        if ((warningType_ == 0)||(warningType_ == 1)){ // Temperatura o humedad\n            Warning memory newWarn = Warning(block.timestamp,WarningType(warningType_),idSC_,false,duration_,aux,aux1,aux2); //Se crea un objeto temporal creando la estructura del warning (temperatura)\n            listW[totalW] = newWarn; //Se aade al mapeo con el ndice deseado\n            (listW[totalW].vAvg).push(vAvg_); //Se aade el valor medio medido\n            (listW[totalW].vMin).push(vMin_); //Se aade el valor medio medido\n            (listW[totalW].vMax).push(vMax_); //Se aade el valor medio medido\n        } else if ((warningType_ == 2)||(warningType_ == 3)){ // Luz o movimiento\n            Warning memory newWarn = Warning(block.timestamp,WarningType(warningType_),idSC_,true,duration_,aux,aux1,aux2); //Se crea un objeto temporal creando la estructura del warning (luz)\n            listW[totalW] = newWarn; //Se aade al mapeo con el ndice deseado\n            (listW[totalW].vMax).push(vMax_); //Se aade el valor medio medido\n        } else{ // Desconexin\n            Warning memory newWarn = Warning(block.timestamp,WarningType(warningType_),idSC_,true,0,aux,aux1,aux2); //Se crea un objeto temporal creando la estructura del warning (desconexin)\n            listW[totalW] = newWarn; //Se aade al mapeo con el ndice deseado\n        }\n\n        (warningsOfSensor[idS_].warnings).push(totalW); //Se aade el warnings a la lista de warnings del sensor correspondiente\n    \n        uint auxMedId = listSC[idSC_].idM; // Variable auxiliar para poder acceder al id de la medicina\n\n        uint16 idG = getAssociatedGateway(idS_); // Variable que se usa en processWarning() para determinar el usuario a quien enviar la notificacin\n\n        processWarning(warningType_,auxMedId,totalW, idG);\n        \n    }\n\n    // Funcin para aadir un nuevo valor a los warnings de temperatura y humedad\n\n    function updateWarning(address owner_,uint16 idW_, uint16 idS_, uint8 warningType_, uint16 idSC_, uint16 duration_, int16 vAvg_,int16 vMax_, int16 vMin_) public{\n        //require(msg.sender == owner);\n        require(owner_==listGC[listG[getAssociatedGateway(idS_)].gatewayCertificateID].userAddress);\n        require(checkSensorCertificateStatus(idS_),\"El sensor no dispone de certificado activo.\"); // Comprobar que exista un certificado del Sensor\n        require(warningType_ <= uint8(WarningType.hum),\"El tipo de alerta introducito no es el correcto\");\n        require(!listW[idW_].closed);\n        require(listW[idW_].idSC == idSC_);\n        \n        uint auxMedId = listSC[idSC_].idM; // Variable auxiliar para poder acceder al id de la medicina\n        \n        if ((warningType_ == 0)||(warningType_ == 1)){ // Temperatura o humedad\n            listW[idW_].duration = duration_;\n            (listW[totalW].vAvg).push(vAvg_); //Se aade el valor medio medido\n            (listW[totalW].vMin).push(vMin_); //Se aade el valor medio medido\n            (listW[totalW].vMax).push(vMax_); //Se aade el valor medio medido\n        }\n        \n        uint16 idG = getAssociatedGateway(idS_); // Variable que se usa en processWarning() para determinar el usuario a quien enviar la notificacin\n\n        processWarning(warningType_,auxMedId,idW_,idG);\n    }\n    \n    // Funcin de procesado de los warnings \n\n    function processWarning(uint8 warningType_, uint idM_,uint16 idW_, uint16 idG_) public {\n        //require(msg.sender == owner);\n        bool decision = false;\n        Warning memory auxWarning = listW[idW_];\n\n        int16[] memory warningVMin = auxWarning.vMin; // Extraemos los datos del warning (valor mnimo, valor mximo y valor medio)\n        int16[] memory warningVMax = auxWarning.vMax;\n        int16[] memory warningVAvg = auxWarning.vAvg;\n\n        if (warningType_ == 0 ){ // Temperatura\n\n            int16 vMin = medicinesContract.getMedicineMinTempParam(idM_); // Recogemos los parmetros de la medicina\n            int16 vMax = medicinesContract.getMedicineMaxTempParam(idM_);\n            int16 minRecTemp = medicinesContract.getMedicineMinRecTempParam(idM_);\n            int16 maxRecTemp = medicinesContract.getMedicineMaxRecTempParam(idM_);\n            \n            if ((vMin > warningVMin[warningVMin.length - 1])||(vMax < warningVMax[warningVMax.length - 1])){ // Si el valor mnimo o mximo ha sobrepasado el umbral permitido, se tira la medicina\n                decision = true;\n            }else if ((auxWarning.duration > 1814400)&&((warningVAvg[warningVAvg.length - 1]<minRecTemp)||(warningVAvg[warningVAvg.length - 1]>maxRecTemp))){ // Si el valor medio registrado ha estado fuera de los rangos recomendados ms de 21 das, se tira la medicina\n                decision = true;\n            }\n\n        }else if (warningType_ == 1){ // Humedad\n            int16 vMin = medicinesContract.getMedicineMinHumParam(idM_);\n            int16 vMax = medicinesContract.getMedicineMaxHumParam(idM_);\n            int16 minRecHum = medicinesContract.getMedicineMinRecHumParam(idM_);\n            int16 maxRecHum = medicinesContract.getMedicineMaxRecHumParam(idM_);\n            \n            if ((vMin > warningVMin[warningVMin.length - 1])||(vMax < warningVMax[warningVMax.length - 1])){ // Si el valor mnimo o mximo ha sobrepasado el umbral permitido, se tira la medicina\n                decision = true;\n            }else if ((auxWarning.duration > 1814400)&&((warningVAvg[warningVAvg.length - 1]<minRecHum)||(warningVAvg[warningVAvg.length - 1]>maxRecHum))){ // Si el valor medio registrado ha estado fuera de los rangos recomendados ms de 21 das, se tira la medicina\n                decision = true;\n            }\n\n        } else{ // En los casos de luz, movimiento y desconexin, se ejecuta un algoritmo determinado\n            //int16 light = medicinesContract.getMedicineLightParam(idM_);\n            //int16 movement = medicinesContract.getMedicineMovementParam(idM_);\n            decision = medicinesContract.decisionAlgorithm(); // Placeholder del algoritmo de decisin de las medicinas para luz, movimiento y desconexin\n        }\n\n\n        if (decision){\n            uint16 idGC = listG[idG_].gatewayCertificateID;\n            address userAddress = listGC[idGC].userAddress;\n            bytes memory C1 = \"primeros_bytes_cifrados_mensaje\";\n            bytes memory C2 = \"segundos_bytes_cifrados_mensaje\";\n            notificationsContract.generateNotification(userAddress,idM_,C1,C2);\n        }\n\n    }\n\n    // Placeholder del algoritmo de decisin de las medicinas para luz, movimiento y desconexin. Debera ir en el contrato de medicinas.\n\n    function decisionAlgorithm1() public pure returns(bool){\n        return true; // Por defecto, siempre devuelve true\n    }\n\n    // Subprotocolo 3\n    // Visualizacin de informacin\n\n    // Informacin gateway\n    function getGatewayData(uint16 idG_) public view returns(bool, bytes8, bytes6, bytes32, bytes32){\n        //require(msg.sender == owner);\n        return(listG[idG_].registered,listG[idG_].devEui,listG[idG_].mac,listG[idG_].pubKeyL,listG[idG_].pubKeyR);\n    }\n\n    // Informacin sensor\n    function getSensorData(uint16 idS_) public view returns(bool, bytes6, bytes32, bytes32){\n        //require(msg.sender == owner);\n        return(listS[idS_].registered,listS[idS_].mac,listS[idS_].pubKeyL,listS[idS_].pubKeyR);\n    }\n\n    // Informacin certificado gateway\n    function getGatewayCertificateData(uint16 idGC_) public view returns(uint, bool, uint16, address){\n        //require(msg.sender == owner);\n        return(listGC[idGC_].expiryDate,listGC[idGC_].revoked,listGC[idGC_].idG,listGC[idGC_].userAddress);\n    }\n\n    // Informacin certificado sensor\n    function getSensorCertificateData(uint16 idSC_) public view returns(uint, bool, uint16, uint16, uint256){\n        //require(msg.sender == owner);\n        return(listSC[idSC_].expiryDate,listSC[idSC_].revoked,listSC[idSC_].idG,listSC[idSC_].idS,listSC[idSC_].idM);\n    }\n\n    // Informacin gateway asociado a sensor\n    function getAssociatedGateway(uint16 idS_) public view returns(uint16){\n        //require(msg.sender == owner);\n        require(listS[idS_].registered == true, \"No existe sensor registrado.\");\n\n        uint16 aux = listS[idS_].sensorCertificateID;\n\n        return listSC[aux].idG;\n        \n    }\n\n    // Informacin de alarma\n    function getWarningData(uint16 idW_) public view returns(uint, WarningType, uint, bool, uint16, int16[] memory){\n        //require(msg.sender == owner);\n        return(listW[idW_].date,listW[idW_].warningType,listW[idW_].idSC,listW[idW_].closed,listW[idW_].duration,listW[idW_].vAvg);\n    }\n\n    // Informacin sobre sensores asociados a un gateway\n    function getGatewaysSensorList(uint16 idG_) public view returns (uint16[] memory) {\n        //require(msg.sender == owner);\n        return sensorsOfGateway[idG_].sensors;\n    }\n\n    // Informacin sobre alarmas asociadas a un sensor\n    function getSensorsWarningList(uint16 idS_) public view returns (uint16[] memory) {\n        //require(msg.sender == owner);\n        return warningsOfSensor[idS_].warnings;\n    }\n\n    // Informacin sobre alarmas asociadas a un sensor producidas en un periodo de tiempo determinado\n    function getSensorsWarningListForTimePeriod(uint16 idS_, uint startT_, uint endT_) public view returns (uint16[] memory) {\n        //require(msg.sender == owner);\n        uint16[] memory warnings = warningsOfSensor[idS_].warnings;\n        uint16[] memory auxWarnings = new uint16[](0); // Inicializar el array con longitud cero\n\n        for (uint i = 0; i < warnings.length; i++) {\n            if ((listW[warnings[i]].date > startT_) && (listW[warnings[i]].date < endT_)) {\n                // Redimensionar el array y aadir el nuevo elemento, si no da error de variable is of storage pointer type and can be accessed without prior assignment\n                uint16[] memory tempArray = new uint16[](auxWarnings.length + 1);\n                for (uint j = 0; j < auxWarnings.length; j++) {\n                    tempArray[j] = auxWarnings[j];\n                }\n                tempArray[auxWarnings.length] = warnings[i];\n                auxWarnings = tempArray;\n            }\n        }\n\n        return auxWarnings;\n    }\n\n}",
  "sourcePath": "C:\\Users\\Usuario\\Desktop\\DApp-Victor\\contracts\\Protocol.sol",
  "compiler": {
    "name": "solc",
    "version": "0.5.16+commit.9c3226ce.Emscripten.clang"
  },
  "schemaVersion": "3.4.8",
  "updatedAt": "2024-05-15T18:09:25.458Z",
  "networkType": "ethereum",
  "devdoc": {
    "methods": {}
  },
  "userdoc": {
    "methods": {}
  }
}